:020000040800F2
:10000000688B0020550200081D1D00085F020008D3
:100010001B1D000889050008292D000800000000AC
:100020000000000000000000000000009D0100082A
:100030007D06000800000000F10100087528000896
:100040006F0200086F0200086F0200086F020008CC
:100050006F0200086F0200087F0600086F020008A8
:100060006F0200086F0200086F0200086F020008AC
:100070006F0200086F0200086F0200086F0200089C
:100080006F0200086F0200086F0200086F0200088C
:100090006F0200086F0200086F0200088106000866
:1000A0006F0200086F0200086F0200086F0200086C
:1000B0006F0200086F0200086F0200086F0200085C
:1000C0006F0200086F0200086F0200086F0200084C
:1000D0006F0200086F0200086F0200086F0200083C
:1000E0006F0200086F0200086F0200086F0200082C
:1000F0006F0200086F0200086F0200086F0200081C
:100100006F0200086F0200086F0200086F0200080B
:100110006F0200086F0200086F0200086F020008FB
:100120006F0200086F0200086F0200086F020008EB
:100130006F0200086F0200086F0200086F020008DB
:100140006F0200086F0200086F0200086F020008CB
:100150006F0200086F0200086F0200086F020008BB
:100160006F0200086F0200086F0200086F020008AB
:100170006F0200086F0200086F0200080000000014
:100180006F0200086F020008DFF80CD000F0E8F8FA
:100190000048004707400008688B00202A4B196878
:1001A0000868B0E8F04F80F30988BFF36F8F4FF015
:1001B000000080F3118870470000000006480068C6
:1001C000006880F3088862B661B6BFF34F8FBFF353
:1001D0006F8F00DF00BF00BF08ED00E0DFF80C000C
:1001E000016841F470010160704700BF88ED00E0D4
:1001F000EFF30980BFF36F8F134B1A681EF0100FD7
:1002000008BF20ED108A20E9F04F106008B44FF0CD
:10021000500080F31188BFF34F8FBFF36F8F04F04E
:10022000A5FB4FF0000080F3118808BC196808682E
:10023000B0E8F04F1EF0100F08BFB0EC108A80F34A
:100240000988BFF36F8F70472C000020EFF3058003
:10025000704700000648804706480047FEE7FEE773
:10026000FEE7FEE7FEE7FEE7FEE7FEE7FEE7FEE766
:100270005D290008890100082DE9F05F054600208E
:1002800092469B4688460646814640241BE0284607
:1002900041464746224600F053F853465A46C01A94
:1002A000914110D311461846224600F03AF82D1A13
:1002B00067EB01084F4622460120002100F031F88B
:1002C00017EB00094E41201EA4F10104DFDC484673
:1002D00031462A464346BDE8F09F40EA01039B07AA
:1002E00003D009E008C9121F08C0042AFAD203E0AB
:1002F00011F8013B00F8013B521EF9D27047D2B20F
:1003000001E000F8012B491EFBD270470022F6E7FE
:1003100010B513460A4604461946FFF7F0FF20467B
:1003200010BD202A04DB203A00FA02F100207047B9
:100330009140C2F1200320FA03F319439040704723
:10034000202A04DB203A21FA02F00021704721FA2A
:1003500002F3D040C2F12002914008431946704791
:10036000064C074D06E0E06840F0010394E8070002
:1003700098471034AC42F6D3FFF70AFFC04E00088E
:10038000E04E00080146014801F008B9A0860020AF
:1003900010B5044801F014F9042801D0012010BD63
:1003A000002010BDA086002010B502F0BFFC002484
:1003B0000F490E480860002048608860C8600861E6
:1003C0004861886100210A4800F014F8084801F0EB
:1003D00007F900B1012434B94FF40061044800F07A
:1003E0009DFF00B10124204610BD0000002C0140FB
:1003F000A08600202DE9F04F87B0044600254D4827
:10040000016841F400610160006800F4006001903F
:1004100048481438016841F480010160016801F422
:1004200080010191016841F004010160016801F05F
:1004300004010191016841F008010160006800F0C9
:1004400008000190022003900120049003260596E5
:100450000C2006904FF4F850029002A9364800F0A4
:100460001DFB0427029702A9344800F017FB002265
:100470000521312000F05AFC312000F04CFC3048BE
:100480004FF00068C0F804808560C5604FF4806953
:10049000C0F810904FF4805AC0F814A04FF4804B6D
:1004A000C0F818B02021C161310401624762866240
:1004B0007905C1628910016322490160E0638463A8
:1004C00000F042FA1E4800F06DFA1D486030C0F896
:1004D000048040218160C560C0F81090C0F814A06D
:1004E000C0F818B02021C161310401624762866200
:1004F0007905C162891001631249483101602064A5
:10050000846300F021FA0E48603000F04BFA0022BC
:1005100006213B2000F00AFC3B2000F0FCFB0022FF
:100520000621452000F002FC452000F0F4FB07B056
:10053000BDE8F08F4438024000080240000C024041
:10054000E08500205864024008B5009313460A462F
:100550000146044801F09BF808B1012008BD0020C5
:1005600008BD0000A086002008B5009313460A4687
:100570000146044801F085F908B1012008BD0020BA
:1005800008BD0000A0860020FEE7000006480168C4
:1005900041F080710160054800214160016841F02F
:1005A0000101016070470000FCED00E0001000E078
:1005B0000848074901604FF4E13141600021816042
:1005C000C160016181610C21416101F060BA0000EC
:1005D00000100140248700200168CAB2103A182395
:1005E000B2FBF3F2064B9B5CC3656FF30901032A70
:1005F00002D9091D816500E08165806D70470000AA
:10060000F04D000810B5014600208A6A8B694FF052
:10061000C074002B0ED0B3F5005F1AD062B3012A6C
:100620002AD0022A28D0032A03D1C96AC90100D5D9
:10063000012010BD1AB1012A06D0022AF9D1C96AD7
:10064000C901F6D5012010BDC96AA142FBD1012024
:1006500010BD52B1012A0AD0022A06D0032AF7D1CE
:10066000C96AA142F4D1012010BD012010BDC96AA0
:10067000C901FBD5012010BD012010BD7047704796
:1006800010B5044C2068C00503D500F087F8A0150C
:10069000206010BD143C0140002200F001B80000B1
:1006A00030B5044601200D4B5D7A012D15D8587ADE
:1006B00000251D54587A03EB800044605C7A03F1F6
:1006C00008002254587A421C5A72303008703A207E
:1006D00048702F208870CD70002030BDF0020020BF
:1006E000F0B587B00E4617464FF0FF3500240021C5
:1006F000ADF806108DF804000221ADF8081003963D
:100700000121ADF812108DF81000B81EADF81400DC
:10071000B01C069007E0022101A801F0B0FA0546DE
:10072000022D02D0641C052CF5DB052C08DB70784B
:1007300031782B4640EA0121BA1E034802F01AFB29
:1007400007B02846F0BD00001C4E0008FEB50E465E
:1007500017464FF0FF3500240021ADF802108DF848
:100760000000ADF80470029607E00121684601F030
:1007700086FA0546012D02D0641C052CF5DB052CFC
:1007800008DB707831782B4640EA0121BA1E024816
:1007900002F0F0FA2846FEBD6C4E0008AFF3008070
:1007A0002DE9F04397B04DA00068169028210BAEBC
:1007B000301DFFF7ABFDDFF82881D8F800000B9063
:1007C000BA2700240C220BA93846FFF789FF0146FF
:1007D000002905DA43A002F0CDFA17B0BDE8F08396
:1007E0009DF82E000028F8D001066CD500F00F050A
:1007F000052D68D8012D18D924210DF1040902A86E
:10080000FFF784FDD8F804000190681E022101EB77
:10081000C002804601A93846FFF762FF4FEAC802CE
:1008200009F102010EA8FFF758FD3A4AADBB45E0B9
:1008300006EBC40108794B7940EA03208B79C9792A
:1008400043EA0121344B1B78082B2DD2DFE803F05B
:1008500004070A0F14191E26D060116124E0D1602C
:10086000106121E0C0F5F070D06011611CE0D16032
:10087000C0F5F070106117E0D060C1F548701061EC
:1008800012E0C1F54871D16010610DE0C0F5F07063
:10089000D060C1F54870106106E006E0C1F548710E
:1008A000D160C0F5F0701061641CAC42C0DB90896F
:1008B0005080108A90800120D08003E0108908B118
:1008C0000020D0801581032216A93846FFF73EFF8D
:1008D000002882DA11A002F04DFA7EE7814E000076
:1008E000D44D00083C3C2D4754502D4552524F5298
:1008F0002D3E3E20493243207472616E73666572EC
:10090000206572726F722E206572726E6F3A256466
:100910000A200A00980000208C0000203C3C2D4753
:1009200054502D494E464F2D3E3E204932432077AC
:100930007269746520656E645F636D6420657272B0
:100940006F72210A0000000070B50446002C24D00C
:1009500094F83500022822D02068016821F00101B6
:10096000016020680025056020684560206885607A
:100970002068C56020680561216821204861204603
:10098000FFF72AFE34343F2194F8282091408160FB
:10099000256265702570002070BD012070BD0220A9
:1009A00070BD00002DE9F041044600F06DF90546E8
:1009B0005CB1002684F83460022084F83500206899
:1009C000016821F0010101600DE00120BDE8F08126
:1009D00000F05AF9401B052805D920206065032046
:1009E00084F83500F2E720680068C007F0D121687C
:1009F0000A6820480240D4E901031843D4E90335CA
:100A00002B43184363691843A3691843E3691843E8
:100A1000236A18431043626A042A03D1D4E90B23E2
:100A20001A43104308602068406920F00700656A97
:100A300029460543012704290DD1A06A0543E06A30
:100A400048B12046FFF7DEFD28B14020606584F8FC
:100A500035700120BAE7206845612046FFF7BCFDEC
:100A600094F85C203F2191408160666584F8357080
:100A70000020ABE73F8010F070B5044600F004F9A9
:100A80000546601C02D004480078044400F0FCF8DD
:100A9000401BA042FAD370BDAC0000202DE9F84FF6
:100AA0000022DFF89091DFF88C8109F108094FF0FE
:100AB000010E4FF00F0C09F1040A0EFA02F60B6852
:100AC0003340B34271D14C68022C01D0122C11D1A9
:100AD000D40800EB84073D6A5407E40E0CFA04FBCB
:100AE00025EA0B05D1F810B00BFA04FB4BEA050B15
:100AF000C7F820B0076854000325A540AF4391F81C
:100B000004B00BF0030B0BFA04FB4BEA070BC0F825
:100B100000B04F68012F05D0022F03D0112F01D054
:100B2000122F11D18768AF43D1F80CB00BFA04FB38
:100B30004BEA070BC0F808B04768B7430E79C6F315
:100B4000001696403E434660C668AE438D68A54099
:100B50003543C5604C68E40065D5374C256845F4DD
:100B600080452560246804F480440094334C22F0CE
:100B700003052544D5F808789407260F0CFA06F4E7
:100B8000A7432F4CA04201D1002424E02D4CA042C9
:100B900001D101241FE02C4CA04201D102241AE013
:100BA0002A4CA04202D1032415E03CE0284CA0428C
:100BB00001D104240FE0274CA04201D105240AE012
:100BC000254CA04201D1062405E0244CA04201D1CD
:100BD000072400E00824B4403C43C5F80848D8F88E
:100BE00000409C434D68ED0300D51C43C8F800400D
:100BF000104D2D1D2C689C434E68B60300D51C4338
:100C00002C60D9F800409C434D68ED0200D51C4390
:100C1000C9F80040DAF800409C434D68AD0200D5A9
:100C20001C43CAF80040521C102AFFF446AFBDE82E
:100C3000F88F0000003C0140443802400030014081
:100C4000000002400004024000080240000C024084
:100C5000001002400014024000180240001C024034
:100C60000069084201D00120704700207047002A27
:100C700001D08161704709048161704701480068B3
:100C8000000C7047002004E00148806870470000B5
:100C9000AC000020024881680278114481607047EE
:100CA000AC00002010B50948016841F400710160F2
:100CB000016841F480610160032000F057F80F20C3
:100CC00000F006F800F026F8002010BD003C0240BD
:100CD00070B504460D4D4FF47A712878B1FBF0F0F1
:100CE0000B490968B1FBF0F000F0BDFE08B101202E
:100CF00070BD102C07D200222146501E00F016F8BD
:100D00006C60002070BD012070BD0000AC000020B0
:100D1000B8000020704700F01F02012191404009F7
:100D2000800000F1E020C0F800117047F0B40D46DB
:100D30000D4B1B68C3F30223C3F10704042C00D935
:100D40000424191D072901D2002300E0DB1E01261F
:100D500006FA04F1491E294099409E40761E16402D
:100D60003143F0BC00F0DBBF0CED00E000F0070108
:100D7000054A10684FF6FF03184040EA0120034976
:100D800008431060704700000CED00E00000FA0519
:100D90002DE9F04704460D46002C13D0DFF82491CE
:100DA000D9F80000EFB200F00F00A8420CD289F889
:100DB0000070D9F8000000F00F00A84204D0012014
:100DC000BDE8F0870120FBE720683F4E810712D580
:100DD000400703D5306840F4E050306020780007C9
:100DE00003D5306840F4604030603068A16820F07E
:100DF000F000084330602078C00731D03249606885
:100E00000839012808D002280BD0032809D0096826
:100E100089070BD40120D3E70968890306D4012090
:100E2000CEE70968890101D40120C9E7316821F0C2
:100E3000030101433160FFF727FF804641F2883A02
:100E400007E0FFF721FFA0EB0800504501D9032080
:100E5000B6E73068616800F00C00B0EB810FF0D1AC
:100E6000D9F8000000F00F00A84209D989F80070F5
:100E7000D9F8000000F00F00A84201D001209FE740
:100E80002078400705D53068E16820F4E050084339
:100E900030602078000706D53068216920F4604072
:100EA00040EAC100306000F03BF83168074AC1F306
:100EB0000311515CC840064908600F20FFF708FF86
:100EC00000207DE7003C024008380240F84D000851
:100ED000B80000200148006870470000B8000020FA
:100EE00000B5FFF7F7FF04490968044AC1F38221FE
:100EF000515CC84000BD000008380240084E0008A0
:100F000000B5FFF7E7FF04490968044AC1F342311D
:100F1000515CC84000BD000008380240084E00087F
:100F200010B51748006810F00C01164816D0164B83
:100F3000042912D0082911D1114C241F216801F075
:100F40003F02216849020AD52068C0F38810A0FB3F
:100F500003010023FFF790F909E0184610BD21684E
:100F60000023C1F38811A1FB0001FFF785F9216877
:100F7000C1F30141491C4900B0FBF1F010BD000074
:100F8000083802400024F40040787D012DE9F84F34
:100F90000446002C10D02078DC4DC00757D0DB4829
:100FA00008300168C1F3810101290DD00068C0F348
:100FB0008100022803D00EE00120BDE8F88FD3485D
:100FC000001D0068400206D5286880033FD5606890
:100FD00070BB0120F1E76068B0F5803F10D0B0F53C
:100FE000A02F12D0286820F480302860286820F4D0
:100FF000802028606068E0B1FFF746FE064614E0F6
:10100000286840F480302860F4E7286840F48020A5
:101010002860286840F480302860EBE7FFF734FE52
:10102000801B642801D90320C7E728688003F5D511
:101030000DE0FFF729FE064606E0FFF725FE801BC0
:10104000642801D90320B8E728688003F5D4207804
:10105000AF4F80074FF0000849D5AC480830016811
:1010600011F00C0F09D00068C0F38100022814D1E0
:10107000A648001D006840020FD42868800704D5E8
:10108000E068012801D0012097E72868216920F055
:10109000F80040EAC100286029E0E068B8B101200A
:1010A0003860FFF7F1FD064606E0FFF7EDFD801B17
:1010B000022801D9032080E728688007F5D5286831
:1010C000216920F0F80040EAC10028600FE0C7F86D
:1010D0000080FFF7D9FD064606E0FFF7D5FD801B2F
:1010E000022801D9032068E728688007F5D4207812
:1010F000000729D5DFF814928648616909F174095F
:1011000089B101210160FFF7BFFD064606E0FFF748
:10111000BBFD801B022801D903204EE7D9F800004F
:101120008007F4D510E0C0F80080FFF7ADFD06465B
:1011300006E0FFF7A9FD801B022801D903203CE748
:10114000D9F800008007F4D42078400772D5002633
:10115000DFF8B8A10AF1400ADAF80000C0000BD4A9
:10116000DAF8000040F08050CAF80000DAF8000019
:1011700000F0805000900126DFF89CB1DBF8000001
:10118000C00515D4DBF8000040F48070CBF80000F7
:10119000FFF77AFD814607E0FFF776FDA0EB090037
:1011A000022801D9032008E7DBF80000C005F3D5C9
:1011B000DFF858B1A0680BF1700B012813D0052897
:1011C00018D0DBF8000020F00100CBF80000DBF8BD
:1011D000000020F00400CBF80000A06830B3FFF757
:1011E00053FD81461DE0DBF8000040F00100CBF824
:1011F0000000F2E7DBF8000040F00400CBF800004C
:10120000DBF8000040F00100CBF80000E5E7FFF755
:101210003BFDA0EB090141F28830814201D9032056
:10122000CBE6DBF800008007F1D512E0FFF72CFDDC
:1012300081460AE015E0FFF727FDA0EB090141F226
:101240008830814201D90320B7E6DBF8000080072F
:10125000F1D4012E05D1DAF8000020F08050CAF850
:101260000000A069C0B3294908310968C1F38101B0
:10127000022949D0022805D0C7F86080FFF704FD95
:1012800004463CE0C7F86080FFF7FEFC064606E037
:10129000FFF7FAFC801B022801D903208DE628689D
:1012A0008001F5D4D4E907010843616AA26A4FF0CE
:1012B000FF33890103EB520241EA0241084394F8EB
:1012C0002C1040EA01611148001D016001203866C0
:1012D000FFF7DAFC044607E014E0FFF7D5FC001B3B
:1012E000022801D9032068E628688001F5D509E0C5
:1012F000FFF7CAFC001B022801D903205DE628681D
:101300008001F5D4002058E6012056E6003802405E
:1013100000004742800E47420070004070B58AB01E
:1013200004460D46032084F83400606C03281ED068
:10133000B5F5805F08D0B5F5006F0AD085B1A06B18
:1013400040F00060A06316E0A06B40F08050A06306
:1013500011E0204601F0E1F9A16B0143A1630AE02D
:10136000204601F0B1F9A16B0143A16303E0A06B3A
:1013700040F08050A063A06B012640B1216840F28C
:10138000FF50886384F8346001200AB070BD606843
:101390000490A0680590E068069007956069089041
:1013A000A069099007A807C88DE8070004A920686C
:1013B0000EC900F0E4FC84F834600020E5E7F0B5E5
:1013C000426E120E93090B70C2F383034B7002F04E
:1013D00003028A70426E120CCA70B0F86420120ABE
:1013E0000A7190F864204A71826E120E4FF6FF73F4
:1013F00003EA0212CA80826EC2F30742CB8843EA34
:101400001213CB8002F00F020A72B0F86820C2F308
:101410000722D3094B72C2F380138B72C2F34013BD
:10142000CB72C2F300130B7300264E73436C01257D
:101430004FF40077002B0DD0012B44D0026840F20E
:10144000FF519163816B41F08051816380F834508A
:101450000120F0BD9207120D0A6190F868200B6917
:1014600043EA82020A61C26E120E0B6943EA9213CA
:101470000B61C2F3C2030B7502F007024A75C26E1C
:10148000C2F3074253098B75C2F38203CB759207EF
:10149000520F0A76B0F86C20C2F307220B7E43EAA3
:1014A000D2130B760C69641C44650B7E9B1C9C401C
:1014B000446591F808C005FA0CF383655B0A5C4348
:1014C000C46507661CE090F868209206920A0A61DB
:1014D000C26E120E0B6943EA02220A61C26EC2F3A7
:1014E00007420B6913430B61B0F86C20C2F307226B
:1014F0000B695B1C4FEA83234365C36587650766F9
:10150000C2F3801301F8193F4FEA82624FEA526238
:101510004A7010F86C2F4B7843EAD2134B7002F0EC
:101520007F028A7042684FEA12624FEAD213CB7090
:10153000C2F341130B71C2F382034B714FEA827203
:101540004FEA12728A714268C2F307428B7943EA0A
:1015500092138B71C2F34013CB710E7202F0010231
:101560004A728288C2F307224FEAD2138B72C2F307
:101570008013CB72C2F340130B73C2F300134B738F
:10158000C2F381038B7302F00302CA7300794FEA3E
:10159000500008744D744FF00000F0BD426C0A60BA
:1015A000826C4A60C26C8A60026DCA60426D0A61D8
:1015B000826D4A61C26D8A61006EC8610020704709
:1015C00038B50446002000906946204601F065F8D1
:1015D00010B1A16B0143A1630098C0F3432038BD53
:1015E00070B50446002C04D094F83400002510B1E6
:1015F00005E0012070BD2577204600F047F8032064
:1016000084F83400204600F007F8A5632563012024
:1016100084F83400002070BD70B58AB004460025FF
:1016200004950595069507950895762009900095EF
:10163000CDE901502B462A462946206800F09FFB41
:10164000114E3560206800F0AFFB012535600220A7
:10165000FFF712FA204600F0BEFF38B184F834508C
:10166000A16B0143A16301200AB070BD204600F0C8
:1016700041FF30B184F83450A16B0143A1630120D4
:10168000F2E70020F0E70000A080254270472DE936
:10169000F04F87B004460D4693469A46109EFFF7DA
:1016A000F3FA80465DB194F8340001280DD0A06BA8
:1016B00040F00050A063012007B0BDE8F08FA06BA0
:1016C00040F00060A0630120F6E70027A763E16D0A
:1016D0000BEB0A00884205D9A06B40F00070A063B4
:1016E0000120E9E7032084F834002068C762606CB9
:1016F000012801D04FEA4B2B4FF40071206800F015
:10170000A3FB40F2FF59012148B12268C2F838908A
:10171000A26B0243A26384F834100120CCE74FF09F
:10172000FF3001904FEA4A2002909020039002205F
:10173000049005970F46069101A9206800F0FFFA72
:10174000BAF1010F06D9022020635946206800F043
:10175000D9FB04E027635946206800F0ECFB58B33E
:101760002168C1F83890A16B0143A16384F83470FB
:101770000120A1E7406B00040CD54FF0000B20685E
:1017800000F016FB45F82B000BF1010BBBF1080F25
:10179000F5D320352EB1FFF777FAA0EB0800B04261
:1017A0000AD32068C0F83890A06B40F00040A063D6
:1017B00084F8347003207FE72068416B40F22A32BE
:1017C0001142D7D02168496BC90512D5BAF1010F72
:1017D0000FD9616C03290CD000F054FC48B121688A
:1017E000C1F83890A16B0143A16384F834700120E3
:1017F00062E72068416B090709D5C0F83890A06BF3
:1018000040F00800A06384F83470012054E7416B75
:10181000890709D5C0F83890A06B40F00200A0639A
:1018200084F83470012047E7416B89061ED5C0F863
:101830003890A06B40F02000A06384F83470012041
:101840003AE700F0B5FA01C52EB1FFF71DFAA0EB9B
:101850000800B0420AD32068C0F83890A06B40F06E
:101860000040A06384F83470012025E72068416BB4
:101870008902E6D42068C0F8389084F834700020DB
:101880001AE72DE9F04F87B004460E4615469A46F2
:10189000DDF840B0FFF7F8F900905EB194F834003D
:1018A00001280DD0A06B40F00050A063012007B0CC
:1018B000BDE8F08FA06B40F00060A0630120F6E768
:1018C0000020A063E26D05EB0A01914205D9A06BEF
:1018D00040F00070A0630120E9E7032184F8341090
:1018E00021680020C862606C012800D06D024FF4AE
:1018F0000071206800F0A8FA40F2FF584FF001098B
:1019000048B12168C1F83880A16B0143A16384F814
:1019100034900120CBE7BAF1010F07D920202063D2
:101920002946206800F0C8FB074606E01020206327
:101930002946206800F0D9FB07464FB12068C0F85F
:101940003880A06B3843A06384F834900120AEE760
:101950004FF0FF3001904FEA4A2002909020039010
:10196000002004900590CDF8189001A9206800F09F
:10197000E6F91FE0406B400409D5002506EB850120
:10198000206800F028FA6D1C082DF7D32036BBF133
:10199000000F05D0FFF778F90099401A584509D390
:1019A0002068C0F83880A06B3843A06384F8349076
:1019B00003207CE72068416B40F21A321142D9D0F3
:1019C0002168496BC90512D5BAF1010F0FD9616CB5
:1019D00003290CD000F056FB48B12168C1F83880CB
:1019E000A16B0143A16384F8349001205FE7206874
:1019F000416B090709D5C0F83880A06B40F008009A
:101A0000A06384F83490012051E7416B890709D520
:101A1000C0F83880A06B40F00200A06384F83490D6
:101A2000012044E7416BC90609D5C0F83880A06B96
:101A300040F01000A06384F83490012037E7C0F82C
:101A4000388084F83490002031E74FF0E0210428FA
:101A500004D0086920F0040008617047086940F06C
:101A600004000861704710B5401EB0F1807F01D3BB
:101A7000012010BD4FF0E02460610F21601700F0DD
:101A80004EF90020A06107202061002010BD70B534
:101A90000446002C04D094F83900002510B106E06B
:101AA000012070BD84F83850204600F023F824202F
:101AB00084F839002068C16821F40051C1602046D3
:101AC00000F076FF2068016921F4904101612068EF
:101AD000416921F02A0141612068C16841F4005147
:101AE000C160E563202084F8390084F83A000020C2
:101AF00070BD000030B587B01948016841F0100191
:101B00000160006800F01000019015481438016869
:101B100041F001010160016801F0010101910168DA
:101B200041F001010160006800F0010001904FF4F4
:101B30000070029002200390012004900320059081
:101B400007240694074D02A92846FEF7A7FF29158A
:101B50000291069402A92846FEF7A0FF07B030BD07
:101B600044380240000002402DE9F84304460D4687
:101B700091461E4694F83900202802D00220BDE884
:101B8000F883B5B1B9F1000F13D094F838000128EB
:101B900011D0012084F838000027E763212084F861
:101BA0003900FFF771F88046A4F82490A4F8269035
:101BB0002DE00120E3E70220E1E7E08C401EE08415
:101BC000A068B0F5805F09D04346002280212046FE
:101BD000009601F077F8B0B10320D0E74346002229
:101BE00080212046009601F06DF808B10320C6E779
:101BF00028882168C0F308004860206908B16D1C7E
:101C000005E0AD1C03E0216815F8010B4860E08C8D
:101C10000028D2D14346002240212046009601F000
:101C200051F808B10320AAE72020383460702770EB
:101C30000020A4E770B506460D46144602F096F95A
:101C400046F0010002F068F902F0B4F988B102F040
:101C5000A3F9012070BD012C03D102F025F902F097
:101C60009BF902F035F905F8010B641EA4B202F0ED
:101C7000FFF8002CEFD102F08FF9002070BD70B595
:101C800005460E460024002014E004EB440005EB5A
:101C900080039978C90706D09A8815F820009968BA
:101CA000FFF7C8FF05E01A7915F82000996800F0E1
:101CB00008F8641C08B9B442E7D1002800D12046D6
:101CC00070BD2DE9F04180460E46154602F064F9DC
:101CD00000244FF47A7702F049F9404602F01CF9EB
:101CE00002F068F918B1641CA4B2BC42F3D3BC4240
:101CF00006D00BE0307802F00FF902F05BF920B16A
:101D000002F04AF90120BDE8F081761C6D1EEDB2AB
:101D1000F0D202F041F90020F5E7FEE7704709072D
:101D2000090E002806DA00F00F0000F1E02080F82C
:101D3000141D704700F1E02080F8001470470A6815
:101D400042624A688262D1E902231A43D1E904312E
:101D50000B431A43C16A21F0F7011143C16200200D
:101D600070470069C0B27047006800F00300704718
:101D700008B50844143000900098006808BD0FB4FE
:101D8000DDE901121143DDE903231A431143059AEA
:101D90001143069A1143426847F6FF639A430A4388
:101DA0004260002004B070470321016000207047AA
:101DB000D0F8800070470A688260D1E901231A4395
:101DC000D1E903310B431A43C1686FF30B0111438F
:101DD000C160002070470968C0F88010002070477B
:101DE00010B586B00446019137210291402103913C
:101DF000002104914FF48061059101A92046FFF76D
:101E0000DAFF41F288323721204600F0A1F906B00E
:101E100010BD000010B586B004460A4A1143019176
:101E2000292102914021039100210491510D059136
:101E300001A92046FFF7BFFF204600F043FA06B095
:101E400010BD00000000108010B586B0044601915E
:101E50001021029140210391002104914FF48061EF
:101E6000059101A92046FFF7A6FF41F28832102113
:101E7000204600F06DF906B010BD10B586B00446DE
:101E800001910621029140210391002104914FF418
:101E90008061059101A92046FFF78DFF41F288324C
:101EA0000621204600F054F906B010BD10B586B0EA
:101EB0000446002101910291039104914FF4806145
:101EC000059101A92046FFF776FF204600F026F98C
:101ED00006B010BD10B586B004464FF4D57101911F
:101EE0000821029140210391002104914FF4806167
:101EF000059101A92046FFF75EFF204600F04AFA4F
:101F000006B010BD10B586B00446019112210291B1
:101F100040210391002104914FF48061059101A9B2
:101F20002046FFF748FF41F288321221204600F098
:101F30000FF906B010BD10B586B00446019111210D
:101F4000029140210391002104914FF48061059199
:101F500001A92046FFF72FFF41F2883211212046C8
:101F600000F0F6F806B010BD10B586B00446019238
:101F70000721029140210391002104914FF48060D8
:101F8000059001A92046FFF716FF41F2883207218C
:101F9000204600F0DDF806B010BD10B586B004464E
:101FA0000021019102220292C022039204914FF477
:101FB0008061059101A92046FFF7FDFE204600F053
:101FC00059F906B010BD10B586B00446019109213B
:101FD0000291C0210391002104914FF48061059189
:101FE00001A92046FFF7E7FE204600F043F906B0BE
:101FF00010BD10B586B00446002101913322029233
:102000004022039204911101059101A92046FFF796
:10201000D2FE41F288323321204600F099F806B012
:1020200010BD10B586B0044601910D2102914021EA
:102030000391002104914FF48061059101A920468C
:10204000FFF7B9FE41F288320D21204600F080F8FA
:1020500006B010BD70B586B006460D46002301934C
:10206000032402944024039404932301059301A9BB
:102070003046FFF7A0FE2A460321304600F044F91F
:1020800006B070BD10B586B00446002101910C2247
:1020900002924022039204911101059101A9204668
:1020A000FFF789FE034A0C21204600F051F806B0E4
:1020B00010BD000000E1F50510B586B004460191A1
:1020C0001921029140210391002104914FF4806174
:1020D000059101A92046FFF76EFE41F288321921D1
:1020E000204600F035F806B010BD10B586B00446A5
:1020F00001911821029140210391002104914FF494
:102100008061059101A92046FFF755FE41F2883212
:102110001821204600F01CF806B010BD0B494FF402
:10212000FA520968B1FBF2F141F288325143491E7B
:102130004A1C07D0426B1206F9D540F2FF51816369
:10214000002070474FF0004070470000B8000020AA
:1021500010B5034645484FF4FA540068B0FBF4F05C
:102160005043401E421C09D05A6B12F0450FF8D064
:10217000586B400705D50420986310BD4FF0004010
:1021800010BD586BC00702D00120986310BD1846DF
:10219000FFF7E7FD884201D0012010BD40F2FF505B
:1021A000986300211846FFF7E3FD3149084201D149
:1021B000002010BD002802DA4FF0007010BD410071
:1021C00001D5402010BD810001D5802010BDC10087
:1021D00002D54FF4807010BD010102D54FF400709C
:1021E00010BD410102D54FF4806010BDC10102D580
:1021F0004FF4006010BD010202D54FF4805010BDB5
:10220000410202D54FF4005010BD810202D54FF4B7
:10221000804010BDC10202D54FF4004010BD410303
:1022200002D54FF4003010BD810302D54FF4802059
:1022300010BDC10302D54FF4002010BD010402D52A
:102240004FF4801010BD410402D54FF4001010BDB2
:10225000810402D54FF4800010BD000702D54FF471
:10226000000010BD4FF4803010BD0000B800002009
:1022700008E0FFFD12494FF4FA520968B1FBF2F190
:1022800041F288325143491E4A1C0AD0426B12F077
:10229000450FF8D0416B490706D50421816304201E
:1022A00070474FF000407047416BC90703D00121D0
:1022B00081630120704740F2FF5181630020704725
:1022C000B80000200F494FF4FA520968B1FBF2F14F
:1022D00041F288325143491E4A1C0AD0426B12F027
:1022E000450FF8D0416B490706D5042181630420CE
:1022F00070474FF00040704740F2FF51816300206B
:1023000070470000B800002010B5034620484FF485
:10231000FA540068B0FBF4F041F288346043401E88
:10232000441C09D05C6B14F0450FF8D0586B400783
:1023300005D50420986310BD4FF0004010BD586BC8
:10234000C00702D00120986310BD1846FFF709FDB1
:10235000884201D0012010BD40F2FF509863002157
:102360001846FFF705FD10F4604F04D0410406D570
:102370004FF4005010BD000C1080002010BD000470
:1023800002D54FF4805010BD4FF4803010BD0000D6
:10239000B800002010494FF4FA520968B1FBF2F17D
:1023A00041F288325143491E4A1C0BD0426B12F055
:1023B000450FF8D0416B4A074FF0400105D58163C6
:1023C000042070474FF000407047426B520600D522
:1023D0008163002070470000B80000202DE9F04F15
:1023E00089B004460E46FEF74FFC07460025AA4674
:1023F000CDF804A0CDF808A008212068FFF724FD3F
:1024000000283ED1B4F8500001042068FFF7E8FC32
:10241000002836D1401E03904FF00808CDF81080F8
:10242000302005904FF00209CDF81890CDF81CA08F
:102430000120089003A92068FFF781FC2068FFF7BE
:10244000D8FD00281DD10DF1040A40F22A4B0CE002
:10245000416B890204D5FFF7ABFC4AF825006D1CDF
:10246000FEF712FCC01B401C0ED02068416B11EA25
:102470000B0FEDD02168496B090708D5C0F83880EB
:10248000082009B0BDE8F08F4FF00040F9E7416B3C
:10249000890703D5C0F838900220F2E7416B89061E
:1024A00003D5202181632020EBE740F2FF518163B7
:1024B00001980199000601F47F4140EA0120019949
:1024C00001F47F0140EA1120019940EA1160706037
:1024D00002980299000601F47F4140EA0120029926
:1024E00001F47F0140EA1120029940EA1160306056
:1024F0000020C6E710B590B0044601200490206883
:10250000FFF732FC002863D0606C032819D02068E4
:10251000FFF743FD002859D100212068FFF728FC70
:10252000606704212068FFF723FCA067082120686A
:10253000FFF71EFCE0670C212068FFF719FCC4F8C8
:102540008000606C032805D004A92068FFF782FD95
:1025500000283BD1606C03281CD0BDF8100020651A
:1025600001042068FFF72FFD00282FD100212068EB
:10257000FFF7FEFB606604212068FFF7F9FBA06609
:1025800008212068FFF7F4FBE0660C212068FFF7C4
:10259000EFFB206704212068FFF7EAFB000DE064F1
:1025A00005A92046FEF70BFFB4F8500000230204F3
:1025B0002068FFF7D9FC002808D1D4E9051220696A
:1025C0008DE807000FCCFFF7DAFB002010B010BD3C
:1025D0004FF08060FAE72DE9F84F04460027009796
:1025E000BA4600252068FFF761FC002811D1206859
:1025F000FFF770FC4FF080784FF6FF7610B3A764BA
:102600004FF080591AE00098411C0091B04202D16D
:102610004046BDE8F88F00212068FFF7E1FB08B1D4
:102620004846F6E700212068FFF7F4FB08B148466A
:10263000EFE700212068FFF79BFBC50F002DE2D0DC
:10264000676428E04FF00109C4F848901AE0009848
:10265000411C0091B04201D14046DAE700212068D8
:10266000FFF7BEFB0028D4D14FF080412068FFF770
:10267000D1FB0028CDD100212068FFF779FB8246ED
:102680004FEADA75002DE2D05FEA4A0002D5C4F8BD
:10269000449000E067640020BBE770B504460D4637
:1026A000002D0ED0B4F8500001042068FFF7B9FCEB
:1026B000002805D100212068FFF75AFB2860002080
:1026C00070BD4FF0006070BD1CB504460020009046
:1026D000019000212068FFF74BFB800102D54FF4E9
:1026E00000601CBD69462046FFF778FE0028F8D13F
:1026F0000198C0030ED5B4F8500001042068FFF71C
:102700006FFB0028EDD100212068FFF7B6FB002801
:10271000E7D11CBD4FF080601CBD1CB504460020F5
:102720000090019000212068FFF722FB800102D574
:102730004FF400601CBD69462046FFF74FFE00289D
:10274000F8D1019840030ED5B4F850000104206878
:10275000FFF746FB0028EDD102212068FFF78DFB33
:102760000028E7D11CBD4FF080601CBD10B5064CA1
:1027700001202070FDF718FE18B9207820F0010024
:102780002070207810BD00002800002010B588B00F
:10279000144613480078C00702D0032008B010BDCB
:1027A00039B1012907D002290CD0032911D0042006
:1027B000F4E70020F2E76846FDF7E4FD06982060A4
:1027C0000020EBE76846FDF7DDFD0798208000203C
:1027D000E4E76846FDF7D6FD079820600020DDE7B6
:1027E0002800002070B5084611461A460125094CFC
:1027F000094BFDF7A9FE18B107E0641E601C06D066
:10280000FDF7C6FD0028F8D10025284670BD01203F
:1028100070BD0000A086010000E1F50510B5064C72
:1028200001202070FDF7B4FD18B9207820F00100D8
:102830002070207810BD00002800002070B50846E8
:1028400011461A460125094C094BFDF78DFE18B1BA
:1028500007E0641E601C06D0FDF79AFD0028F8D141
:102860000025284670BD012070BD0000A086010033
:1028700000E1F50510B55020EFF3118480F31188C5
:10288000BFF34F8FBFF36F8FFEF704FA02F07CF9AE
:10289000012801D002F032F984F3118810BD000044
:1028A00030B593B000252A48016841F0805101609D
:1028B000006800F0805001902648016841F4804192
:1028C0000160006800F48040019001200290000443
:1028D0000390022408948001099019200A904FF473
:1028E000A8700B900C9407200D9002A8FEF74EFBE9
:1028F00000B1FEE70F200E900F9410954FF4A050FA
:1029000011904FF48050129005210EA8FEF740FA66
:1029100000B1FEE7FEF7DEFA4FF47A71B0FBF1F09A
:10292000FFF7A1F80420FFF790F800221146501E8F
:10293000FEF7FCF9FEF7A2F941F20101884204D149
:102940000548016841F48071016013B030BD00009A
:102950004038024000700040003C024010480168CE
:1029600041F4700101600F48016841F0010101600C
:102970000C4A00210832116002680B4B1A400260B9
:10298000031D0A4A1A60026822F480220260054888
:102990000C30016002495806803908607047000019
:1029A00088ED00E000380240FFFFF6FE1030002402
:1029B0002DE9F04104462068016921F44052E168A4
:1029C000114301612068C26849F20C618A4323699E
:1029D000A168E569194363692B4319431143C16039
:1029E0002068416921F44071A2690A434261E069AB
:1029F000B24AB34964253226B0F5004F59D0206859
:102A0000884201D090427DD1FEF77AFA00EBC001F6
:102A100001EB001061688900B0FBF1F7FEF770FA76
:102A200000EBC00101EB001061688900B0FBF1F020
:102A3000B0FBF5F06FF01801484307EB800006EBA0
:102A40000010B0FBF5F000F0F007FEF759FA00EBCC
:102A5000C00101EB001061688900B0FBF1F0B0FB30
:102A6000F5F007EB0017FEF74BFA00EBC00101EBA6
:102A7000001061688900B0FBF1F8FEF741FA00EB45
:102A8000C00101EB001061688900B0FBF1F0B0FB00
:102A9000F5F06FF01801484308EB800006EB0010DA
:102AA000B0FBF5F0216800F00F0038448860BDE805
:102AB000F0812068884201D0904256D1FEF720FA7A
:102AC00000EBC00101EB001061684900B0FBF1F0C0
:102AD000B0FBF5F00701FEF713FA00EBC00101EBC4
:102AE000001061684900B0FBF1F8FEF709FA00EB4D
:102AF000C00101EB001061684900B0FBF1F0B0FBD0
:102B0000F5F000E086E06FF01801484308EB800024
:102B100006EBC000B0FBF5F000F0F80007EB400753
:102B2000FEF7EEF900EBC00101EB0010616849000F
:102B3000B0FBF1F8FEF7E4F900EBC00101EB001087
:102B400061684900B0FBF1F0B0FBF5F06FF01801DF
:102B5000484308EB800006EBC000B0FBF5F02168AD
:102B600000F0070038448860A1E7FEF7B9F900EBF0
:102B7000C00101EB001061684900B0FBF1F0B0FB4F
:102B8000F5F00701FEF7ACF900EBC00101EB001016
:102B900061684900B0FBF1F8FEF7A2F900EBC00153
:102BA00001EB001061684900B0FBF1F0B0FBF5F0FB
:102BB0006FF01801484308EB800006EBC000B0FB43
:102BC000F5F000F0F80007EB4007FEF789F900EB9D
:102BD000C00101EB001061684900B0FBF1F8FEF79D
:102BE0007FF900EBC00101EB001061684900B0FB08
:102BF000F1F0B0FBF5F06FF01801484308EB8000EE
:102C000006EBC000B0FBF5F0216800F00700384487
:102C100088604CE7FEF764F900EBC00101EB00109F
:102C200061688900B0FBF1F7FEF75AF900EBC001CB
:102C300001EB001061688900B0FBF1F0B0FBF5F02A
:102C40006FF01801484307EB800006EB0010B0FB63
:102C5000F5F000F0F007FEF743F900EBC00101EBDF
:102C6000001061688900B0FBF1F0B0FBF5F007EBF4
:102C70000017FEF735F900EBC00101EB00106168A9
:102C80008900B0FBF1F8FEF72BF900EBC00101EB76
:102C9000001061688900B0FBF1F0B0FBF5F06FF057
:102CA0001801484308EB800006EB0010B0FBF5F07C
:102CB000216800F00F0038448860F8E600140140F5
:102CC000001001402DE9F04104460E461746984693
:102CD000069D1DE0681C1BD02DB1FDF7D5FFA0EBB4
:102CE0000800A84214D92068C16821F4D071C160DD
:102CF0002068416921F001014161202084F83900F8
:102D000084F83A00002084F838000320BDE8F08100
:102D10002068006836EA000004D00020B842D9D00C
:102D20000020F3E70120F9E7FEE7000030B587B0A7
:102D30000E48016841F040010160006800F0400069
:102D400001904FF40074029401200390049002203B
:102D50000590074D02A92846FDF7A0FE0022214656
:102D60002846FDF784FF07B030BD00003038024030
:102D7000001802400FB4054B10B503A9044A02988D
:102D800000F018F810BC5DF814FB0000153E0008B8
:102D9000BC00002002E008C8121F08C1002AFAD1B6
:102DA00070477047002001E001C1121F002AFBD1CB
:102DB000704700002DE9FF4F8DB00F4605460026F5
:102DC00006E025280BD0DDE90F1290476D1C761C1C
:102DD00028780028F5D111B03046BDE8F08F0024E6
:102DE000A246A1460122EC4900E0044315F8013F48
:102DF000203B02FA03F00842F7D128782A2810D0A5
:102E00006FF02F022878A0F13001092914D80AEBBD
:102E10008A0102EB410144F0020400EB010A6D1C3F
:102E2000F0E701CF5FEA000A03D544F40054CAF189
:102E3000000A44F002046D1C28782E2817D115F8DA
:102E4000010F44F004042A280ED06FF02F022878D6
:102E5000A0F1300109290AD809EB890102EB4101EF
:102E600000EB01096D1CF2E757F8049B6D1C2878F4
:102E70006C280FD006DC4C2817D068280DD06A28A3
:102E800014D104E0742810D07A280FD10DE044F456
:102E900000140AE044F4801401E044F4401469781A
:102EA000814202D104F580146D1C6D1C2A786E2AB3
:102EB0001FD00CDC632A31D004DC002A8BD0582AC6
:102EC00011D1A3E0642A68D0692A0CD165E0732A85
:102ED0002ED004DC6F2A73D0702A04D19BE0752AAF
:102EE0006FD0782A6ED01046DDE90F129047761C1D
:102EF00050E1C4F30250022806D0032809D0042868
:102F000001CF09D0066045E101CFF117C0E90061AA
:102F100040E101CF06803DE106703BE117F8040B6C
:102F20008DF8000000208DF80100EB46012003E041
:102F300057F804BB4FF0FF3061074FF0000102D497
:102F40000DE008F10101884649450FDA8045F8DBBC
:102F50001BF808100029F4D108E008F101018846A7
:102F60008142FADB1BF808100029F6D1DDE90F23B6
:102F7000AAEB08008146214600F036F9304400EB08
:102F8000080604E0DDE90F121BF8010B9047B8F1C9
:102F90000108F7D221464846F7E00A21C4F302535C
:102FA0004FF0000B0891022B04D001CFC117032B67
:102FB00009D00AE0FF1D27F00707F7E8020108E043
:102FC00032E01FE020E000B2C117042B01D140B273
:102FD000C117031E71F1000307DA4FF0000CD0EBAC
:102FE0000C006CEB01012D2302E0230504D52B23FB
:102FF0008DF82430012303E0E30701D02023F7E715
:10300000984658E00A2110E010210EE010204FF001
:10301000000B08900CE010214FF0000B44F004046A
:103020004FF00809089103E008214FF0000B0891C8
:10303000C4F30253022B04D001CF0021032B06D08E
:1030400006E0FF1D27F00707F7E8020103E080B262
:10305000042B00D1C0B24FF0000823072BD5702AF3
:1030600007D0DDF820C08CF0100C5CEA0B0C05D00A
:103070000EE040238DF82430012308E050EA0103DC
:1030800006D030238DF824308DF825200223984671
:10309000DDF820C08CF0080C5CEA0B0C0BD150EA78
:1030A000010301D1630706D530238DF824304FF09A
:1030B0000108A9F10109582A04D038A20B9208AAE4
:1030C0000A920BE03AA2F9E75B46089AFDF7D4F8BA
:1030D0000B9B9B5C0A9A521E0A92137050EA0102E3
:1030E000F2D10A98ADEB000000F1200B600702D589
:1030F00024F4803401E04FF00109D94502DDA9EB49
:103100000B0000E0002000EB0B0141440890AAEB0B
:10311000010AE00306D4DDE90F232146504600F002
:1031200063F806444FF0000908E009A911F8090006
:10313000DDE90F12904709F10109761CC145F4DB66
:10314000E0030CD5DDE90F232146504600F04CF892
:10315000064404E0DDE90F1230209047761C089900
:10316000481E08900029F5DC08E00A980A990078C2
:10317000491C0A91DDE90F129047761CBBF1000152
:10318000ABF1010BF1DC21465046DDE90F2300F0E5
:1031900019F806446D1C1BE6092801003031323352
:1031A0003435363738396162636465660000000083
:1031B000303132333435363738394142434445466D
:1031C000000000002DE9F041044600251E46174688
:1031D000880404D405E039462020B0476D1C641EE5
:1031E000F9D52846BDE8F0812DE9F04104460025D7
:1031F0001E469046C80301D5302700E020278804EA
:1032000004D505E041463846B0476D1C641EF9D52B
:103210002846BDE8F081000010B50446002084F87F
:103220000402401EC4F82C02204600F004FF08B13E
:10323000032010BD94F8FE0194F8FF1140EA01202C
:10324000A0F52A41553901D0022010BD14F8360FDF
:10325000E178627840EA0161A078363C000440EAF7
:10326000022001430B48B0EB012F01D1002010BD1B
:1032700014F8521FE278637841EA0261A2781204DE
:1032800042EA03221143B0EB012F01D1002010BD0F
:10329000012010BD004641542DE9FC4180460F46F7
:1032A0000126012F00D9012701F00EFA002524E0A4
:1032B00005EB450008EBC004D4E90401CDE90001A9
:1032C0002289E368D4E9000101F02EFC0646012EB4
:1032D00009D052220CA114A0FFF74CFD17A0616881
:1032E000FFF748FD0BE0572207A11AA0FFF742FDA8
:1032F0001DA06168FFF73EFD6D1CBD42D8D301F0F3
:103300001DFA3046BDE8FC812E2E5C557365725C5B
:103310005461736B735C7372635C7461736B735F22
:10332000696E69742E6300000D0A5B4552525D5B45
:1033300025733A25645D203E3E200000637265617E
:103340007465207461736B206661696C65643A20F2
:10335000257300000D0A5B494E464F5D5B25733AAD
:1033600025645D203E3E20006372656174652074B3
:1033700061736B20737563636573733A2025730003
:1033800010B50021084A135C002B0AD10121115409
:10339000111802EB8000097A4068026808469047DD
:1033A0000146084610BD0000F002002030B4054B75
:1033B0001C1803EB8000247A40680369204630BC67
:1033C00018470000F002002030B4054C251804EB2B
:1033D00080002D7A406884682846A44630BC604747
:1033E000F002002004490A1801EB8000127A4068BC
:1033F0004168104608470000F002002030B4054C38
:10340000251804EB80002D7A4068C4682846A4463D
:1034100030BC6047F00200202DE9F74F88B0174616
:103420000998012803D913200BB0BDE8F08F08A834
:1034300000F0FCFC002801DA0B20F5E7F94951F80F
:1034400020405CB1002184F80012C0B205900598BC
:10345000FFF796FFC10703D00320E5E70C20E3E761
:10346000400701D50A20DFE701AA01210598FFF7EF
:103470009DFF10B90198802801D20120D4E7099955
:1034800011B14FF0000901E04FF03F09A0EB090135
:103490000191781E074200D000277FB94FF4FA60EF
:1034A000B1FBF0F20020E04B00E0401C33F810507C
:1034B0009542FAD8DC4A163232F81070B7F5007F20
:1034C00000D37F0A07B90127802F00D98027B1FBDD
:1034D000F7F0012640F6F672904200D302264FF62E
:1034E000F672904200D30326032E18D0012E20D06E
:1034F0004000001D00F2FF104FEA502801254FF058
:10350000200A09EB050B0BEB0800504402900298CF
:103510003844A0EB0900884211D90E2084E740F21C
:10352000072202EB80004FEA502820254FF0000AC6
:10353000E7E700EB4000401C4008C01CDAE703AAA4
:1035400003210598FFF732FF20B9039810B1B0F5B9
:10355000004F01D901200390DDE902100144491E0A
:10356000401E81430298081A0390032E0CD0804419
:103570000198411BA1EB0801A1EB0A01B1FBF7F196
:103580000491022E03D007E005448344F0E7049938
:1035900040F6F672914206D3032E06D104994FF6F7
:1035A000F672914201D20E203EE7032E02D0012E88
:1035B00003D008E00C2006900CE0B0F5803F02D26A
:1035C0000120069006E0B0F5803F01D2042000E023
:1035D00006200690099810B1F02007903AE04FF4C9
:1035E00000720021204600F01EFD04F5DF7001216D
:1035F000417081700022C27006990171FE214171F3
:10360000019943F6C1634944B1FBF3F103913F23B0
:1036100043EA910C80F806C0C17103724272827253
:10362000C272019901730A0A42730A0C8273090E6D
:10363000C173552084F8FE01AA2084F8FF010123FC
:10364000002221460598FFF7D9FE08B10120EBE6DC
:10365000F82007904FF400720021204600F0E3FCB0
:103660000B2272A1204600F0D5FC0021E17202205D
:1036700020736773A573280AE07301202074032E5A
:103680000BD040026074000AA0740198B0F5803F2E
:1036900005D2E074000A20750AE00020F2E704F881
:1036A000200F020A6270020CA270000EE070203C33
:1036B000079860753F20207600206076FF21A17674
:1036C000E07684F81C904FEA192060774FEA1940A1
:1036D000A0774FEA1960E077574803908021A12531
:1036E00046232922032E22D0002016346074A074B1
:1036F000E574237584F800804FEA18206070A17388
:103700002274163C13224DA104F12B0000F082FC20
:10371000552084F8FE01AA2084F8FF0101234A46BF
:1037200021460598FFF76AFE48B301207CE6002099
:103730002534A077E07784F8205084F8213004F80D
:10374000018C4FEA182323704FEA184363704FEA45
:103750001863A3700223E37120726072A0720123C8
:10376000E372207306236373A073E1766277253CCE
:10377000132237A104F1470000F04CFCC8E7032EE8
:1037800006D1012309F1060221460598FFF736FE0E
:103790005D464FF0000B4FF400720021204600F010
:1037A00042FC07980390032E12D0012E0ED06FF02A
:1037B000FF010143039121700398000A6070039890
:1037C000000CA0700398000EE07018E02549F0E7A7
:1037D00060F0FF00039020700398000A6070039867
:1037E000000CA0700398000EE070FF202071607143
:1037F000A071E07120726072A0720F20E0722A4600
:103800006D1C012321460598FFF7F8FD08B1012042
:103810000AE64FF400720021204600F004FC01206B
:1038200003902EE024000020924D0008EBFE904D06
:1038300053444F53352E30000000A1464E4F204ECA
:10384000414D4520202020464154202020202000AA
:103850004E4F204E414D45202020204641543332CA
:103860002020200000FFFF002A466D1C0123214676
:103870000598FFF7C3FD08B10120D5E50398401C6A
:10388000039003984045EFD30BF1010BBBF1000F00
:1038900081D0032E00D057462A466D1C01232146B5
:1038A0000598FFF7ABFD08B10120BDE57F1EF3D100
:1038B000032E3AD15220207060706120A070412107
:1038C000E170722284F8E42184F8E52184F8E6119D
:1038D00084F8E7010498401E84F8E801010A84F89E
:1038E000E911010C84F8EA11000E84F8EB010220C2
:1038F00084F8EC01002084F8ED0184F8EE0184F8EE
:10390000EF01552084F8FE01AA2084F8FF0101236D
:1039100009F1010221460598FFF770FD012309F125
:10392000070221460598FFF769FD00221146059818
:10393000FFF73CFD08B1012076E5002074E50000AA
:1039400017B581B0144602980090684600F06EFAF0
:10395000002802DA0B2004B010BD0C4B53F82010E5
:10396000002209B181F800220199002901D081F8D3
:10397000002243F8201001D0012C01D00020EAE7FA
:10398000002202A901A800F0BBF8E4E7240000200F
:1039900010B526492648FCF77FFE01222349254819
:1039A000FFF7CEFF04460D2C0BD0002C34D06B2239
:1039B00021A125A0FFF7DEF9214629A0FFF7DAF9BA
:1039C000FEE756221CA12EA0FFF7D4F931A0FFF785
:1039D000D1F9002211461548FFF71EFD40B16422BF
:1039E00015A119A0FFF7C6F92FA0FFF7C3F9FEE74D
:1039F0005C2211A122A0FFF7BDF930A0FFF7BAF9B0
:103A000001220A490020FFF79BFFBDE81040012278
:103A100006490848FFF794BF712207A118A0FFF7D5
:103A2000A9F9BDE810402BA0FFF7A4B900000020C1
:103A3000C04D0008C00000202E2E5C557365725CDE
:103A4000696E69742E6300000D0A5B444542554758
:103A50005D5B25733A25645D203E3E20000000003A
:103A6000E68C82E8BDBDE69687E4BBB6E7B3BBE76C
:103A7000BB9FE5A4B1E8B4A52E2825642900000069
:103A80000D0A5B494E464F5D5B25733A25645D2008
:103A90003E3E2000466F726D61742074686520534D
:103AA0004420636172640000466F726D61747469D2
:103AB0006E67206572726F7200000000466F726D53
:103AC000617474696E67207375636365737366757B
:103AD0006C0000005468652066696C65207379731A
:103AE00074656D20776173207375636365737366A6
:103AF000756C6C79206D6F756E74656400000000E4
:103B00002DE9FF478046084616460027C8F8007092
:103B100000F08CF90546280003D50B2004B0BDE861
:103B2000F087B94850F82540ACB1C8F8004094F887
:103B3000000228B194F80102FFF754FCC1070CD031
:103B400084F80072E8B284F80102FFF719FCC1079B
:103B50000AD00320E2E70C20E0E71EB1400701D5C0
:103B60000A20DBE70020D9E71EB1400701D50A2073
:103B7000D4E7002529462046FFF74EFB012826D131
:103B80000021E84604EB011000F5DF70027952B124
:103B9000027AC37A42EA0362837A407A1B0443EAD8
:103BA0000020024300E0002248F82120491C04299B
:103BB000E8D3002658F8265025B129462046FFF7BD
:103BC0002BFB00E0022010B1761C042EF2D3032858
:103BD00002D018B10D20A1E701209FE7E07A217BF8
:103BE00040EA0120B0F5007F01D00D2096E7A07DCE
:103BF000E17D40EA012159B914F8240FE178627897
:103C000040EA0161A0780004243C40EA022001431C
:103C1000C4F8181294F8109084F80392B9F1010FC7
:103C200004D0B9F1020F01D00D2077E709FB01F9AB
:103C3000627B84F8022212B1501E024201D00D2094
:103C40006CE7607CA37C40EA0323A4F808321807E1
:103C500001D00D2062E7E07C267D40EA062060B9B5
:103C600014F8200FE67894F801C040EA0660A678C0
:103C70003604203C46EA0C263043A67B94F80FC05D
:103C800046EA0C28B8F1000F07D008EB090606EB4E
:103C9000131C604503D20D2040E70D203EE7A0EB4A
:103CA0000C00B0FBF2F058B3012640F6F6729042D9
:103CB00000D302264FF6F672904200D30326801CF2
:103CC000C4F81402C4F81C5205EB0802C4F8202200
:103CD000AC44C4F828C2032E14D03BB34A44C4F801
:103CE0002422022E24D000F0010200EB400002EB5F
:103CF000500000F2FF10B1EB502F1BD20D200DE74A
:103D00000D200BE70BB10D2008E714F82C2FE378FA
:103D100094F801C042EA0362A3781B0443EA0C232F
:103D20001A43C4F8F8212C3C8000E2E70D20F5E6A8
:103D30004000DEE74FF0FF30C4F81002C4F80C0278
:103D4000802084F80502032E52D194F8300094F8B4
:103D5000311040EA012001284AD1691C204600F0B8
:103D60006AF9E8BB84F8057294F8FE0194F8FF1133
:103D700040EA0120A0F52A41553939D12078E1786F
:103D8000627840EA0160A178090441EA022108430F
:103D90001E4988422CD194F8E40194F8E71194F874
:103DA000E52140EA016094F8E611090441EA0221A4
:103DB0000843174988421BD104F5F4742078E17850
:103DC000627840EA0160A178090441EA02210843CF
:103DD000A0622079E17940EA0160A179090400E05C
:103DE00006E0627941EA022108436062A4F5F474B6
:103DF00084F800620449091F0888401C0880A4F860
:103E0000060200208AE60000240000205252614190
:103E10007272416113B54FF47A7301226946024808
:103E2000FDF7A2FE00981CBD2487002010B50446B3
:103E30004FF0FF302368002B0BD0194600E0491CDF
:103E40000A78202A01D33A2AF9D10A783A2A01D0ED
:103E5000002010BD13F8012B303A0A2AF9D28B4208
:103E6000F7D1002AF5D11046491C216010BD000091
:103E700010B5094C4FF40020206000F00FF88020AE
:103E8000206000F00BF84FF40000206000F006F80E
:103E90000820206010BD0000180C02400020401CCB
:103EA000C0B21428FBD3704710B5084C082020601E
:103EB000FFF7F4FF80202060FFF7F0FF4FF40000D1
:103EC0002060BDE81040FFF7E9BF0000180C024079
:103ED0002DE9F047002400250E4F8026DFF83490AE
:103EE00018374FF400086006040E3E60FFF7D6FF57
:103EF00008214846FCF7B4FE08B1641CE4B2C7F8D8
:103F00000080FFF7CBFF6D1CEDB2082DEBD32046F0
:103F1000BDE8F087000C02402DE9F047054600247B
:103F2000114F4FF4002980264FF4000A4FF0080883
:103F3000280602D5C7F8008001E0C7F80090FFF717
:103F4000ADFF3E60FFF7AAFFC7F800A0072C01D124
:103F5000C7F800806806050EFFF7A0FF641CE4B2F6
:103F6000082CE5D3BDE8F087180C024010B5094CC9
:103F70000820206080202060FFF790FF4FF4002091
:103F80002060FFF78BFF4FF400002060BDE8104079
:103F9000FFF784BF180C024010B5054C4FF4002009
:103FA000206080202060FFF779FF0820206010BD8E
:103FB000180C024070B50C4D08202860FFF76EFF0A
:103FC00080202860FFF76AFF074808211838FCF7AF
:103FD00047FE08B1012400E000244FF400002860EF
:103FE000FFF75CFF204670BD180C024010B5FCF7CF
:103FF00059FEFEF755FCFCF7C9FAFCF7D9FABDE803
:104000001040FFF7C5BCFFF7F1FF00F0D5FA00F054
:104010005DFCFEE703E011F8013B00F8013B521E96
:10402000531CF8D17047C9B201E000F8011B521EC1
:10403000531CFAD1704770B505460E460024D5F8DA
:104040002C02B04211D0284600F084FA044664B92C
:1040500095F80102012332462946FFF7B5F910B160
:104060004FF0FF360124C5F82C62204670BD0000D9
:104070002DE9F04104460F46174EF5683068001DE3
:1040800000F0DEFA38B9306890F82C100120884032
:10409000316981433161601C07D137B13168BDE8B6
:1040A000F041091D0D4800F003BB2C44306844600A
:1040B000AC4206D23168B06B091DBDE8F04100F09A
:1040C000DFBA3168706B091D00F0DAFAB06A844219
:1040D00000D2B462BDE8F0812C000020CC050020A5
:1040E00070B5044600F0F0FA1C4DA868401CA860AA
:1040F000286810B1686938B10CE02C60A868012804
:1041000008D100F0F9F805E02868E16AC06A884241
:1041100000D82C60686A401C6862E06A01212A6944
:104120008140114329610E4900EB800001EB8000C2
:10413000211D00F0BDFA00F001FB686900280CD0D9
:104140002868E16AC06A884207D206494FF0805069
:104150000860BFF34F8FBFF36F8F70BD2C0000203E
:10416000FC02002004ED00E070B5124E124D1CE080
:1041700000F0F4FB306820B1002400F08BFDA4B9FE
:1041800001E00124F9E700F09FFAF068C468201DFF
:1041900000F056FAA868401EA8606868401E686073
:1041A00000F0CCFA204600F009F868680028DFD15A
:1041B00070BD0000B80500202C00002010B504469A
:1041C000206B00F0EDFA2046BDE8104000F0E8BAA0
:1041D0004FF400410F48420706D0C01D20F00700F1
:1041E0000C49411AC1F500410B4A1060002353608D
:1041F0000144083921F00701103A11604B600B604F
:104200000B1A436001604068906050604FF00040BE
:10421000D0607047E005002084000020074E4FF07A
:104220008054074DFFF7A0FF30680128FAD92C60B1
:10423000BFF34F8FBFF36F8FF4E70000FC02002045
:1042400004ED00E02DE9F047DDE908580A9C8146BD
:104250000E469A46206B521E00EB820020F00707A4
:10426000780705D040F22B3219A11FA0FEF782FD7E
:1042700000202218315C82F83410315C11B1401CEE
:104280001028F6D3002684F84360202D00D31F2584
:10429000E5626564A664201D00F0EFF904F11800E2
:1042A00000F0EBF92461C5F12000A0616462E664CE
:1042B00084F8506052464946384600F039F920608B
:1042C000B8F1000F01D0C8F80040BDE8F087000049
:1042D0002E2E5C4672656552544F535C7372635C5C
:1042E0007461736B732E63004572726F723A25733B
:1042F0002C25640D0A00000070B50024114D04EB5C
:10430000840005EB800000F0ADF9641C202CF6D38E
:104310000D4800F0A7F90C48143000F0A3F90A4842
:10432000283000F09FF908483C3000F09BF906481F
:10433000503000F097F90548034941631431816317
:1043400070BD0000FC0200207C0500202C00002035
:1043500030B5134900E011460A688242FBD34B682E
:104360005C18844203D140681844486008460D68D0
:1043700044682318AB420DD1094B103B1B689A428D
:1043800006D05268224442600A681268026002E065
:10439000036000E00260814200D0086030BD000090
:1043A000840000200748416B0968002905D0416B53
:1043B000C968C9684968816270474FF0FF318162FE
:1043C000704700002C00002008484068401C05D0C1
:1043D00040F20F1206A110A0FEF7CCFC502080F393
:1043E0001188BFF34F8FBFF36F8FFEE76800002087
:1043F0002E2E5C4672656552544F535C706F72741A
:104400005C525644535C41524D5F434D34465C70A0
:104410006F72742E630000004572726F723A2573DA
:104420002C25640D0A0000002DE9F0410546002608
:1044300000F094FA304F386808B9FFF7C9FEF86801
:1044400005424BD175B1083568070BD005F0070060
:10445000C0F108000544680704D0BF2227A130A09E
:10446000FEF788FC002D39D07868854236D822497D
:1044700010310846046801E0214604466068A842FD
:1044800002D220680028F7D13868844226D00E680E
:104490000836206808606068401B102811D904EBBA
:1044A00005085FEA487004D0EC2214A11CA0FEF7B6
:1044B00061FC6068401BC8F8040065604046FFF777
:1044C00047FF61687868401A7860BA68904200D205
:1044D000B860F868014361600020206000F0DAFBFA
:1044E000700705D04FF4967204A10DA0FEF742FCB0
:1044F0003046BDE8F0810000740000202E2E5C469E
:1045000072656552544F535C706F72745C4D656D8B
:104510004D616E675C686561705F342E63000000FA
:104520004572726F723A25732C25640D0A000000E3
:1045300024384FF08073036221F00101C161044906
:10454000816142606FF0020140F82019704700005D
:10455000C94300082DE9F0410446002794F80402FD
:10456000002825D0D4F82C6294F8010201233246A9
:104570002146FEF743FF08B1012719E0002084F827
:104580000402D4F82002D4F81812301A88420FD24C
:1045900094F803520AE0D4F81802064494F8010291
:1045A000012332462146FEF729FF6D1E022DF2D26D
:1045B0003846BDE8F081000001210148FEF76CBEDD
:1045C0000800002006220AA111A0FEF7D3FB15A0C7
:1045D000FEF7D0FB4FF47A74092205A10CA0FEF778
:1045E000C9FB14A0FEF7C6FB204600F035F9F3E73F
:1045F0002E2E5C557365725C5461736B735C7372C1
:10460000635C7461736B735F746573742E63000015
:104610000D0A5B494E464F5D5B25733A25645D206C
:104620003E3E200074657374207461736B20727554
:104630006E00000074657374207461736B00000079
:104640000169D0E901329A60D0E901235A604A68D1
:10465000824201D182684A60002202610868401EDD
:104660000860704700F1080141604FF0FF3282603E
:10467000C160016100210160704700210161704744
:1046800030B50C68621C02D000F1080202E0026939
:1046900004E01A4653681D68A542FAD953684B6076
:1046A00099608A60516008610168491C016030BDF1
:1046B00042684A6093688B609368596091600861B2
:1046C0000168491C01607047502080F31188BFF3D6
:1046D0004F8FBFF36F8F09494868401C486001281D
:1046E0000AD10748006810F0FF0F05D040F2B91258
:1046F00004A10EA0FEF73EBB70470000680000203A
:1047000004ED00E02E2E5C4672656552544F535CFA
:10471000706F72745C525644535C41524D5F434D0E
:1047200034465C706F72742E630000004572726FC5
:10473000723A25732C25640D0A00000010B5094C4F
:104740006068002805D14FF4E07207A110A0FEF7C1
:1047500011FB6068401E6060002801D180F3118861
:1047600010BD0000680000202E2E5C467265655268
:10477000544F535C706F72745C525644535C415298
:104780004D5F434D34465C706F72742E63000000C1
:104790004572726F723A25732C25640D0A00000071
:1047A00070B500282AD008380446154D6068E968BD
:1047B000084205D14FF4A07212A11BA0FEF7DAFA4D
:1047C000206828B140F241120EA117A0FEF7D2FADC
:1047D0006068E968084211D02268002A0ED1884337
:1047E000606000F0BBF86068696808446860204653
:1047F000FFF7AEFDBDE8704000F04CBA70BD0000A0
:10480000740000202E2E5C4672656552544F535C36
:10481000706F72745C4D656D4D616E675C6865614B
:10482000705F342E630000004572726F723A257318
:104830002C25640D0A00000006484FF47A710068C8
:10484000B0FBF1F14FF0E020491E41610721016109
:1048500070470000B800002010B504460020002C6E
:1048600010D00E48006B28B140F2CF420CA112A02C
:10487000FEF780FA00F072F800212046FFF7F8FBFF
:1048800000F008FA002807D10F494FF08050086067
:10489000BFF34F8FBFF36F8F10BD00002C000020BF
:1048A0002E2E5C4672656552544F535C7372635C86
:1048B0007461736B732E63004572726F723A257365
:1048C0002C25640D0A00000004ED00E01CB515481D
:1048D0000024CDE900402346802213A1144800F0B3
:1048E00023F901280AD0401C1BD102B040F2847287
:1048F000BDE810400FA115A0FEF73CBA502080F390
:104900001188BFF34F8FBFF36F8F06484FF0FF3111
:104910002C38816201214161C460BDE81C4000F077
:1049200067B81CBD5800002049444C4500000000F9
:104930001D4200082E2E5C4672656552544F535C32
:104940007372635C7461736B732E63004572726F74
:10495000723A25732C25640D0A0000000248016B91
:10496000491C0163704700002C00002070B5144DF5
:10497000286B002802D00120E86170BD0020E861AA
:104980002869B0FA80F0C0F11F000E4E00EB8004E1
:1049900056F8240028B940F6F6220BA110A0FEF725
:1049A000E9F906EB840041684968416000F10802BA
:1049B000914201D1496841604068C068286070BD7B
:1049C0002C000020FC0200202E2E5C4672656552F1
:1049D000544F535C7372635C7461736B732E63002A
:1049E0004572726F723A25732C25640D0A0000001F
:1049F0001CB52F4C20682F49884205D140F259122E
:104A00002DA137A0FEF7B6F920682A49491E884231
:104A100005D14FF4AD7228A131A0FEF7ABF9344CAB
:104A200020780190FF202070207800909DF80000F1
:104A30009DF8001000F0F000884205D040F273129B
:104A40001DA127A0FEF796F99DF80000294A00F065
:104A5000500010700720906006E09068401E906043
:104A60009DF80000400000909DF800000006F4D47E
:104A7000107A000200F4E0609060019820700C4809
:104A80002030016841F470010160016841F070411B
:104A90000160FFF7D1FE00205060FBF79FFB164836
:104AA000016841F040410160FBF788FB00201CBD1C
:104AB00000ED00E071C20F412E2E5C46726565521A
:104AC000544F535C706F72745C525644535C415245
:104AD0004D5F434D34465C706F72742E630000006E
:104AE0004572726F723A25732C25640D0A0000001E
:104AF00000E400E06800002034EF00E010B5502032
:104B000080F31188BFF34F8FBFF36F8F00F04AF827
:104B100018B104494FF080500860002080F31188DC
:104B200010BD000004ED00E02DE9FF5F8146DDE9E6
:104B30000E788A4616469B46B000FFF775FC054680
:104B400028000AD05420FFF76FFC04460CB12563FF
:104B500004E02846FFF724FE00E000248CB100208A
:104B6000CDE90240CDE900785B46324651464846E1
:104B7000FFF768FB2046FFF7B3FA012004B0BDE859
:104B8000F09F4FF0FF30F9E705484169002903D055
:104B9000006B18B100207047012070470220704759
:104BA0002C0000202DE9F04100262E4F386B002804
:104BB00008D0B869401CB861F86900B101263046D8
:104BC000BDE8F081FD686D1CFD608DB9786B0068F3
:104BD00028B140F6D91224A129A0FEF7CBF8786BB2
:104BE000B96B7963B863386A401C3862FFF7DAFB47
:104BF000B86ADFF89C8085420DD3786B006838B1C5
:104C0000786BC068C468606885420ED2B86202E002
:104C10004FF0FF30B8623868C06A00EB800058F887
:104C200020000128C8D90126C6E7201DFFF708FD8E
:104C3000A06A18B104F11800FFF702FDE06A012133
:104C40003A6981401143396100EB800008EB800034
:104C5000211DFFF72DFDE06A3968C96A8842CCD36F
:104C60000126CAE72C0000202E2E5C467265655294
:104C7000544F535C7372635C7461736B732E630087
:104C80004572726F723A25732C25640D0A0000007C
:104C9000FC0200202DE9F041002400272B4D286B59
:104CA000002805D14FF4FD6229A12FA0FEF762F87C
:104CB000FFF70AFD286B401E2863286BF0BBA8682D
:104CC000E0B3DFF8B48001261DE0D8F80C00C4681A
:104CD00004F11800FFF7B4FC201DFFF7B1FCE06AF7
:104CE0002A6906FA00F111432961244900EB80008A
:104CF00001EB8000211DFFF7DBFCE06A2968C96A2F
:104D0000884200D3EE61D8F800000028DDD10CB154
:104D1000FFF748FBAC6944B1FFF744FF00B1EE6117
:104D2000641E002CF8D10020A861E86930B1012789
:104D3000134938070860BFF34F8F00E001E0BFF36D
:104D40006F8FFFF7FBFC3846BDE8F0812C00002098
:104D50002E2E5C4672656552544F535C7372635CD1
:104D60007461736B732E63004572726F723A2573B0
:104D70002C25640D0A000000A4050020FC02002080
:104D800004ED00E001030507090E10121416181CAB
:104D90001E000004000200018000400020001000FE
:104DA0000800040002000000008000400020001005
:104DB000000800400020001000080004000200006D
:104DC0006D2700081D280008E52700083D28000879
:104DD0008D270008814E00008158000081400000AE
:104DE000000000002003E00150802003E001478024
:104DF000000610160006101600000000000000005B
:104E00000102030406070809000000000102030470
:104E1000746573745F7461736B0000003C3C2D47D4
:104E200054502D4552524F522D3E3E204932432080
:104E3000526561643A203078253034582C2025643E
:104E4000206279746573206661696C65642C2065E5
:104E50007272636F64653A202564212050726F631B
:104E60006573732072657365742E0A003C3C2D4790
:104E700054502D4552524F522D3E3E204932432030
:104E800057726974653A203078253034582C2025C3
:104E900064206279746573206661696C65642C2096
:104EA000657272636F64653A202564212050726FC9
:104EB000636573732072657365742E0A00000000C9
:104EC000E04E000800000020C0000000942D000803
:104ED000A04F0008C0000020A88A0000A42D0008F0
:104EE0000000000000000000C5450008104E00084A
:104EF000000200000000000002000000040000208A
:104F000000000000000000000100000000000000A0
:104F10000000000000000000000000000000000091
:104F20000000000000000000000000000000000081
:104F30000000000000000000000000000000000071
:104F4000000000000000000000000000AAAAAAAAB9
:104F50000000000000000000000000000000000051
:104F60000000000000000000000000000600200318
:104F7000E001FFFF00000000000000000000000052
:104F80000000000000000000000000000100000020
:104F900010000000000000000024F40000000000E9
:040000050800018965
:00000001FF
