:020000040800F2
:1000000080830010A10200088331000875020008F7
:100010007F02000889020008930200080000000027
:10002000000000000000000000000000BD0100080A
:10003000590D00080000000011020008D93C00081A
:10004000BB020008BB020008BB020008BB0200089C
:10005000BB020008BB020008F50F0008BB02000845
:10006000BB020008BB020008BB020008BB0200087C
:10007000BB020008BB020008BB020008BB0200086C
:10008000BB020008BB020008BB020008BB0200085C
:10009000BB020008BB020008BB020008F90F000801
:1000A000BB020008BB020008BB020008BB0200083C
:1000B000BB020008BB020008BB020008BB0200082C
:1000C000BB020008BB020008BB020008BB0200081C
:1000D000BB020008BB020008BB020008BB0200080C
:1000E000BB020008BB020008BB020008BB020008FC
:1000F000BB020008BB020008BB020008BB020008EC
:10010000BB020008BB020008BB020008BB020008DB
:10011000BB020008BB020008BB020008BB020008CB
:10012000BB020008BB020008BB020008BB020008BB
:10013000BB020008D10D0008BB020008BB0200088A
:10014000BB020008BB020008BB020008BB0200089B
:10015000BB020008BB020008BB020008BB0200088B
:10016000BB020008BB020008BB020008BB0200087B
:10017000BB020008BB020008BB0200080000000030
:10018000BB020008BB020008DFF80CD000F042FB05
:1001900000480047A39E000880830010EFF308800A
:1001A0007047EFF30980704768467047EFF30880A7
:1001B0007047EFF309807047684670472A4B19680B
:1001C0000868B0E8F04F80F30988BFF36F8F4FF0F5
:1001D000000080F3118870470000000006480068A6
:1001E000006880F3088862B661B6BFF34F8FBFF333
:1001F0006F8F00DF00BF00BF08ED00E0DFF80C00EC
:10020000016841F470010160704700BF88ED00E0B3
:10021000EFF30980BFF36F8F134B1A681EF0100FB6
:1002200008BF20ED108A20E9F04F106008B44FF0AD
:10023000500080F31188BFF34F8FBFF36F8F12F020
:1002400091FB4FF0000080F3118808BC1968086822
:10025000B0E8F04F1EF0100F08BFB0EC108A80F32A
:100260000988BFF36F8F7047CC800020EFF30580C3
:10027000704700007046694604F0E8FD0EE07046E5
:10028000694604F0E3FD09E07046694604F0DEFDCE
:1002900004E07046694604F0D9FDFFE7FEE7000080
:1002A0000648804706480047FEE7FEE7FEE7FEE710
:1002B000FEE7FEE7FEE7FEE7FEE7FEE7C13D0008DA
:1002C000890100082DE9F05F0546002092469B4613
:1002D00088460646814640241BE02846414647465C
:1002E000224600F0CFF853465A46C01A914110D327
:1002F00011461846224600F0B6F82D1A67EB0108A1
:100300004F4622460120002100F0ADF817EB00090E
:100310004E41201EA4F10104DFDC484631462A4646
:100320004346BDE8F09F000000487047CC4B0108F1
:100330000649074A0868504343F2390210440860EE
:10034000400870470149086070470000D80000105D
:100350006D4EC64110B5431A934209D283188818CE
:1003600003E010F8011D03F8011D521EF9D210BD63
:1003700040EA01039B0703D009E008C9121F08C027
:10038000042AFAD203E011F8013B00F8013B521EA7
:10039000F9D210BDD2B201E000F8012B491EFBD208
:1003A00070470022F6E710B513460A460446194680
:1003B000FFF7F0FF204610BD30B505462A460B4634
:1003C00012F8010B13F8014B08B1A042F8D01CB190
:1003D000002802D06D1CF1E7284630BD10B5044658
:1003E00004E00B7800F8013B03B1491C521EF8D21F
:1003F000204610BD421C10F8011B0029FBD1801AB9
:10040000704730B504460020034600E05B1C934271
:1004100003D2E05CCD5C401BF8D030BD30B5054662
:100420000020034600E05B1C934205D2EC5CC85CF4
:10043000201A01D1002CF6D130BD30B50B46014653
:1004400000202022012409E021FA02F59D4205D373
:1004500003FA02F5491B04FA02F52844151EA2F11D
:100460000102F1DC30BD202A04DB203A00FA02F15F
:10047000002070479140C2F1200320FA03F3194392
:1004800090407047202A04DB203A21FA02F0002134
:10049000704721FA02F3D040C2F120029140084394
:1004A000194670472DE9FE4F804681EA0300C00FD0
:1004B0000C46009021F0004123F00045B8EB02000B
:1004C000A94105D24046214690461C460B460246AD
:1004D00023F00040104347D0270DC7F30A00C3F3B1
:1004E0000A510290401A019040286BDAC3F31300BE
:1004F00040F4801B0098924620B10023D2EB030AFF
:1005000063EB0B0B01985946C0F140025046FFF7D0
:10051000AAFF06460D4650465946019A00F08CF94E
:1005200010EB08006141002487EA115284EAE77366
:100530001A4340D0009A62B3019A012A4FEA075247
:1005400015DC001B61EB02014FF0004202EA07528A
:10055000CDE90042001C41F5801132462B4600F0E7
:100560008CF903B0BDE8F08F40462146F9E7001B47
:1005700061EB0201001C41F5801300185B4120185B
:10058000A2F5001747EB030140EAD570B6196D419B
:1005900011E06D084FEA360645EAC0754FEA07528A
:1005A000001B61EB0201001C41F5801149084FEA74
:1005B00030000019514132462B4603B0BDE8F04FE0
:1005C00000F04CB90098012240000023D0EB020259
:1005D00063EBE073009821464FEAE074B8EB00004B
:1005E00061EB0401E9E783F000435BE781F0004140
:1005F00058E72DE9FE4F81EA030404F0004421F09E
:10060000004100944FF0000B23F0004350EA010436
:100610005ED052EA03045BD0C3F30A54C1F30A5517
:100620002C44A4F2F3340194A0FB0254C1F313014F
:1006300041F48011C3F3130343F4801301FB02441C
:1006400000FB034E840A970A44EA815447EA835721
:10065000A4FB076802958D0A05FB07854FEA932CDA
:1006600004FB0C542705029D4FEA065847EA16374B
:10067000B5EB08056EEB070C870E920E47EA811763
:1006800042EA8312A7FB0201B6EB0B0164EB000404
:100690002B0D43EA0C335E1844EB1C50DA465146EE
:1006A000E7FB0201C5F313044FEA0B3343EA14538B
:1006B0004FEA0432019C43EA0603A4F10C040294BD
:1006C000009CCDE900B400F0D8F803B0BDE8F08F8D
:1006D00000200146F9E72DE9F04D81EA030404F01A
:1006E000004B21F0004514464FF0000A23F0004172
:1006F00050EA050220D054EA01021DD0C5F30A5782
:100700000246C5F31303C1F31300C1F30A5640F4C4
:10071000801543F48013A7EB0608101BD64608F299
:10072000FD3873EB050002D308F1010801E09218CF
:100730005B41B8F1000F03DA00200146BDE8F08DFF
:1007400000204FF48011064684460EE0171B73EB21
:10075000050705D3121B63EB050306434CEA010CA6
:1007600049084FEA300092185B4150EA0107EDD189
:1007700052EA030012D082EA040083EA050108432A
:1007800005D0101BAB4106D20122002306E0002257
:100790004FF0004302E06FF0010253101AEB060025
:1007A0004CEB085110EB0A0041EB0B01BDE8F04D9A
:1007B00000F054B8C1F30A52C1F3130140F2FF3301
:1007C00041F480119A4202DA00200146704740F25B
:1007D00033439A42A2F2334202DC5242FFF752BE46
:1007E000FFF741BE30B5041E71F1000404DB4FF089
:1007F0000044404264EB0101141E73F1000405DB68
:100800001C464FF00043524263EB0403994208BF79
:10081000904230BD064C074D06E0E06840F0010311
:1008200094E8070098471034AC42F6D3FFF7B0FCC9
:1008300068540108B8540108202A06DBCB17203A77
:1008400041FA02F043EAE07306E041FA02F3D040D5
:10085000C2F12002914008431946704710B5141E9A
:1008600073F1000408DA401C41F1000192185B4169
:100870001A4301D120F0010010BD2DE9F04D924640
:100880009B4611B1B1FA81F202E0B0FA80F2203257
:100890009046FFF7E8FD04460F4640EA0A0041EAA9
:1008A0000B0153465A46084313D0114653EA010040
:1008B00019D0C8F140025046FFF7E4FD05460E4648
:1008C000504659464246FFF7CEFD084305D0012069
:1008D00004E020463946BDE8F08D0020054346EA95
:1008E000E0762C4337430A986305E40AA0EB08003E
:1008F0000022FD0A44EA47540A3002D5002001468E
:10090000E9E7010510196941DDE908450019694168
:10091000BDE8F04DA2E770B58C1810F8015B15F03A
:10092000070301D110F8013B2A1106D110F8012B61
:1009300003E010F8016B01F8016B5B1EF9D12B0786
:1009400005D40023521E0DD401F8013BFAE710F83C
:10095000013BCB1A921C03E013F8015B01F8015B29
:10096000521EF9D5A142D8D3002070BD01460148DE
:1009700002F044B8F87E001010B5044802F050F8B8
:10098000042801D0012010BD002010BDF87E001009
:1009900010B503F071FC00240F490E4808600020D8
:1009A00048608860C86008614861886100210A4821
:1009B00000F014F8084802F043F800B1012434B9FB
:1009C0004FF40061044801F0D9FE00B10124204633
:1009D00010BD0000002C0140F87E00102DE9F04F02
:1009E00087B0044600254D48016841F4006101606C
:1009F000006800F40060019048481438016841F430
:100A000080010160016801F480010191016841F0F9
:100A100004010160016801F004010191016841F0E5
:100A200008010160006800F00800019002200390B6
:100A300001200490032605960C2006904FF4F850F0
:100A4000029002A9364801F059FA0427029702A938
:100A5000344801F053FA00220521312001F096FBC1
:100A6000312001F088FB30484FF00068C0F8048066
:100A70008560C5604FF48069C0F810904FF4805ACB
:100A8000C0F814A04FF4804BC0F818B02021C16109
:100A900031040162476286627905C162891001638F
:100AA00022490160E063846300F0C2FC1E4800F04C
:100AB000EDFC1D486030C0F8048040218160C560B5
:100AC000C0F81090C0F814A0C0F818B02021C1617F
:100AD00031040162476286627905C162891001634F
:100AE0001249483101602064846300F0A1FC0E4883
:100AF000603000F0CBFC002206213B2001F046FBD9
:100B00003B2001F038FB00220621452001F03EFB8E
:100B1000452001F030FB07B0BDE8F08F44380240BB
:100B200000080240000C0240387E00105864024069
:100B300008B5009313460A460146044801F0D7FF62
:100B400008B1012008BD002008BD0000F87E00109B
:100B500008B5009313460A460146044802F0C1F85E
:100B600008B1012008BD002008BD0000F87E00107B
:100B70001FB5284800F07AFD00F04AFA26480168BF
:100B800041F00101016002208DF8080000218DF87C
:100B900009108DF80A108DF80B108DF80C108DF8D7
:100BA0000D101C481D4A026001224260018202AB06
:100BB00043618261C161D105016249128160C9103E
:100BC000C16000F007FE0446CCB115A0C021CDE9FC
:100BD00000101A4B1AA221A1042004F03FFF0823A1
:100BE000204A21490B4800F004FD204A0823A2F5C1
:100BF0000071084800F0C6FC04B0204610BD1CA0DF
:100C0000BE21CDE900100D4B0DA214A1042004F06B
:100C100025FFE4E700000020009002400080024031
:100C200065746820686172647761726520696E69B5
:100C300074206661696C642E2E2E0A00064B010832
:100C40002E2E5C48414C5C4253505C6574685C627B
:100C500073705F6574682E63000000006C776970C4
:100C600000000000E8310020480100204802002078
:100C700065746820686172647761726520696E6965
:100C800074207375636573732E2E2E0A00000000A6
:100C90000648016841F0807101600548002141600B
:100CA000016841F00101016070470000FCED00E0C7
:100CB000001000E00168CAB2103A1823B2FBF3F248
:100CC000064B9B5CC3656FF30901032A02D9091D1A
:100CD000816500E08165806D70470000294B010847
:100CE00010B5014600208A6A8B694FF0C074002B52
:100CF0000ED0B3F5005F1AD062B3012A2AD0022ABF
:100D000028D0032A03D1C96AC90100D5012010BD2A
:100D10001AB1012A06D0022AF9D1C96AC901F6D549
:100D2000012010BDC96AA142FBD1012010BD52B102
:100D3000012A0AD0022A06D0032AF7D1C96AA142A1
:100D4000F4D1012010BD012010BDC96AC901FBD535
:100D5000012010BD012010BD7047006800F58050D3
:100D6000816941F0020181617047006800F580509F
:100D7000816941F4005181617047000008B507495D
:100D80004FF4FA520968B1FBF2F14143009100BF00
:100D90000098411E0091FAD208BD00004081002059
:100DA00038B50446206800F58050816941F480110F
:100DB0008161206800F58050806900900120FFF774
:100DC000DDFF2068009900F58050816138BD00008A
:100DD00010B55020EFF3118480F31188BFF34F8FCB
:100DE000BFF36F8F024800F0B4FC84F3118810BD8C
:100DF000000000201079537940EA03230748084493
:100E000003641178D37841EA0361937852781B0424
:100E100043EA02221143416470470000008002400F
:100E20002DE9F041AEB00446002904D04FF4006033
:100E3000E060C000A06000251195129513951495EF
:100E400015951695E06900287DD017954FF4007030
:100E5000189019951A951B951C951D9540271E975E
:100E60001F952095219522952395249525952695C6
:100E700080262796289529952A952B952C952D9592
:100E80002068026845490A40D4E902131943179BB8
:100E9000194341F40071114301602068D0F80080CB
:100EA000012000F05DFB2068C0F8008020684760EA
:100EB00020684768012000F053FB206847602068E5
:100EC00085602068C560206881694FF641721140D5
:100ED00041F08001816120688769012000F040FBBA
:100EE000206887612068C5612068C769012000F01B
:100EF00037FB2068C7610195B0040290039501118A
:100F000004910595069507950895042109910A9085
:100F100040120B9080010C9040120D900E960F9590
:100F20001095206800F5805081691D4A11401D4AC6
:100F30000A438261206800F580508569012000F035
:100F40000FFB206800E016E000F580508561206806
:100F5000154900F580500160206800F58050056853
:100F6000012000F0FDFA206800F580500560A069BE
:100F7000012804D00AE04FF48060179066E72068EB
:100F800000F58050C169094A1143C16162692EB000
:100F90002046BDE8F0410021FFF72CBF0F8120FF64
:100FA000233FDEF8040020028020C102400001003F
:100FB00038B504462068016841F0040101602068EA
:100FC000006800900120FFF7D9FE216800980860B2
:100FD00038BD38B504462068016841F00801016059
:100FE0002068006800900120FFF7C8FE2168009883
:100FF000086038BD7047000010B5044C2068C0057B
:1010000003D500F02BF9A015206010BD143C014061
:1010100010B586B01248016841F480710160006823
:1010200000F4807000900120029003900220049050
:1010300001900C4C01A9204600F060FF0022022123
:10104000204601F044F8052000F08AFA012202212E
:10105000204601F03CF8052000F082FA06B010BDF1
:101060003038024000200240002200F001B80000A9
:1010700030B5044601200D4B5D7A012D15D8587A04
:1010800000251D54587A03EB800044605C7A03F11C
:1010900008002254587A421C5A72303008703A20A4
:1010A00048702F208870CD70002030BDCC83002088
:1010B000F0B58BB00E464FF0FF3500240021ADF89F
:1010C00016108DF814000221ADF8181007960121B2
:1010D000ADF822108DF82000971EADF82470B01CDA
:1010E0000A9007E0022105A801F0FDFF0546022D48
:1010F00002D0641C052CF5DB052C11DB70783178EF
:10110000CDE9037540EA012007A1CDE9011040F2C5
:101110000B100090144B15A21BA1012004F09EFCA3
:101120000BB02846F0BD000049324320526561648F
:101130003A203078253034582C2025642062797488
:101140006573206661696C65642C20657272636FDB
:1011500064653A202564212050726F6365737320A3
:1011600072657365742E0000644A01082E2E5C4877
:10117000414C5C4253505C544F5543485C67743952
:1011800078782E63000000006774397878000000DA
:10119000F0B589B00E4617464FF0FF350024002108
:1011A000ADF81A108DF81800ADF81C70089607E01D
:1011B000012106A801F097FF0546012D02D0641C0D
:1011C000052CF5DB052C12DB70783178BF1ECDE9DC
:1011D000037540EA012007A1CDE901104FF4997091
:1011E0000090144B14A21BA1012004F037FC09B09D
:1011F0002846F0BD4932432057726974653A203061
:1012000078253034582C2025642062797465732049
:101210006661696C65642C20657272636F64653AFF
:10122000202564212050726F63657373207265738B
:1012300065742E00714A01082E2E5C48414C5C42B8
:1012400053505C544F5543485C67743978782E632B
:10125000000000006774397878000000AFF3008068
:101260002DE9F04397B056A00068169028210BAEE8
:10127000301DFFF796F8DFF84C81D8F800000B908E
:10128000BA2700240C220BA93846FFF711FF0028CB
:101290000FDA4DA140F26122CDE90021029008F160
:1012A0004E0351A257A1012004F0D8FB17B0BDE8AE
:1012B000F0839DF82E000028F8D001066CD500F0D0
:1012C0000F05052D68D8012D18D924210DF1040929
:1012D00002A8FFF766F8D8F804000190681E022102
:1012E00001EBC002804601A93846FFF7E1FE4FEA54
:1012F000C80209F102010EA8FFF72CF8434A75BB9A
:1013000045E006EBC40108794B7940EA03208B796C
:10131000C97943EA01213E4B1B78082B2DD2DFE827
:1013200003F004070A0F14191F26D060116124E08E
:10133000D160106121E0C0F5F070D06011611CE057
:10134000D160C0F5F070106117E0D060C1F5487051
:10135000106112E0C1F54871D16010610DE00DE03F
:10136000C0F5F070D060C1F54870106105E0C1F5BE
:101370004871D160C0F5F0701061641CAC42C0DBF4
:1013800090895080108A90800120D08003E01089DD
:1013900008B10020D0801581032216A93846FFF736
:1013A000F7FE002882DA1BA040F2C521CDE900102B
:1013B000044B0DA24E3313A1032004F04FFB75E73D
:1013C000814E0000484A0108493243207472616E20
:1013D00073666572206572726F722E206572726E0E
:1013E0006F3A25640A2000002E2E5C48414C5C4276
:1013F00053505C544F5543485C67743978782E637A
:101400000000000067743978780000002081002017
:10141000CC00001049324320777269746520656EF4
:10142000645F636D64206572726F7221000000005A
:1014300070B50446002C24D094F83500022822D040
:101440002068016821F00101016020680025056025
:1014500020684560206885602068C5602068056157
:101460002168212048612046FFF724FC34343F21C5
:1014700094F82820914081602562657025700020D5
:1014800070BD012070BD022070BD00002DE9F0414B
:10149000044600F029FE05465CB1002684F834605D
:1014A000022084F835002068016821F00101016004
:1014B0000DE00120BDE8F08100F016FE401B05287C
:1014C00005D920206065032084F83500F2E7206804
:1014D0000068C007F0D121680A6820480240D4E9BA
:1014E00001031843D4E903352B43184363691843B8
:1014F000A3691843E3691843236A18431043626AD7
:10150000042A03D1D4E90B231A431043086020684E
:10151000406920F00700656A294605430127042930
:101520000DD1A06A0543E06A48B12046FFF7D8FB19
:1015300028B14020606584F835700120BAE7206842
:1015400045612046FFF7B6FB94F85C203F219140AF
:101550008160666584F835700020ABE73F8010F04D
:1015600070B5044600F0C0FD0546601C02D004487A
:101570000078044400F0B8FD401BA042FAD370BDCF
:1015800034810020F0B5002490F84550012D09D099
:10159000012780F84570022580F84450816244F2AA
:1015A000F45C19E00220F0BD01EB44154FF0004659
:1015B0002E60C5F804C0C4EBC41606EB460602EB69
:1015C0008606AE6086695E1EB44203D205F120062F
:1015D000EE6000E0E960641C9C42E5D3026802F51D
:1015E0008052D16080F84470002180F845100020BE
:1015F000F0BD2DE9F043002590F84540012C0BD0BB
:101600004FF0010C80F845C0022480F84440C162CC
:101610004FF480185F1E1CE00220BDE8F08301EB50
:101620004514C4F80080C5EBC51606EB460602EB70
:101630008606A660C66926B9266846F44009C4F83D
:101640000090BD4203D204F12006E66000E0E160B4
:101650006D1C9D42E3D3026802F58052116180F84F
:1016600044C0002180F845100020D6E710B504469C
:10167000022084F84400204600F0C8F9002004F855
:10168000440F607010BD00001CB505A0ED21CDE930
:101690000010064B06A20DA1012004F0DFF91CBDCD
:1016A000657468206572720A00000000134B01081F
:1016B0002E2E5C48414C5C4253505C6574685C6201
:1016C00073705F6574682E63000000006C7769704A
:1016D0000000000010B590F84510012913D0012337
:1016E00080F84530022180F84410816A0A6800249D
:1016F000002A29DB0A68D20518D5826B521C826346
:10170000012A02D002E0022010BD01632830C1602E
:101710000A68C2F30D42121F4261826892688261B8
:10172000C968016003774477002010BD0A689205FC
:1017300005D5016344638363C968816204E0826BF9
:10174000521C8263C968816200F8443F44700120E2
:1017500010BD70B50446206800F5805041694FF017
:10176000000649064FF001050CD5204600F026FA88
:101770002068402100F58050416184F8445084F88D
:1017800045600DE04069C0070AD0204600F0D9FA54
:10179000206800F58050456184F8445084F8456025
:1017A00020684FF4803100F580504161206800F5D9
:1017B0008050406900040CD52046FFF765FF206883
:1017C0004FF4004100F58050416184F8445084F8A2
:1017D000456070BD2DE9FC4704464FF00008CDF888
:1017E0000480C146002C03D094F8440018B107E0EF
:1017F0000120BDE8FC8784F84580204600F038F9D8
:101800007848016841F480410160006800F480403C
:1018100000907548016821F4000101600168226AA6
:1018200011430160206800F58050016841F001011A
:10183000016000F059FC05464FF4FA760AE000F02A
:1018400053FC401BB04205D9032084F8440084F8BF
:101850004580CEE7206800F580500068C007EED1D3
:101860002068006920F01C0500F064FD5F49604AB3
:101870000144914202D245F0080516E05D495E4AF6
:101880000144914202D245F00C050EE05B495C4AEE
:101890000144914209D35B4908445B49884202D222
:1018A00045F0040501E045F01005206805614FF49E
:1018B00000420021204600F045FA012538B10121FF
:1018C0002046FFF7ADFA84F84450012091E7052047
:1018D000FFF746FE6068E0B300F006FC074641F201
:1018E000883601AA0121204600F026F900F0FCFB11
:1018F000C01BB04209D901212046FFF791FA84F8B4
:10190000445084F84580032073E701984007E8D5E8
:101910004FF480520021204600F014FA38B1012122
:101920002046FFF77DFA84F84450012061E700F07B
:10193000DBFB074601AA0121204600F0FDF800F07C
:10194000D3FBC01BB0420BD901212046FFF768FA38
:1019500000E028E084F8445084F84580032048E7FC
:1019600001988006E6D501AA1F21204600F0E4F880
:1019700038B101212046FFF753FA84F84450012082
:1019800037E70198C10603D54FF40061E16001E03B
:10199000C4F80C80400702D5C4F808801AE04FF460
:1019A0008040A06016E0E0680021C0F3CF02A0688C
:1019B000C0F34F000243204600F0C4F938B10121C2
:1019C0002046FFF72DFA84F84450012011E7052046
:1019D000FFF7C6FD49462046FFF722FA84F8445037
:1019E000002006E7443802400438014000D3CEFE10
:1019F000C0E1E40040F1E9FD40787D0100796CFC34
:101A0000005A6202001F0AFA80F0FA0210B500685C
:101A10001249884221D11248016821F08061016099
:101A2000016821F000610160016821F0007101602E
:101A300032210C4800F0C4F986210B4800F0C0F9AF
:101A40000A4C4FF40061204600F0BAF92046BDE888
:101A500010404FF4C04100F0B3B910BD0080024007
:101A600030380240000802400000024000180240E6
:101A70002DE9F04186B000682A4988424ED13220D3
:101A800001900224029400250395032604960B2757
:101A9000059701A9244800F031FA862001900294AC
:101AA00003950496059701A9204800F027FAA002A3
:101AB00001900294039504960597DFF8748001A9BC
:101AC000404600F01BFA70030190029403950496BF
:101AD000059701A9404600F011FA002206213D2099
:101AE00000F054FB3D2000F046FB1248016841F035
:101AF00000710160016801F000710091016841F01E
:101B000080610160016801F080610091016841F02D
:101B100000610160006800F00060009006B0BDE860
:101B2000F0810000008002400008024000000240F6
:101B300000180240303802402DE9F0470446914633
:101B400094F8440082281DD0822084F84400206844
:101B5000026902F01C03228A4FF6FF7505EAC222D1
:101B60001A434FF4F86303EA8111114321F0020193
:101B700041F00105056100F0B7FA064601274FF470
:101B800080380FE00220BDE8F08700F0ADFA801B3E
:101B9000404505D304F8447F002060700320F2E73D
:101BA00020680569E807F0D12068406980B2C9F86B
:101BB000000084F844700020E5E7000008B500202C
:101BC000009008486946006811F0F8FA009800286B
:101BD00007D005494FF080500860BFF34F8FBFF327
:101BE0006F8F08BD0400001004ED00E070B50446DE
:101BF00094F84500012819D0012584F845500220A9
:101C000084F844002046FFF7E4F92046FFF7D0F9B6
:101C10002046FFF7C5F82046FFF7A7F82046FFF754
:101C20009CF804F8445F0020607070BD022070BD15
:101C3000F0B5002390F84520012A11D0012780F843
:101C40004570022280F84420002659B1C46A2268F7
:101C5000002A0CDA122100F8441F46700120F0BD62
:101C60000220F0BD00F8447F46700120F0BD40F234
:101C7000F455A9420AD9B1FBF5F2B1FBF5FC05FB1D
:101C80001C1CBCF1000F02D0521C00E00122012AF2
:101C900044D1226842F040522260C26AC1F30C0172
:101CA0005160C16A0A6842F000420A60C16AC968AC
:101CB000C16235E0C46AD4F800C02CF0405CC4F8BE
:101CC00000C033B9C46AD4F800C04CF0805CC4F8DA
:101CD00000C0C46A6560541EA34214D1C46AD4F81B
:101CE00000C04CF0005CC4F800C0C2F10104C4EBB9
:101CF000C41404EB440401EB8404D0F82CC0C4F3F6
:101D00000C04CCF80440C46AD4F800C04CF0004C79
:101D1000C4F800C0C46AE468C4625B1C9342C9D3BF
:101D2000016801F580514A69520705D504224A61CC
:101D3000016801F580514E6000F8447F4670002034
:101D4000F0BD70472DE9F041044694F84400422864
:101D500020D0422084F844002068036903F01C036B
:101D6000258A4FF6FF7606EAC5251D434FF4F86332
:101D700003EA8111294341F0020141F0010591B2CA
:101D800041612068056100F0AFF9064601274FF474
:101D900080380FE00220BDE8F08100F0A5F9801B3B
:101DA000404505D304F8447F002060700320F2E72B
:101DB00020680569E807F0D184F84470EBE700007B
:101DC0002DE9F04F0023DFF80C814FF0010C0F27B5
:101DD0000CFA03F201EA0204944275D106684FEA54
:101DE0004309032505FA09F5AE430660DE0800EB5A
:101DF0008609D9F820A05E074FEAD66B07FA0BFBDD
:101E00002AEA0B0A3E46C9F820A0D0F8089029EA31
:101E10000509C0F80890D0F8049029EA0209C0F832
:101E20000490C268AA43C26023F0030202EB0805D3
:101E3000D5F808284FEA83794FEA197906FA09F6A6
:101E400006EA020A244A904201D1002223E0234AF2
:101E5000904201D101221EE0214A904201D102228A
:101E600019E0204A904201D1032214E01E4A904218
:101E700001D104220FE01D4A904201D105220AE05F
:101E80001B4A904201D1062205E01A4A904201D134
:101E9000072200E0082202FA09F2524514D1D5F8CF
:101EA0000828B243C5F80828134A1568A5431560E9
:101EB000121D1568A5431560121D1568A543156010
:101EC000121D1568A54315605B1C102B80D3BDE85F
:101ED000F08F00000030014000000240000402408A
:101EE00000080240000C02400010024000140240B2
:101EF00000180240001C0240003C01402DE9F84F50
:101F00000022DFF89091DFF88C8109F108094FF089
:101F1000010E4FF00F0C09F1040A0EFA02F60B68DD
:101F20003340B34271D14C68022C01D0122C11D134
:101F3000D40800EB84073D6A5407E40E0CFA04FB56
:101F400025EA0B05D1F810B00BFA04FB4BEA050BA0
:101F5000C7F820B0076854000325A540AF4391F8A7
:101F600004B00BF0030B0BFA04FB4BEA070BC0F8B1
:101F700000B04F68012F05D0022F03D0112F01D0E0
:101F8000122F11D18768AF43D1F80CB00BFA04FBC4
:101F90004BEA070BC0F808B04768B7430E79C6F3A1
:101FA000001696403E434660C668AE438D68A54025
:101FB0003543C5604C68E40065D5374C256845F469
:101FC00080452560246804F480440094334C22F05A
:101FD00003052544D5F808789407260F0CFA06F473
:101FE000A7432F4CA04201D1002424E02D4CA04255
:101FF00001D101241FE02C4CA04201D102241AE09F
:102000002A4CA04202D1032415E03CE0284CA04217
:1020100001D104240FE0274CA04201D105240AE09D
:10202000254CA04201D1062405E0244CA04201D158
:10203000072400E00824B4403C43C5F80848D8F819
:1020400000409C434D68ED0300D51C43C8F8004098
:10205000104D2D1D2C689C434E68B60300D51C43C3
:102060002C60D9F800409C434D68ED0200D51C431C
:10207000C9F80040DAF800409C434D68AD0200D535
:102080001C43CAF80040521C102AFFF446AFBDE8BA
:10209000F88F0000003C014044380240003001400D
:1020A000000002400004024000080240000C024010
:1020B000001002400014024000180240001C0240C0
:1020C0000069084201D00120704700207047002AB3
:1020D00001D081617047090481617047014800683F
:1020E000000C7047002004E0014880687047000041
:1020F0003481002002488168027811448160704771
:102100003481002010B50948016841F40071016074
:10211000016841F480610160032000F057F80F204E
:1021200000F006F800F026F8002010BD003C024048
:1021300070B504460D4D4FF47A712878B1FBF0F07C
:102140000B490968B1FBF0F000F0BDFE08B10120B9
:1021500070BD102C07D200222146501E00F016F848
:102160006C60002070BD012070BD00003481002033
:1021700040810020704700F01F020121914040097A
:10218000800000F1E020C0F800117047F0B40D4667
:102190000D4B1B68C3F30223C3F10704042C00D9C1
:1021A0000424191D072901D2002300E0DB1E0126AB
:1021B00006FA04F1491E294099409E40761E1640B9
:1021C0003143F0BC00F0DEBF0CED00E000F0070191
:1021D000054A10684FF6FF03184040EA0120034902
:1021E00008431060704700000CED00E00000FA05A5
:1021F0002DE9F04704460D46002C13D0DFF824915A
:10220000D9F80000EFB200F00F00A8420CD289F814
:102210000070D9F8000000F00F00A84204D001209F
:10222000BDE8F0870120FBE720683F4E810712D50B
:10223000400703D5306840F4E05030602078000754
:1022400003D5306840F4604030603068A16820F009
:10225000F000084330602078C00731D03249606810
:102260000839012808D002280BD0032809D00968B2
:1022700089070BD40120D3E70968890306D401201C
:10228000CEE70968890101D40120C9E7316821F04E
:10229000030101433160FFF727FF804641F2883A8E
:1022A00007E0FFF721FFA0EB0800504501D903200C
:1022B000B6E73068616800F00C00B0EB810FF0D138
:1022C000D9F8000000F00F00A84209D989F8007081
:1022D000D9F8000000F00F00A84201D001209FE7CC
:1022E0002078400705D53068E16820F4E0500843C5
:1022F00030602078000706D53068216920F46040FE
:1023000040EAC100306000F03BF83168074AC1F391
:102310000311515CC840064908600F20FFF708FF11
:1023200000207DE7003C024008380240314B0108A4
:102330004081002001480068704700004081002073
:1023400000B5FFF7F7FF04490968044AC1F3822189
:10235000515CC84000BD000008380240414B0108F4
:1023600000B5FFF7E7FF04490968044AC1F34231A9
:10237000515CC84000BD000008380240414B0108D4
:1023800010B51748006810F00C01164816D0164B0F
:10239000042912D0082911D1114C241F216801F001
:1023A0003F02216849020AD52068C0F38810A0FBCB
:1023B00003010023FDF786FF09E0184610BD2168E0
:1023C0000023C1F38811A1FB0001FDF77BFF216809
:1023D000C1F30141491C4900B0FBF1F010BD000000
:1023E000083802400024F40040787D012DE9F84FC0
:1023F0000446002C10D02078DC4DC00757D0DB48B5
:1024000008300168C1F3810101290DD00068C0F3D3
:102410008100022803D00EE00120BDE8F88FD348E8
:10242000001D0068400206D5286880033FD560681B
:1024300070BB0120F1E76068B0F5803F10D0B0F5C7
:10244000A02F12D0286820F480302860286820F45B
:10245000802028606068E0B1FFF746FE064614E081
:10246000286840F480302860F4E7286840F4802031
:102470002860286840F480302860EBE7FFF734FEDE
:10248000801B642801D90320C7E728688003F5D59D
:102490000DE0FFF729FE064606E0FFF725FE801B4C
:1024A000642801D90320B8E728688003F5D4207890
:1024B000AF4F80074FF0000849D5AC48083001689D
:1024C00011F00C0F09D00068C0F38100022814D16C
:1024D000A648001D006840020FD42868800704D574
:1024E000E068012801D0012097E72868216920F0E1
:1024F000F80040EAC100286029E0E068B8B1012096
:102500003860FFF7F1FD064606E0FFF7EDFD801BA2
:10251000022801D9032080E728688007F5D52868BC
:10252000216920F0F80040EAC10028600FE0C7F8F8
:102530000080FFF7D9FD064606E0FFF7D5FD801BBA
:10254000022801D9032068E728688007F5D420789D
:10255000000729D5DFF814928648616909F17409EA
:1025600089B101210160FFF7BFFD064606E0FFF7D4
:10257000BBFD801B022801D903204EE7D9F80000DB
:102580008007F4D510E0C0F80080FFF7ADFD0646E7
:1025900006E0FFF7A9FD801B022801D903203CE7D4
:1025A000D9F800008007F4D42078400772D50026BF
:1025B000DFF8B8A10AF1400ADAF80000C0000BD435
:1025C000DAF8000040F08050CAF80000DAF80000A5
:1025D00000F0805000900126DFF89CB1DBF800008D
:1025E000C00515D4DBF8000040F48070CBF8000083
:1025F000FFF77AFD814607E0FFF776FDA0EB0900C3
:10260000022801D9032008E7DBF80000C005F3D554
:10261000DFF858B1A0680BF1700B012813D0052822
:1026200018D0DBF8000020F00100CBF80000DBF848
:10263000000020F00400CBF80000A06830B3FFF7E2
:1026400053FD81461DE0DBF8000040F00100CBF8AF
:102650000000F2E7DBF8000040F00400CBF80000D7
:10266000DBF8000040F00100CBF80000E5E7FFF7E1
:102670003BFDA0EB090141F28830814201D90320E2
:10268000CBE6DBF800008007F1D512E0FFF72CFD68
:1026900081460AE015E0FFF727FDA0EB090141F2B2
:1026A0008830814201D90320B7E6DBF800008007BB
:1026B000F1D4012E05D1DAF8000020F08050CAF8DC
:1026C0000000A069C0B3294908310968C1F381013C
:1026D000022949D0022805D0C7F86080FFF704FD21
:1026E00004463CE0C7F86080FFF7FEFC064606E0C3
:1026F000FFF7FAFC801B022801D903208DE6286829
:102700008001F5D4D4E907010843616AA26A4FF059
:10271000FF33890103EB520241EA0241084394F876
:102720002C1040EA01611148001D0160012038664B
:10273000FFF7DAFC044607E014E0FFF7D5FC001BC6
:10274000022801D9032068E628688001F5D509E050
:10275000FFF7CAFC001B022801D903205DE62868A8
:102760008001F5D4002058E6012056E600380240EA
:1027700000004742800E47420070004070B58AB0AA
:1027800004460D46032084F83400606C03281ED0F4
:10279000B5F5805F08D0B5F5006F0AD085B1A06BA4
:1027A00040F00060A06316E0A06B40F08050A06392
:1027B00011E0204601F0E3F9A16B0143A1630AE0B7
:1027C000204601F0B3F9A16B0143A16303E0A06BC4
:1027D00040F08050A063A06B012640B1216840F218
:1027E000FF50886384F8346001200AB070BD6068CF
:1027F0000490A0680590E0680690079560690890CD
:10280000A069099007A807C88DE8070004A92068F7
:102810000EC900F0E7FC84F834600020E5E7F0B56D
:10282000426E120E93090B70C2F383034B7002F0D9
:1028300003028A70426E120CCA70B0F86420120A49
:102840000A7190F864204A71826E120E4FF6FF737F
:1028500003EA0212CA80826EC2F30742CB8843EABF
:102860001213CB8002F00F020A72B0F86820C2F394
:102870000722D3094B72C2F380138B72C2F3401349
:10288000CB72C2F300130B7300264E73436C012509
:102890004FF40077002B0DD0012B44D0026840F29A
:1028A000FF519163816B41F08051816380F8345016
:1028B0000120F0BD9207120D0A6190F868200B69A3
:1028C00043EA82020A61C26E120E0B6943EA921356
:1028D0000B61C2F3C2030B7502F007024A75C26EA8
:1028E000C2F3074253098B75C2F38203CB7592077B
:1028F000520F0A76B0F86C20C2F307220B7E43EA2F
:10290000D2130B760C69641C44650B7E9B1C9C40A7
:10291000446591F808C005FA0CF383655B0A5C43D3
:10292000C46507661CE090F868209206920A0A6166
:10293000C26E120E0B6943EA02220A61C26EC2F332
:1029400007420B6913430B61B0F86C20C2F30722F6
:102950000B695B1C4FEA83234365C3658765076684
:10296000C2F3801301F8193F4FEA82624FEA5262C4
:102970004A7010F86C2F4B7843EAD2134B7002F078
:102980007F028A7042684FEA12624FEAD213CB701C
:10299000C2F341130B71C2F382034B714FEA82728F
:1029A0004FEA12728A714268C2F307428B7943EA96
:1029B00092138B71C2F34013CB710E7202F00102BD
:1029C0004A728288C2F307224FEAD2138B72C2F393
:1029D0008013CB72C2F340130B73C2F300134B731B
:1029E000C2F381038B7302F00302CA7300794FEACA
:1029F000500008744D744FF00000F0BD426C0A6046
:102A0000826C4A60C26C8A60026DCA60426D0A6163
:102A1000826D4A61C26D8A61006EC8610020704794
:102A200038B50446002000906946204601F067F85A
:102A300010B1A16B0143A1630098C0F3432038BDDE
:102A400070B50446002C04D094F83400002510B171
:102A500005E0012070BD2577204600F047F80320EF
:102A600084F83400204600F007F8A56325630120B0
:102A700084F83400002070BD70B58AB0044600258B
:102A8000049505950695079508957620099000957B
:102A9000CDE901502B462A462946206800F0A2FBCA
:102AA000114E3560206800F0B2FB01253560022030
:102AB000FEF756FD204600F0C0FF38B184F83450D0
:102AC000A16B0143A16301200AB070BD204600F054
:102AD00043FF30B184F83450A16B0143A16301205E
:102AE000F2E70020F0E70000A080254270472DE9C2
:102AF000F04F87B004460D4693469A46109EFFF766
:102B0000F3FA80465DB194F8340001280DD0A06B33
:102B100040F00050A063012007B0BDE8F08FA06B2B
:102B200040F00060A0630120F6E70027A763E16D95
:102B30000BEB0A00884205D9A06B40F00070A0633F
:102B40000120E9E7032084F834002068C762606C44
:102B5000012801D04FEA4B2B4FF40071206800F0A0
:102B6000A5FB40F2FF59012148B12268C2F8389014
:102B7000A26B0243A26384F834100120CCE74FF02B
:102B8000FF3001904FEA4A200290902003900220EB
:102B9000049005970F46069101A9206800F002FBFA
:102BA000BAF1010F06D9022020635946206800F0CF
:102BB000DBFB04E027635946206800F0EEFB58B3C6
:102BC0002168C1F83890A16B0143A16384F8347087
:102BD0000120A1E7406B00040CD54FF0000B2068EA
:102BE00000F019FB45F82B000BF1010BBBF1080FAE
:102BF000F5D320352EB1FFF777FAA0EB0800B042ED
:102C00000AD32068C0F83890A06B40F00040A06361
:102C100084F8347003207FE72068416B40F22A3249
:102C20001142D7D02168496BC90512D5BAF1010FFD
:102C30000FD9616C03290CD000F056FC48B1216813
:102C4000C1F83890A16B0143A16384F8347001206E
:102C500062E72068416B090709D5C0F83890A06B7E
:102C600040F00800A06384F83470012054E7416B01
:102C7000890709D5C0F83890A06B40F00200A06326
:102C800084F83470012047E7416B89061ED5C0F8EF
:102C90003890A06B40F02000A06384F834700120CD
:102CA0003AE700F0B8FA01C52EB1FFF71DFAA0EB24
:102CB0000800B0420AD32068C0F83890A06B40F0FA
:102CC0000040A06384F83470012025E72068416B40
:102CD0008902E6D42068C0F8389084F83470002067
:102CE0001AE72DE9F04F87B004460E4615469A467E
:102CF000DDF840B0FFF7F8F900905EB194F83400C9
:102D000001280DD0A06B40F00050A063012007B057
:102D1000BDE8F08FA06B40F00060A0630120F6E7F3
:102D20000020A063E26D05EB0A01914205D9A06B7A
:102D300040F00070A0630120E9E7032184F834101B
:102D400021680020C862606C012800D06D024FF439
:102D50000071206800F0AAFA40F2FF584FF0010914
:102D600048B12168C1F83880A16B0143A16384F8A0
:102D700034900120CBE7BAF1010F07D9202020635E
:102D80002946206800F0CAFB074606E010202063B1
:102D90002946206800F0DBFB07464FB12068C0F8E9
:102DA0003880A06B3843A06384F834900120AEE7EC
:102DB0004FF0FF3001904FEA4A200290902003909C
:102DC000002004900590CDF8189001A9206800F02B
:102DD000E9F91FE0406B400409D5002506EB8501A9
:102DE000206800F02BFA6D1C082DF7D32036BBF1BC
:102DF000000F05D0FFF778F90099401A584509D31C
:102E00002068C0F83880A06B3843A06384F8349001
:102E100003207CE72068416B40F21A321142D9D07E
:102E20002168496BC90512D5BAF1010F0FD9616C40
:102E300003290CD000F058FB48B12168C1F8388054
:102E4000A16B0143A16384F8349001205FE72068FF
:102E5000416B090709D5C0F83880A06B40F0080025
:102E6000A06384F83490012051E7416B890709D5AC
:102E7000C0F83880A06B40F00200A06384F8349062
:102E8000012044E7416BC90609D5C0F83880A06B22
:102E900040F01000A06384F83490012037E7C0F8B8
:102EA000388084F83490002031E74FF0E021042886
:102EB00004D0086920F0040008617047086940F0F8
:102EC00004000861704710B5401EB0F1807F01D347
:102ED000012010BD4FF0E02460610F21601700F069
:102EE00051F90020A06107202061002010BD70B5BD
:102EF0000446002C04D094F83900002510B106E0F7
:102F0000012070BD84F83850204600F023F82420BA
:102F100084F839002068C16821F40051C16020465E
:102F200000F0EEFF2068016921F490410161206802
:102F3000416921F02A0141612068C16841F40051D2
:102F4000C160E563202084F8390084F83A0000204D
:102F500070BD000030B587B00446142102A8FDF70B
:102F600020FA18492068884229D11748016841F0A1
:102F700010010160006800F0100001901248143840
:102F8000016841F001010160006800F0010001905A
:102F90004FF400700290022003900120049003205F
:102FA000059007240694094D02A92846FEF7A6FFBE
:102FB00029150291069402A92846FEF79FFF07B043
:102FC00030BD0000001001404438024000000240C3
:102FD0002DE9F84304460D4691461E4694F8390003
:102FE000202802D00220BDE8F883B5B1B9F1000F66
:102FF00013D094F83800012811D0012084F838004B
:103000000027E763212084F83900FFF76DF8804638
:10301000A4F82490A4F826902DE00120E3E70220F4
:10302000E1E7E08C401EE084A068B0F5805F09D045
:103030004346002280212046009601F0EBF8B0B113
:103040000320D0E74346002280212046009601F06D
:10305000E1F808B10320C6E728882168C0F308001A
:103060004860206908B16D1C05E0AD1C03E02168D3
:1030700015F8010B4860E08C0028D2D143460022AD
:1030800040212046009601F0C5F808B10320AAE7C8
:1030900020203834607027700020A4E770B5064601
:1030A0000D46144604F054FF46F0010004F026FFDC
:1030B00004F072FF88B104F061FF012070BD012CA3
:1030C00003D104F0E3FE04F059FF04F0F3FE05F829
:1030D000010B641EA4B204F0BDFE002CEFD104F07D
:1030E0004DFF002070BD70B505460E46002400203F
:1030F00014E004EB440005EB80039978C90706D07F
:103100009A8815F820009968FFF7C8FF05E01A793A
:1031100015F82000996800F008F8641C08B9B4425A
:10312000E7D1002800D1204670BD2DE9F04180464E
:103130000E46154604F022FF00244FF47A7704F07F
:1031400007FF404604F0DAFE04F026FF18B1641CC5
:10315000A4B2BC42F3D3BC4206D00BE0307804F0FA
:10316000CDFE04F019FF20B104F008FF0120BDE8F6
:10317000F081761C6D1EEDB2F0D204F0FFFE00204F
:10318000F5E770470907090E002806DA00F00F007E
:1031900000F1E02080F8141D704700F1E02080F875
:1031A000001470470A6842624A688262D1E90223C9
:1031B0001A43D1E904310B431A43C16A21F0F701E4
:1031C0001143C162002070470069C0B270470068B7
:1031D00000F00300704708B50844143000900098D0
:1031E000006808BD0FB4DDE901121143DDE90323D6
:1031F0001A431143059A1143069A1143426847F650
:10320000FF639A430A434260002004B070470321E1
:10321000016000207047D0F8800070470A68826023
:10322000D1E901231A43D1E903310B431A43C168A1
:103230006FF30B011143C160002070470968C0F8AB
:1032400080100020704710B586B0044601913721E8
:10325000029140210391002104914FF48061059176
:1032600001A92046FFF7DAFF41F2883237212046D4
:1032700000F0A0F906B010BD10B586B004460A4AA9
:1032800011430191292102914021039100210491D0
:10329000510D059101A92046FFF7C0FF204600F01F
:1032A00043FA06B010BD00000000108010B586B0D3
:1032B00004460191102102914021039100210491C3
:1032C0004FF48061059101A92046FFF7A7FF41F265
:1032D00088321021204600F06DF906B010BD10B5FF
:1032E00086B00446019106210291402103910021FC
:1032F00004914FF48061059101A92046FFF78EFFEC
:1033000041F288320621204600F054F906B010BD83
:1033100010B586B0044600210191029103910491F9
:103320004FF48061059101A92046FFF777FF204601
:1033300000F026F906B010BD10B586B004464FF473
:10334000D57101910821029140210391002104913E
:103350004FF48061059101A92046FFF75FFF2046E9
:1033600000F04AFA06B010BD10B586B004460191CF
:103370001221029140210391002104914FF48061B8
:10338000059101A92046FFF749FF41F28832122139
:10339000204600F00FF906B010BD10B586B0044607
:1033A00001911121029140210391002104914FF4D8
:1033B0008061059101A92046FFF730FF41F2883274
:1033C0001121204600F0F6F806B010BD10B586B009
:1033D00004460192072102914021039100210491AA
:1033E0004FF48060059001A92046FFF717FF41F2D6
:1033F00088320721204600F0DDF806B010BD10B578
:1034000086B004460021019102220292C02203925A
:1034100004914FF48061059101A92046FFF7FEFE5B
:10342000204600F059F906B010BD10B586B004462C
:10343000019109210291C0210391002104914FF4CF
:103440008061059101A92046FFF7E8FE204600F0C3
:1034500043F906B010BD10B586B0044600210191B5
:10346000332202924022039204911101059101A995
:103470002046FFF7D3FE41F288323321204600F088
:1034800099F806B010BD10B586B0044601910D2123
:10349000029140210391002104914FF48061059134
:1034A00001A92046FFF7BAFE41F288320D212046DD
:1034B00000F080F806B010BD70B586B006460D4627
:1034C00000230193032402944024039404932301D2
:1034D000059301A93046FFF7A1FE2A460321304695
:1034E00000F044F906B070BD10B586B00446002166
:1034F00001910C2202924022039204911101059144
:1035000001A92046FFF78AFE034A0C21204600F05D
:1035100051F806B010BD000000E1F50510B586B009
:103520000446019119210291402103910021049147
:103530004FF48061059101A92046FFF76FFE41F22B
:1035400088321921204600F035F806B010BD10B5BC
:1035500086B0044601911821029140210391002177
:1035600004914FF48061059101A92046FFF756FEB2
:1035700041F288321821204600F01CF806B010BD38
:103580000B494FF4FA520968B1FBF2F141F288326B
:103590005143491E4A1C07D0426B1206F9D540F22E
:1035A000FF518163002070474FF0004070470000DA
:1035B0004081002010B5034645484FF4FA54006896
:1035C000B0FBF4F05043401E421C09D05A6B12F07D
:1035D000450FF8D0586B400705D50420986310BDFF
:1035E0004FF0004010BD586BC00702D00120986317
:1035F00010BD1846FFF7E8FD884201D0012010BD3C
:1036000040F2FF50986300211846FFF7E4FD31496E
:10361000084201D1002010BD002802DA4FF00070EE
:1036200010BD410001D5402010BD810001D5802092
:1036300010BDC10002D54FF4807010BD010102D54C
:103640004FF4007010BD410102D54FF4806010BDF1
:10365000C10102D54FF4006010BD010202D54FF444
:10366000805010BD410202D54FF4005010BD8102C0
:1036700002D54FF4804010BDC10202D54FF4004086
:1036800010BD410302D54FF4003010BD810302D5B7
:103690004FF4802010BDC10302D54FF4002010BDAF
:1036A000010402D54FF4801010BD410402D54FF43F
:1036B000001010BD810402D54FF4800010BD00073A
:1036C00002D54FF4000010BD4FF4803010BD000053
:1036D0004081002008E0FFFD12494FF4FA520968CA
:1036E000B1FBF2F141F288325143491E4A1C0AD023
:1036F000426B12F0450FF8D0416B490706D5042103
:103700008163042070474FF000407047416BC90748
:1037100003D0012181630120704740F2FF51816392
:1037200000207047408100200F494FF4FA52096889
:10373000B1FBF2F141F288325143491E4A1C0AD0D2
:10374000426B12F0450FF8D0416B490706D50421B2
:103750008163042070474FF00040704740F2FF51F2
:1037600081630020704700004081002010B50346AF
:1037700020484FF4FA540068B0FBF4F041F288346A
:103780006043401E441C09D05C6B14F0450FF8D018
:10379000586B400705D50420986310BD4FF00040DA
:1037A00010BD586BC00702D00120986310BD1846A9
:1037B000FFF70AFD884201D0012010BD40F2FF5002
:1037C000986300211846FFF706FD10F4604F04D0FF
:1037D000410406D54FF4005010BD000C10800020AD
:1037E00010BD000402D54FF4805010BD4FF480305E
:1037F00010BD00004081002010494FF4FA520968C2
:10380000B1FBF2F141F288325143491E4A1C0BD000
:10381000426B12F0450FF8D0416B4A074FF0400160
:1038200005D58163042070474FF000407047426B1C
:10383000520600D5816300207047000040810020BF
:103840002DE9F04F89B004460E46FEF74DFC0746C1
:103850000025AA46CDF804A0CDF808A008212068CC
:10386000FFF724FD00283ED1B4F850000104206881
:10387000FFF7E9FC002836D1401E03904FF00808FE
:10388000CDF81080302005904FF00209CDF8189047
:10389000CDF81CA00120089003A92068FFF782FC46
:1038A0002068FFF7D8FD00281DD10DF1040A40F271
:1038B0002A4B0CE0416B890204D5FFF7ACFC4AF8B7
:1038C00025006D1CFEF710FCC01B401C0ED02068AC
:1038D000416B11EA0B0FEDD02168496B090708D540
:1038E000C0F83880082009B0BDE8F08F4FF00040E4
:1038F000F9E7416B890703D5C0F838900220F2E759
:10390000416B890603D5202181632020EBE740F23B
:10391000FF51816301980199000601F47F4140EA5B
:103920000120019901F47F0140EA1120019940EA48
:103930001160706002980299000601F47F4140EA2C
:103940000120029901F47F0140EA1120029940EA26
:10395000116030600020C6E710B590B00446012029
:1039600004902068FFF733FC002863D0606C0328C4
:1039700019D02068FFF743FD002859D100212068A5
:10398000FFF729FC606704212068FFF724FCA0678B
:1039900008212068FFF71FFCE0670C212068FFF773
:1039A0001AFCC4F88000606C032805D004A92068C4
:1039B000FFF782FD00283BD1606C03281CD0BDF8C6
:1039C0001000206501042068FFF72FFD00282FD18B
:1039D00000212068FFF7FFFB606604212068FFF7E5
:1039E000FAFBA06608212068FFF7F5FBE0660C21D2
:1039F0002068FFF7F0FB206704212068FFF7EBFB4E
:103A0000000DE06405A92046FEF709FFB4F8500058
:103A1000002302042068FFF7D9FC002808D1D4E96C
:103A2000051220698DE807000FCCFFF7DBFB0020B3
:103A300010B010BD4FF08060FAE72DE9F84F044652
:103A400000270097BA4600252068FFF761FC002890
:103A500011D12068FFF770FC4FF080784FF6FF76A9
:103A600010B3A7644FF080591AE00098411C0091F0
:103A7000B04202D14046BDE8F88F00212068FFF730
:103A8000E2FB08B14846F6E700212068FFF7F4FBA7
:103A900008B14846EFE700212068FFF79CFBC50FFF
:103AA000002DE2D0676428E04FF00109C4F8489087
:103AB0001AE00098411C0091B04201D14046DAE77B
:103AC00000212068FFF7BFFB0028D4D14FF08041D0
:103AD0002068FFF7D1FB0028CDD100212068FFF737
:103AE0007AFB82464FEADA75002DE2D05FEA4A009F
:103AF00002D5C4F8449000E067640020BBE770B5CD
:103B000004460D46002D0ED0B4F850000104206884
:103B1000FFF7B9FC002805D100212068FFF75BFB07
:103B20002860002070BD4FF0006070BD1CB50446D9
:103B300000200090019000212068FFF74CFB8001DD
:103B400002D54FF400601CBD69462046FFF778FEA1
:103B50000028F8D10198C0030ED5B4F85000010434
:103B60002068FFF770FB0028EDD100212068FFF7E7
:103B7000B6FB0028E7D11CBD4FF080601CBD1CB512
:103B8000044600200090019000212068FFF723FBED
:103B9000800102D54FF400601CBD69462046FFF746
:103BA0004FFE0028F8D1019840030ED5B4F850001C
:103BB00001042068FFF747FB0028EDD102212068AF
:103BC000FFF78DFB0028E7D11CBD4FF080601CBDC6
:103BD00010B5064C01202070FCF7DAFE18B92078E9
:103BE00020F001002070207810BD000070800020BF
:103BF00010B588B0144613480078C00702D00320DF
:103C000008B010BD39B1012907D002290CD0032911
:103C100011D00420F4E70020F2E76846FCF7A6FE86
:103C2000069820600020EBE76846FCF79FFE0798A7
:103C300020800020E4E76846FCF798FE07982060A3
:103C40000020DDE77080002070B5084611461A4656
:103C50000125094C094BFCF76BFF18B107E0641E06
:103C6000601C06D0FCF788FE0028F8D10025284605
:103C700070BD012070BD0000A086010000E1F505C7
:103C800010B5064C01202070FCF776FE18B920789C
:103C900020F001002070207810BD0000708000200E
:103CA00070B5084611461A460125094C094BFCF728
:103CB0004FFF18B107E0641E601C06D0FCF75CFEE5
:103CC0000028F8D10025284670BD012070BD0000F5
:103CD000A086010000E1F50510B55020EFF3118436
:103CE00080F31188BFF34F8FBFF36F8FFEF702FA97
:103CF0000FF08CFB012801D00EF040FF84F31188F7
:103D000010BD000030B593B000252A48016841F08D
:103D100080510160006800F08050019026480168E1
:103D200041F480410160006800F48040019001206E
:103D30000290000403900224089480010990192045
:103D40000A904FF4A8700B900C9407200D9002A8D5
:103D5000FEF74CFB00B1FEE70F200E900F9410957C
:103D60004FF4A05011904FF48050129005210EA8EE
:103D7000FEF73EFA00B1FEE7FEF7DCFA4FF47A7187
:103D8000B0FBF1F0FFF79FF80420FFF78EF8002258
:103D90001146501EFEF7FAF9FEF7A0F941F20101B3
:103DA000884204D10548016841F48071016013B074
:103DB00030BD00004038024000700040003C02402E
:103DC0001048016841F4700101600F48016841F03A
:103DD000010101600C4A00210832116002680B4B9E
:103DE0001A400260031D0A4A1A60026822F4802207
:103DF000026005480C3001600249580680390860AD
:103E00007047000088ED00E000380240FFFFF6FE3A
:103E10001030002410B586B0002108460DF08EFA4F
:103E200020481F4901601F496FF07F40091D08604D
:103E3000091D1D4808601E4900221A4BCDE90021CA
:103E40001A48083302901A1F111F1A4806F0B6FCD0
:103E5000184806F0D7FE174C94F82D00400703D5FC
:103E6000204606F01FFF02E0124806F0D1FE60680F
:103E7000C0F30742C0F30723CDE90332010EC0B2FD
:103E8000059102900CA040F20521CDE90010124BE3
:103E900012A218A1032001F0E1FD06B010BD000040
:103EA000C0A8897A1C000010C0A88901D11401089B
:103EB000F96F0008948300206C6F63616C20697057
:103EC00020616464726573733A2025642E25642E24
:103ED00025642E2564000000C53801082E2E5C558F
:103EE0007365725C617263685C7379735F6172633E
:103EF000682E63006C7769702E7379730000000080
:103F00002DE9F04104462068016921F44052E1683E
:103F1000114301612068C26849F20C618A43236938
:103F2000A168E569194363692B4319431143C160D3
:103F30002068416921F44071A2690A434261E06945
:103F4000B24AB34964253226B0F5004F59D02068F3
:103F5000884201D090427DD1FEF702FA00EBC00109
:103F600001EB001061688900B0FBF1F7FEF7F8F98A
:103F700000EBC00101EB001061688900B0FBF1F0BB
:103F8000B0FBF5F06FF01801484307EB800006EB3B
:103F90000010B0FBF5F000F0F007FEF7E1F900EBE0
:103FA000C00101EB001061688900B0FBF1F0B0FBCB
:103FB000F5F007EB0017FEF7D3F900EBC00101EBBA
:103FC000001061688900B0FBF1F8FEF7C9F900EB59
:103FD000C00101EB001061688900B0FBF1F0B0FB9B
:103FE000F5F06FF01801484308EB800006EB001075
:103FF000B0FBF5F0216800F00F0038448860BDE8A0
:10400000F0812068884201D0904256D1FEF7A8F98D
:1040100000EBC00101EB001061684900B0FBF1F05A
:10402000B0FBF5F00701FEF79BF900EBC00101EBD7
:10403000001061684900B0FBF1F8FEF791F900EB60
:10404000C00101EB001061684900B0FBF1F0B0FB6A
:10405000F5F000E086E06FF01801484308EB8000BF
:1040600006EBC000B0FBF5F000F0F80007EB4007EE
:10407000FEF776F900EBC00101EB00106168490022
:10408000B0FBF1F8FEF76CF900EBC00101EB00109A
:1040900061684900B0FBF1F0B0FBF5F06FF018017A
:1040A000484308EB800006EBC000B0FBF5F0216848
:1040B00000F0070038448860A1E7FEF741F900EB03
:1040C000C00101EB001061684900B0FBF1F0B0FBEA
:1040D000F5F00701FEF734F900EBC00101EB001029
:1040E00061684900B0FBF1F8FEF72AF900EBC00166
:1040F00001EB001061684900B0FBF1F0B0FBF5F096
:104100006FF01801484308EB800006EBC000B0FBDD
:10411000F5F000F0F80007EB4007FEF711F900EBAF
:10412000C00101EB001061684900B0FBF1F8FEF737
:1041300007F900EBC00101EB001061684900B0FB1A
:10414000F1F0B0FBF5F06FF01801484308EB800088
:1041500006EBC000B0FBF5F0216800F00700384422
:1041600088604CE7FEF7ECF800EBC00101EB0010B3
:1041700061688900B0FBF1F7FEF7E2F800EBC001DF
:1041800001EB001061688900B0FBF1F0B0FBF5F0C5
:104190006FF01801484307EB800006EB0010B0FBFE
:1041A000F5F000F0F007FEF7CBF800EBC00101EBF3
:1041B000001061688900B0FBF1F0B0FBF5F007EB8F
:1041C0000017FEF7BDF800EBC00101EB00106168BD
:1041D0008900B0FBF1F8FEF7B3F800EBC00101EB8A
:1041E000001061688900B0FBF1F0B0FBF5F06FF0F2
:1041F0001801484308EB800006EB0010B0FBF5F017
:10420000216800F00F0038448860F8E6001401408F
:10421000001001402DE9F04104460E46174698462D
:10422000069D1DE0681C1BD02DB1FDF75DFFA0EBC6
:104230000800A84214D92068C16821F4D071C16077
:104240002068416921F001014161202084F8390092
:1042500084F83A00002084F838000320BDE8F0819B
:104260002068006836EA000004D00020B842D9D0A7
:104270000020F3E70120F9E730B587B00E48016868
:1042800041F040010160006800F0400001904FF4EF
:104290000074029401200390049002200590074DC1
:1042A00002A92846FDF72AFE002221462846FDF7EE
:1042B0000EFF07B030BD0000303802400018024049
:1042C0000FB41CB50246002007AC00290BD0491ED4
:1042D000CDE90021054B6A462146069800F004F915
:1042E000009A002111701CBC5DF814FB174C0008EB
:1042F0000FB4084B10B504A902AA039800F0F4F813
:10430000044602A9002000F091FC204610BC5DF894
:1043100014FB00002D4C00087CB5044600201D460F
:10432000164600290BD0491ECDE90041044B6A46D0
:104330002946304600F0D8F8009A002111707CBD63
:10434000174C000802E008C8121F08C1002AFAD161
:1043500070477047002001E001C1121F002AFBD105
:10436000704700002DE9FF5F82B00021DDE90430D5
:10437000020DDDF840B0034318D044F61050A2F20D
:10438000FF3242431514119801281FD0A5EB0B00F2
:10439000401C5FEA000A4FF000064E4FDFF83891EC
:1043A000B046504615D5CAF1000413E01198012417
:1043B0004AA3012801D16FEA0B010298119AC0E9C2
:1043C0000031C0E9024206B0BDE8F09FCBF1000029
:1043D000DFE704460021404A491842EB0450CDE98A
:1043E000001012E0E00707D032463B4640464946FF
:1043F000FCF7FFF88046894632463B461046194690
:10440000FCF7F7F806460F466410002CEAD1DDE908
:104410000401DDE90023BAF1000F06DAFCF7E9F840
:1044200042464B46FCF7E5F805E0FCF754F94246F6
:104430004B46FCF750F904460E460022284BFCF789
:10444000D1F903D84FF0FF30014607E00022254B99
:1044500020463146FCF726F8FCF7ACF9102409E0B9
:10446000002C0ADB0A220023FBF72CFF039B3032CF
:104470001A55641E50EA0102F2D1641C039AC4F179
:1044800011031444119A012A03D0012208430DD1CB
:104490000AE0084304D000204FF0110B119072E79E
:1044A000A3EB0B056D1E0DE05B4504DD4FF0000234
:1044B00005F1010504E003DA4FF00002A5F1010562
:1044C000002AECD002981199C0E90231C0E90045F8
:1044D00079E70000000014400000F03F30000000C9
:1044E0000000F0430000E03F2DE9FF4F95B09B46F0
:1044F0008946064600250FE2252877D10024274665
:10450000F84A0121059400E0044316F8013F203BDE
:1045100001FA03F01042F7D130782A2811D06FF059
:104520002F033078A0F13002092A16D8059A44F0FA
:10453000020402EB820203EB42021044761C059057
:10454000EFE759F8042B0592002A03DA504244F4AD
:104550000054059044F00204761C30782E2816D1C1
:1045600016F8010F44F004042A280DD06FF02F0232
:104570003078A0F13003092B09D807EB870302EB51
:104580004303C718761CF3E759F8047B761C307890
:104590006C280FD006DC4C2817D068280DD06A286C
:1045A00014D104E0742810D07A280FD10DE044F41F
:1045B00000140AE044F4801401E044F440147278DA
:1045C000824202D104F58014761C761C307866286D
:1045D0000BD013DC582877D009DC002875D045288B
:1045E000F6D04628F4D047281AD19DE118E0632878
:1045F00035D0642879D0652812D195E1702873D020
:1046000008DC6728F1D069286FD06E280DD06F289C
:1046100006D1B5E073282CD0752875D0782874D0D1
:104620005A46179990476D1C75E1C4F30250022851
:1046300009D003280DD0D9F8001004280DD00D6042
:1046400009F1040967E1D9F80010EA17C1E900523D
:10465000F6E7D9F800100D80F2E70D70F0E719F8D1
:10466000041B8DF8001000208DF80100EA4601209F
:1046700003E059F804AB4FF0FF3061074FF0000141
:1046800002D40DE008F101018846B9420FDA8045F5
:10469000F8DB1AF808100029F4D108E008F101014C
:1046A00088468142FADB1AF808100029F6D10598ED
:1046B0005B46A0EB080721463846179A00F094FAAB
:1046C000284400EB080507E04DE029E10DE01AF869
:1046D000010B5A4617999047B8F10108F7D25B468B
:1046E00021463846179A13E142E00A220092C4F3A9
:1046F00002524FF0000A022A08D059F804CB032ACC
:104700004FEAEC710AD00DE029E02AE009F1070137
:1047100021F00702F2E802C1914609E00FFA8CFC91
:104720004FEAEC71042A03D14FFA8CFC4FEAEC718A
:10473000002907DA0A460021DCF1000C61EB0201D6
:104740002D2202E0220504D52B228DF8042001221F
:1047500003E0E20701D02022F7E7904659E00A2162
:1047600002E010220DE010214FF0000A00910BE052
:1047700010224FF0000A44F004040827009203E0DE
:1047800008224FF0000A0092C4F30252022A05D018
:1047900059F804CB0021032A08D009E009F10701E8
:1047A00021F00702F2E802C1914605E01FFA8CFCF5
:1047B000042A01D10CF0FF0C4FF00008220728D585
:1047C000702806D0009B83F0100353EA0A0305D03B
:1047D0000EE040228DF80420012208E05CEA01028C
:1047E00006D030228DF804208DF805000222904674
:1047F000009B83F0080353EA0A030AD15CEA010232
:1048000001D1620705D530228DF804204FF0010850
:104810007F1E582804D034A003900EA802900DE00B
:1048200036A0F9E753466046009AFBF74BFD8446F5
:104830000398825C0298401E029002705CEA0100BC
:10484000F0D1029806A9081A00F1200A600702D5E3
:1048500024F4803400E00127574502DDA7EB0A006D
:1048600000E0002000EB0A01009005984144401A46
:104870000590E00306D45B462146179A059800F0A0
:10488000B3F90544002706E001A85A46C05D179910
:1048900090476D1C7F1C4745F6DBE0030CD55B465B
:1048A0002146179A059800F09FF9054404E030204E
:1048B0005A46179990476D1C0099481E0090002990
:1048C000F5DC08E0029802995A460078491C0291EA
:1048D000179990476D1CBAF10001AAF1010AF1DCA9
:1048E00065E10000092801003031323334353637B4
:1048F000383961626364656600000000303132332C
:1049000034353637383941424344454600000000CB
:1049100000F058F90544761C307800287FF4ECAD9F
:1049200019B02846BDE8F08F620700D4062709F1C8
:10493000070222F0070CFCE80223E14603F00048DE
:104940005FEA080C02D00FF2702C0DE05FEA045C05
:1049500002D50FF2682C07E05FEAC47C02D00FF2A8
:10496000602C01E0AFF2700C4FF0FF3823F00043F1
:10497000CDF850C065280CD006DC452809D0462863
:104980001DD047283DD13DE0662818D067287ED14C
:1049900038E00021112F01DB112000E0781CCDE967
:1049A000000106A90EA8FFF7DDFCDDE90F010E9A54
:1049B00003910021009207F1010A04914DE04FF0AC
:1049C00000400097CDE9011006A90EA8FFF7CAFC28
:1049D000DDE90F0203920E9B11990022DDF80CA075
:1049E0000093049211B9791C00EB010AB7EB0A009D
:1049F00004D4C0F1FF3007F1010A0490AAEB0700CC
:104A0000019044E0012F00DA01270021112F01DD80
:104A1000112000E03846CDE9000106A90EA8FFF7F5
:104A2000A1FCDDE90F010E9A03910021049100928F
:104A3000BA4621070CD40399514500DA8A46BAF1E7
:104A4000010F05DD009AAAF10101515C302908D05F
:104A5000B84202DA10F1040F06DA0121CDE90110A3
:104A600015E0AAF10101E9E7002805DC04990144F9
:104A70000491AAEB000102E0411C514500DD8A4689
:104A80000499401A401C01904FF00040029020070A
:104A900004D40198504501DBCDF8048000208DF846
:104AA0004F0002980DF14F07B0F1004F25D02B2099
:104AB0000E9002984FF0020800280CDA4042029053
:104AC0002D200E9007E00A210298FBF7B6FC30314A
:104AD000029007F8011DB8F10001A8F10108F2DC0D
:104AE00002980028EFD1791E0E980870307800F0F7
:104AF000200040F0450007F8020D12A8C01B00F18D
:104B000007081498007800B1012000EB0A01019811
:104B100001EBE07105984144401A401E0590E00306
:104B200006D45B462146179A059800F05DF80544C7
:104B30001498007818B15A46179990476D1CE003F5
:104B400024D55B462146179A059800F04DF8054498
:104B50001CE00498002807DBDDE90301884203DD3F
:104B60000098405C179901E0179930205A46904709
:104B7000049805F10105401C04900198401E019025
:104B800004D12E205A46179990476D1CBAF10001A6
:104B9000AAF1010ADDDC05E017F8010B5A46179966
:104BA00090476D1CB8F10001A8F10108F4DC5B46E8
:104BB0002146179A0598ABE62D0000002B00000057
:104BC000200000002DE9F041044600251E4617464E
:104BD000880404D405E039462020B0476D1C641ECB
:104BE000F9D52846BDE8F0812DE9F04104460025BD
:104BF0001E469046C80301D5302700E020278804D0
:104C000004D505E041463846B0476D1C641EF9D511
:104C10002846BDE8F0814A68002A06D00A68531C7D
:104C20000B6010704868401E486070470A68531C4B
:104C30000B6010707047000010B50446002084F827
:104C40000402401EC4F82C02204605F09BFD08B16A
:104C5000032010BD94F8FE0194F8FF1140EA0120F2
:104C6000A0F52A41553901D0022010BD14F8360FA5
:104C7000E178627840EA0161A078363C000440EABD
:104C8000022001430B48B0EB012F01D1002010BDE1
:104C900014F8521FE278637841EA0261A2781204A4
:104CA00042EA03221143B0EB012F01D1002010BDD5
:104CB000012010BD00464154FEB50646FBF774FACC
:104CC00004461A4D287890B119A000F040FA00F07F
:104CD000E7F9FBF763FA174FA0420FD1F86800F02D
:104CE00036FAD5E90201324600F0C4FD1AE0114A55
:104CF00011A1B23212A000F02AFAFEE7FBF751FA36
:104D0000A0420FD102F0D4FF0146B86800F01FFAAC
:104D10006A4601A902A802F0CDFFDDE90010324683
:104D200000F0A8FD304607F0CBF8FEBD588000200B
:104D300000000000BC390108696E69745F6F6B0088
:104D4000282573292068617320617373657274204C
:104D50006661696C65642061742025732E00000013
:104D60002DE9FE4F074689461646DFF8D8A0DAF847
:104D7000080002900024DAF80C000090A0469AF88F
:104D80000100002821D09AF80200A8B92E48012479
:104D9000816939604069401EDAF8101088420BD3EF
:104DA000DAF814201144814206D3B9F1010F03D976
:104DB000022478604FF001089AF8040088B16A462E
:104DC00002A901A802F076FF0BE0FBF7EDF905461A
:104DD000FBF7E7F9854204D16A4602A901A802F06F
:104DE00069FF9AF8020028B3029E23E03568281F65
:104DF000C0071ED06D1EDAF81000011D8D4218D3B9
:104E0000DAF814100844A84213D3202C11D2281F1A
:104E100000F032FA68B14C450BD2022C05D1B8F142
:104E2000000F02D07868A84203D02046641C47F8DF
:104E30002050361D009902980844B042D6D820462A
:104E4000BDE8FE8F58800020A80500102DE9F04134
:104E500090B006460C4600200F902022604907A81B
:104E6000FBF778FA5F4FB8680690F86805903878D5
:104E700040B1787868B15A4A5BA1163A5DA000F05B
:104E800066F9FEE7564A63A1163A5AA000F05FF9A8
:104E9000FEE74FF0010887F8018060A000F057F9A5
:104EA00000F0FEF8C6F3800038714D4DDC3DA0B136
:104EB00002F0FEFE10B102F0FBFE00E058A0AA6A6C
:104EC0000146104600F043F9FBF76BF9044605AACA
:104ED00006A90FA802F0EEFE02E0E86A00F037F93A
:104EE00004F12001304607F0B7FB0646A08B800591
:104EF00000D5361D069A964203D305981044B04259
:104F000007D2059831461318474800F020F987F872
:104F10000280DDE90510324600F0ACFC286B00F0A1
:104F200016F9424D27682F6060686860A168A96023
:104F3000E268EA6023692B6163696B61A369AB6115
:104F4000E369EB61DDE90943CDE90141CDE90332D4
:104F50000090DDE907133A4635A000F0F8F8AA6999
:104F6000E8690E990D9BCDE90132CDE9031068691E
:104F700000900C9B2A692EA00B9900F0E8F837A04E
:104F800000F0E5F84548006828624448001D0078B4
:104F900085F82400414810300068A8623F48401D51
:104FA000007885F82C003D481430006828633B48A1
:104FB000801D0088A886394808300068A8633748F3
:104FC0000C300088E863354818300088286402F007
:104FD00015FC304606F074FF10B0BDE8F08100000B
:104FE000983A010858800020216F6E5F6661756CE9
:104FF0007400000028257329206861732061737391
:10500000657274206661696C656420617420257323
:105010002E000000696E69745F6F6B000000000075
:105020004E4F5F4E414D4500244D0108A80500102C
:10503000202025733A2025303878202025733A2007
:1050400025303878202025733A20253038782020E4
:1050500025733A2025303878000000003D3D3D3D65
:105060003D3D3D3D3D3D3D3D3D3D3D3D3D3D3D3D70
:105070003D3D3D3D3D3D3D3D3D3D3D3D3D3D3D3D60
:105080003D3D3D3D3D3D3D3D3D3D3D3D3D3D3D3D50
:105090003D3D3D3D3D3D3D3D3D3D000024ED00E0BD
:1050A0000448054BA3F121024068A2F1210100F060
:1050B0004EB80000BC3901086604001070B50D46FA
:1050C0001446014620221248FBF788F91048202296
:1050D00029462130FBF782F90D4820222146423033
:1050E000FBF77CF90C4A0B4890600C49081AD06019
:1050F0000B4911610B4B591A516110B1012010700D
:1051000070BD09480068BDE8704000F020B800009C
:1051100024040010807F001058800020808300103D
:1051200000000008B8540108BC390108EFF30580FD
:10513000002802D0EFF308807047EFF31480800757
:1051400002D5EFF309807047EFF3088070470FB482
:1051500010B5ADF5816D0DF2144340F2FD342146DA
:1051600002A8DDF81024FFF7D7F8002301930028E8
:105170000EDBA04200D920460D2402AA411C145483
:105180000A240846491C1454535402A800F0CCFECB
:105190000DF5816D10BC5DF814FB00002DE9FE4398
:1051A00080460F460126022F00D902270DF076F81F
:1051B00000252AE005EB450008EBC004D4E9040112
:1051C000CDE900012289E368D4E900010EF0EEF890
:1051D0000646012E0CD060680FA16222CDE90021A5
:1051E0000290134B13A21BA1012000F037FC0EE02C
:1051F00060681BA16722CDE9002102900C4B0DA233
:1052000014A1032000F02AFC6D1CBD42D2D30DF086
:1052100093F83046BDE8FE8363726561746520745F
:1052200061736B206661696C65643A2025730000C8
:105230003B3801082E2E5C557365725C5461736BAC
:10524000735C7372635C7461736B735F696E6974B2
:105250002E6300007461736B735F696E6974000084
:10526000637265617465207461736B207375636329
:105270006573733A20257300018840881F22B2EBC2
:10528000D02F05D11E22B2EBD12F01D101207047C2
:105290004721B1EB102F01D101207047002070474A
:1052A00010B50021084A135C002B0AD101211154CA
:1052B000111802EB8000097A40680268084690479E
:1052C0000146084610BD0000CC83002030B4054BD9
:1052D0001C1803EB8000247A40680369204630BC28
:1052E00018470000CC83002030B4054C251804EB8F
:1052F00080002D7A406884682846A44630BC604708
:10530000CC83002004490A1801EB8000127A40681F
:105310004168104608470000CC83002030B4054C9B
:10532000251804EB80002D7A4068C4682846A446FE
:1053300030BC6047CC83002001460020002909D002
:10534000C97A491C022905D2034A52F821100029C2
:1053500000D0012070470000888000202DE9F05F18
:1053600007468B460025DFF8808007EB0710A8F57D
:10537000886AA9460AEB001405EB450658F8263062
:105380005BB108EB8600017AB94206D1426804F1AC
:1053900010005946984748F826906D1CEDB2042D30
:1053A000EAD300210425B9420CD001EB01100AEB2D
:1053B0000010827A022A05D1C07BE27B904201D1A3
:1053C000E57303E0491CC9B20429ECD3E07B04284F
:1053D00008D2064E56F820000CF016FCE07B46F88A
:1053E0002090E573BDE8F09F3C0A0010EC0500102A
:1053F00010B50024204600F005F8641CE4B2042C2B
:10540000F8D310BDFEB50546314905EB051001EB9B
:105410000014042D0CD336A140F21C42CDE900212A
:105420002CA00290334B34A23BA1012000F016FBCC
:10543000A07A002814D000260127012811D00228C4
:105440001CD003283CD02AA140F25B42CDE90021C8
:1054500033A00290274B28A22FA1012000F0FEFAD2
:10546000FEBD00F06DF820810220A072E672277365
:1054700066732846BDE8FE4000F08CB8207B401ED5
:1054800010F0FF002073EBD1607B401CC0B2607352
:10549000042805D020732846BDE8FE4000F07AB805
:1054A0002046FFF749FF28B1E07A401CE0722773DD
:1054B0006673F0E700212846FFF750FFA672FEBD95
:1054C000206810B1401E2060F9D1A672FEBD000018
:1054D000FC050010617272617920696E6465782044
:1054E0006F7574206F6620626F756E6473000000C4
:1054F00025730000B33B01082E2E5C4D6964646C7B
:105500006577617265735C4C7749505C636F726557
:105510005C646E732E6300006C776970000000009D
:10552000756E6B6E6F776E20646E735F7461626C04
:105530006520656E7472792073746174653A000039
:1055400010B50A4CFAF7F4FE80B2002101EB01120B
:1055500004EB0212937A022B02D112898242F1D01B
:10556000491CC9B20429F1D310BD0000FC0500108C
:1055700008B504A004F00EFA00906946002000F07F
:10558000D1F808BD3230382E36372E3232322E3234
:10559000323200002DE9F04F87B004464D4904EB4C
:1055A000041001EB0015E87A02280CD350A040F259
:1055B000FA22CDE9002048A102914E4B4EA256A1FD
:1055C000012000F04BFAE87A5549002651F82000F6
:1055D00048B305F110000446FAF70CFF123081B20F
:1055E0004FF42072362005F003FC82465FEA0A0081
:1055F0006CD0049605960696288904F00DFCADF84B
:10560000100001208DF812004FF4807BADF814B02B
:105610000C2204A9504606F019FA641E0C26641CDC
:10562000274600220BE000212046FFF797FEAE72CE
:10563000002007B0BDE8F08F521CD2B2641C207865
:105640002E2801D00028F7D1E01B1FFA80F906EBC5
:10565000020808F10108B8F5803F05D3504605F06F
:10566000CDFF6FF00500E4E73146504606F096F8AE
:10567000761CB3B24A463946504606F0B1FA1FFAD4
:1056800088F620780028CAD100223146504606F01C
:1056900085F8761CB3B2ADF80CB0ADF80EB00422AC
:1056A00003A9504606F09CFAE87B3523EA7A1C49A8
:1056B00001EB82020749103951F8200051460CF0E5
:1056C000F3FA0446504605F099FF01E04FF0FF342D
:1056D0002046AEE7FC050010646E73207365727699
:1056E0006572206F7574206F662061727261790037
:1056F00025730000AA3B01082E2E5C4D6964646C82
:105700006577617265735C4C7749505C636F726555
:105710005C646E732E6300006C776970000000009B
:1057200088800020022805D2054A02EB800011B1D2
:10573000096801607047034909680160704700000B
:10574000888000206C450108FFF752BE3EB5054633
:105750000C46A0070CD014A14FF4B672CDE900217D
:1057600009A00290114B12A219A1012000F076F9B4
:1057700006F0D2FFE96809682160E9680C60BDE8BD
:105780003E4006F0EEBF00006D656D705F667265AD
:10579000653A206D656D2070726F7065726C79204E
:1057A000616C69676E65640025730000513D0108F6
:1057B0002E2E5C4D6964646C6577617265735C4C18
:1057C0007749505C636F72655C6D656D702E630028
:1057D0006C776970000000003EB5044606F09CFF3F
:1057E0000546E0680468ACB121680160A0070CD0F0
:1057F00014A14FF48C72CDE9002109A00290124B44
:1058000012A21AA1012000F029F9284606F0A9FFEA
:1058100020463EBD284606F0A4FF00203EBD000005
:105820006D656D705F6D616C6C6F633A206D656D59
:10583000702070726F7065726C7920616C69676E30
:105840006564000025730000203D01082E2E5C4D8C
:105850006964646C6577617265735C4C7749505C10
:10586000636F72655C6D656D702E63006C77697037
:10587000000000002DE9F0410746144610251848A5
:10588000DFF860807E188278002A13D0007928B172
:105890002146D8F81800FFF75AFC04E02146D8F852
:1058A0001C00FFF754FCBC4201D23C4602E0A64279
:1058B00000D23446D8F81000FFF749FC06E0214634
:1058C00009A02268FFF743FC241D6D1EA64201D9E2
:1058D000002DF4D1BDE8F0410AA0FFF738BC00006C
:1058E00058800020BC3901082020616464723A208D
:1058F0002530387820202020646174613A202530DA
:10590000387800003D3D3D3D3D3D3D3D3D3D3D3D0B
:105910003D3D3D3D3D3D3D3D3D3D3D3D3D3D3D3DB7
:105920003D3D3D3D3D3D3D3D00000000F0B585B0B5
:105930000746002F07D11F484FF4F47203689BB14C
:105940001D491EA0984700240525214E96F8F00019
:10595000002818D000F040FA04EB4410811991F8A7
:105960005100012812D017E01348CDE9030219A312
:10597000CDE9002311A1029103461FA226A1002018
:1059800000F06CF8FEE7284605B0F0BD32311E226B
:105990003846FAF743FD38B1641CE4B2052CDBD37A
:1059A00000F044FA2846EFE704EB4410304490F846
:1059B0003150F5E7388000204639010874616720CE
:1059C000213D202828766F6964202A29302900008B
:1059D000DC0200102825732920686173206173732D
:1059E000657274206661696C65642061742025733A
:1059F0003A256C642E0000002E2E5C4C69625C45DA
:105A00006173794C6F676765725C7372635C656C18
:105A10006F672E6300000000656C6F670000000078
:105A200070B500200C4C94F8F010012912D000F051
:105A300043FA00280ED1012000F0E0F90025F034EF
:105A4000E5702571052000F0B5FA00F00DFB01208E
:105A50002070284670BD0000DC0200100FB42DE954
:105A6000F04F8DB005468B465846FAF7C3FC824688
:105A70000024A046CDF82C80CDF83080CDF81C80D5
:105A8000CDF82080CDF82480CDF82880052D08D9C8
:105A9000AB4840F246220368002B7DD0A949AAA05A
:105AA0009847B04F97F8F100002876D03878A84290
:105AB00073D35846FFF73AFFA8426ED3791C584675
:105AC000FAF77AFC002868D00DF17009CDF818902B
:105AD00000F082F90121284602F022F9A7F50076AC
