:020000040800F2
:1000000028DC012061020008BD310008550200080B
:10001000BB310008F91200084D370008000000004D
:100020000000000000000000000000009D0100082A
:100030003513000800000000F1010008DF3100085E
:100040007B0200087B0200087B0200087B0200089C
:100050007B0200087B020008D11500087B02000823
:100060007B0200087B0200087B0200087B0200087C
:100070007B0200087B0200087B0200087B0200086C
:100080007B0200087B0200087B0200087B0200085C
:100090007B0200087B0200087B0200087B0200084C
:1000A0007B0200087B0200087B0200087B0200083C
:1000B0007B0200087B0200087B0200087B0200082C
:1000C0007B0200087B0200087B0200087B0200081C
:1000D0007B020008353700087B0200087B0200081D
:1000E0007B0200087B0200087B0200087B020008FC
:1000F0007B0200087B0200087B0200087B020008EC
:100100007B0200087B0200087B0200087B020008DB
:100110007B0200087B0200087B0200087B020008CB
:100120007B0200087B0200087B0200087B020008BB
:100130007B020008AD1300087B0200087B02000868
:100140007B0200087B0200087B0200087B0200089B
:100150007B0200087B0200087B0200087B0200088B
:100160007B0200087B0200087B0200087B0200087B
:100170007B0200087B0200087B02000800000000F0
:100180007B0200087B020008DFF80CD000F0E6FDDF
:10019000004800474BA0000828DC01202A4B1968C2
:1001A0000868B0E8F04F80F30988BFF36F8F4FF015
:1001B000000080F3118870470000000006480068C6
:1001C000006880F3088862B661B6BFF34F8FBFF353
:1001D0006F8F00DF00BF00BF08ED00E0DFF80C000C
:1001E000016841F470010160704700BF88ED00E0D4
:1001F000EFF30980BFF36F8F134B1A681EF0100FD7
:1002000008BF20ED108A20E9F04F106008B44FF0CD
:10021000500080F31188BFF34F8FBFF36F8F13F03F
:1002200095FB4FF0000080F3118808BC196808683E
:10023000B0E8F04F1EF0100F08BFB0EC108A80F34A
:100240000988BFF36F8F7047AC010020EFF3058082
:10025000704700007046694604F07EFAFFF7FEFF23
:100260000648804706480047FEE7FEE7FEE7FEE750
:10027000FEE7FEE7FEE7FEE7FEE7FEE7C532000821
:10028000890100082DE9F05F0546002092469B4653
:1002900088460646814640241BE02846414647469C
:1002A000224600F060FB53465A46C01A914110D3D3
:1002B00011461846224600F047FB2D1A67EB01084D
:1002C0004F4622460120002100F03EFB17EB0009BB
:1002D0004E41201EA4F10104DFDC484631462A4687
:1002E0004346BDE8F09F0000004870477849010888
:1002F00010B50446FFF7F8FF0068005D00F001004C
:1003000010BDA0F14101192900D82030704700002C
:100310000649074A0868504343F23902104408600E
:10032000400870470149086070470000240200201F
:100330006D4EC64110B5431A934209D283188818EE
:1003400003E010F8011D03F8011D521EF9D210BD83
:1003500040EA01039B0703D009E008C9121F08C047
:10036000042AFAD203E011F8013B00F8013B521EC7
:10037000F9D210BDD2B201E000F8012B491EFBD228
:1003800070470022F6E710B513460A4604461946A0
:10039000FFF7F0FF204610BD10B5044604E00B78CF
:1003A00000F8013B03B1491C521EF8D2204610BD93
:1003B000421C10F8011B0029FBD1801A704710B5B0
:1003C000002200E0521C835C8C5CA34201D1002B14
:1003D000F8D1D8B2E1B2401A10BD30B504460020C1
:1003E000034600E05B1C934203D2E05CCD5C401B03
:1003F000F8D030BD034611F8012B00F8012B002A7C
:10040000F9D11846704700000FB400B58DB010A99F
:1004100009900B9000914FF0FF300A9000200C9053
:1004200005480690054807906A4609A80F9900F00C
:10043000B1FA0DB05DF814FBB1090008CF0900084E
:100440002DE9FF4F087883B09946FF2805D0491C55
:100450002D2804D00024002008E000200BE0012417
:10046000F9E700EB800003EB4000491C0B78FF2B01
:10047000F7D104B1404200230293147819461D4677
:100480002D2C01D02B2C04D1521C2D2C13D0002448
:100490000294AA461478FF2C0FD00A25A3FB0578F6
:1004A00001FB05814FF0000C03FB0C11521CE319FA
:1004B0004AEB0101EEE70124EAE7814453EA010037
:1004C00002D019F5C87F06DA03980021C0E90011AF
:1004D00007B0BDE8F08F0025AE4E2F46DFF8B8829A
:1004E000184600F0FBFBCDE90001B9F1000002DA8B
:1004F000C9F1000400E004460023A74A1AEB030BED
:1005000042EB045A12E0E00707D02A463346384649
:10051000414600F071FB074688462A46334610469E
:10052000194600F069FB05460E466410002CEAD11E
:10053000DDE90001B9F1000F5A46534606DA00F032
:100540002FF93A46434600F02BF905E000F054FB42
:100550003A46434600F050FB029A0AB181F000414E
:10056000039AC2E90001B3E72DE9FF4F1F468DB0A2
:10057000D7E901464FF0FF382E2045464FF00009DD
:100580000B90B9696D1C0E988847396A8246884776
:100590000028F6D1BAF1FF3F0AD024F4D064002E2F
:1005A00011DDBAF12B0F08D0BAF12D0F0BD102E0FB
:1005B000404611B08DE744F48064B9696D1C0E9813
:1005C00088478246761E6946600501D52D2000E0E9
:1005D0002B208DF8000001F1010B0DF1200809E03E
:1005E000B9696D1C0E98884782460F9844F40074D0
:1005F000761E0560002E02DDBAF1300FF0D00B99A7
:100600008A453ED144F0800406E00F99681CA9F1A8
:10061000010944F400740860B9696D1C761E0E98D7
:10062000884782463028F0D02BE00B998A4505D1C7
:10063000200603D444F08004761E18E0504603F0F0
:1006400053FA08B30DF11301761E44F400748B4580
:1006500008D2AAF130000BF8010B200607D5A9F14A
:10066000010003E0200602D409F101008146A00543
:1006700002D50F99681C0860B9696D1C0E988847EF
:100680008246002ED1DC53E0002E51DDBAF1650F19
:1006900002D0BAF1450F4BD1A00549D5B9696D1CFF
:1006A00024F44074761E0E9888478246002E0CDD96
:1006B0002B2804D0BAF12D0F07D144F48074B96906
:1006C0006D1C0E9888478246761EE00501D52D21C7
:1006D00000E02B2108F8011BCDF82C8021E00DF162
:1006E0002901761E44F4007488450CD2AAF130002A
:1006F00010F0FF0088F8000002D10B99884509D955
:1007000008F1010806E0E00501D5244801E042F2C5
:100710000F708146B9696D1C0E98884782460F9804
:100720000560002E04DD504603F0DEF90028D6D126
:10073000F9690E988847FF208BF8000088F80000C0
:100740000020069007904B466A4608A906A8FFF7C6
:1007500077FEA00502D46FF001002AE714F0240F01
:100760000AD0E00714D1DDE906123868031D3B60AA
:100770000068C0E900120BE0DDE9060100F0D2FAE2
:100780000146E00704D13868021D3A600068016044
:1007900028460EE7000014400000F03FF1D8FFFFAC
:1007A0002DE9F04D81EA030404F0004B21F00045EF
:1007B00014464FF0000A23F0004150EA050220D011
:1007C00054EA01021DD0C5F30A570246C5F31303CC
:1007D000C1F31300C1F30A5640F4801543F48013AB
:1007E000A7EB0608101BD64608F2FD3873EB050090
:1007F00002D308F1010801E092185B41B8F1000F43
:1008000003DA00200146BDE8F08D00204FF480118E
:10081000064684460EE0171B73EB050705D3121B33
:1008200063EB050306434CEA010C49084FEA30002C
:1008300092185B4150EA0107EDD152EA030012D051
:1008400082EA040083EA0501084305D0101BAB418E
:1008500006D20122002306E000224FF0004302E00E
:100860006FF0010253101AEB06004CEB085110EB2D
:100870000A0041EB0B01BDE8F04D00F0B9B870B5CE
:10088000C1F30A5201F000450024C1F3130140F204
:10089000FF3341F480119A4201DA002070BD40F22A
:1008A00033439A42A2F2334203DC524200F05BF837
:1008B00000E090402C43F1D0404270BD30B5041EA2
:1008C00071F1000404DB4FF00044404264EB01018D
:1008D000141E73F1000405DB1C464FF00043524226
:1008E00063EB04038B4208BF824230BD30B5041E67
:1008F00071F1000404DB4FF00044404264EB01015D
:10090000141E73F1000405DB1C464FF000435242F5
:1009100063EB0403994208BF904230BD30B50B46EB
:10092000014600202022012409E021FA02F59D421F
:1009300005D303FA02F5491B04FA02F52844151EF3
:10094000A2F10102F1DC30BD202A04DB203A00FADA
:1009500002F1002070479140C2F1200320FA03F316
:10096000194390407047202A04DB203A21FA02F014
:100970000021704721FA02F3D040C2F120029140D9
:10098000084319467047000002681144137801605B
:1009900018467047D1600449516104491162002131
:1009A0001161114600F0FEB989090008F102000842
:1009B000426842B1016811F8013B23B1521EC0E9FF
:1009C0000012184670470121C160881E70474268B6
:1009D0005AB1C368016843B983688B4205D0491E88
:1009E000521CC0E90012002070474FF0FF307047E2
:1009F00010B5141E73F1000408DA401C41F1000127
:100A000092185B411A4301D120F0010010BD2DE97D
:100A1000F04D92469B4611B1B1FA81F202E0B0FA74
:100A200080F220329046FFF78FFF04460F4640EADF
:100A30000A0041EA0B0153465A46084313D01146B7
:100A400053EA010019D0C8F140025046FFF78BFF6E
:100A500005460E46504659464246FFF775FF084385
:100A600005D0012004E020463946BDE8F08D002085
:100A7000054346EAE0762C4337430A986305E40AC7
:100A8000A0EB08000022FD0A44EA47540A3002D5D0
:100A900000200146E9E7010510196941DDE9084533
:100AA00000196941BDE8F04DA2E72DE9FE4F8046EF
:100AB00081EA0300C00F0C46009021F0004123F0B2
:100AC0000045B8EB0200A94105D2404621469046B8
:100AD0001C460B46024623F00040104347D0270D2A
:100AE000C7F30A00C3F30A510290401A019040284C
:100AF0006BDAC3F3130040F4801B0098924620B1D8
:100B00000023D2EB030A63EB0B0B01985946C0F1AB
:100B100040025046FFF718FF06460D46504659461C
:100B2000019A00F02DF910EB08006141002487EADA
:100B3000115284EAE7731A4340D0009A62B3019AD3
:100B4000012A4FEA075215DC001B61EB02014FF04E
:100B5000004202EA0752CDE90042001C41F5801133
:100B600032462B46FFF753FF03B0BDE8F08F4046F7
:100B70002146F9E7001B61EB0201001C41F58013DF
:100B800000185B412018A2F5001747EB030140EA6B
:100B9000D570B6196D4111E06D084FEA360645EA89
:100BA000C0754FEA0752001B61EB0201001C41F5C2
:100BB000801149084FEA30000019514132462B4656
:100BC00003B0BDE8F04FFFF713BF009801224000CB
:100BD0000023D0EB020263EBE073009821464FEA5A
:100BE000E074B8EB000061EB0401E9E783F0004337
:100BF0005BE781F0004158E72DE9FE4F81EA0304ED
:100C000004F0004421F0004100944FF0000B23F069
:100C1000004350EA01045ED052EA03045BD0C3F300
:100C20000A54C1F30A552C44A4F2F3340194A0FBF6
:100C30000254C1F3130141F48011C3F3130343F4CD
:100C4000801301FB024400FB034E840A970A44EA26
:100C5000815447EA8357A4FB076802958D0A05FB78
:100C600007854FEA932C04FB0C542705029D4FEA9D
:100C7000065847EA1637B5EB08056EEB070C870EEA
:100C8000920E47EA811742EA8312A7FB0201B6EBF4
:100C90000B0164EB00042B0D43EA0C335E1844EBAC
:100CA0001C50DA465146E7FB0201C5F313044FEA34
:100CB0000B3343EA14534FEA0432019C43EA060320
:100CC000A4F10C040294009CCDE900B4FFF79FFE50
:100CD00003B0BDE8F08F00200146F9E70EB540F201
:100CE000334202920022CDE900221346FFF78FFE25
:100CF00003B000BDC1F30A52C1F3130140F2FF3348
:100D000041F480119A4202DA00200146704740F215
:100D100033439A42A2F2334202DC5242FFF723BE2F
:100D2000FFF712BE01F0004330B421F0004150EA59
:100D3000010206D00A0DA2F56072C1F31301002A68
:100D400002DC30BC00207047440F44EAC104C100FB
:100D5000E01830BC00EBC25000F0BAB9064C074DA9
:100D600006E0E06840F0010394E80700984710347B
:100D7000AC42F6D3FFF70CFAB8530108D853010878
:100D8000202A06DBCB17203A41FA02F043EAE0734F
:100D900006E041FA02F3D040C2F12002914008433C
:100DA000194670472DE9F34F8BB04FF0000801F161
:100DB0000C000C464FF0010B46460DF1080A01905D
:100DC0006269012101989047051E2DD0252D2CD058
:100DD000216A8847C0B16269012101989047216A60
:100DE00088470028F7D1411E62690198904700E0CA
:100DF000761CA1690B988847216A88470028F7D19B
:100E0000E1690B988847DBE7A1690B98884707469B
:100E1000A84201D1761CD3E7E1690B9888477F1C73
:100E200002D1B8F1000F6FD046E1002762693D465C
:100E30003946019890472A2804D162690121019816
:100E400090470125DFF8849262690121019890475B
:100E5000A0F130010A290AD24F45E5DC07EB8701F2
:100E600000EB4107303FDFD445F01005ECE7E90621
:100E700001D46FF000476C280AD04C2814D06828A1
:100E800015D06A280DD074281CD07A281AD01DE0FD
:100E900062690121019890476C2802D045F0040551
:100EA00014E045F002050DE045F020050AE0626916
:100EB000012101989047682802D045F0080505E017
:100EC00045F400656269012101989047C4E9015722
:100ED00065283DD019DC58287AD00CDC452837D05D
:100EE00004DC252826D0412831D131E046282FD0F6
:100EF00047282CD12CE05B2877D0612828D06328A4
:100F00007CD0642823D15AE0D0E06F2848D008DC98
:100F100066281DD067281BD0692821D06E2816D1DD
:100F200027E0702845D0732868D0752847D07828E6
:100F30000DD14DE0A1690B988847054625283FF45F
:100F400069AFE1690B9888476D1C3FF46AAFB3E065
:100F500023466A466FF001000B99FFF705FB9EE000
:100F600045F040006060A80723464FF0000236D4E9
:100F70003EE0E8077FF447AF2068011D216000686C
:100F8000290501D506701BE7290701D5068017E75B
:100F9000A90703D5F117C0E9006111E706600FE763
:100FA00045F040006060A80723464FF0080216D4C1
:100FB0001EE040F60E0125EA0100606016E045F0F3
:100FC00040006060A80723464FF00A0207D40FE0F4
:100FD00045F040006060A80708D5234610226FF056
:100FE00001000B99AFF3008059E007E0234610227F
:100FF0006FF001000B99AFF3008050E04FF0000953
:101000004F464B46632802D05B2806D040E0E806F6
:1010100001D40120A06001273AE062690121019812
:1010200090475E2805D14FF0010962694946019851
:101030009047216939B900210A46534643F82120D7
:10104000491C0829FADBB0B3216969B9C11700EB63
:10105000D16253110AEB830122F01F02821A012090
:101060000B68904003430B6062690121019890472F
:101070005D28E8D1B9F1000F09D00020514651F8A0
:101080002020D24341F82020401C0828F7DB02AB87
:10109000224600976FF001000B99AFF30080002803
:1010A0000CDA401C08D1BBF1000F05D04FF0FF3027
:1010B0000DB0BDE8F08FFFE74046F9E7E90701D141
:1010C00008F1010806444FF0000B79E6CCCCCC0CBB
:1010D0000029A8BF7047401C490008BF20F001004C
:1010E000704710B4B0FA80FC00FA0CF050EA01042A
:1010F00004BF10BC704749B1CCF1200421FA04F4BC
:1011000011FA0CF118BF012121430843A3EB0C0194
:10111000CB1D4FEA00614FEA102042BF002010BCF7
:10112000704700EBC35010440029A4BF10BC7047A7
:10113000401C490008BF20F0010010BC704770B58A
:101140008C1810F8015B15F0070301D110F8013B72
:101150002A1106D110F8012B03E010F8016B01F8F9
:10116000016B5B1EF9D12B0705D40023521E0DD451
:1011700001F8013BFAE710F8013BCB1A921C03E09F
:1011800013F8015B01F8015B521EF9D5A142D8D3D7
:10119000002070BD10B501F04BF800F047FA02F0E6
:1011A00033F801F07DFC00F0A9F805A206A108A023
:1011B00003F004FCBDE8104008A002F09FBB000053
:1011C00056302E312E30000056312E302E30000099
:1011D0004A49454A49452D46343037002D2D2D2D9D
:1011E0002D2D2D2D2D2D2D204C7769702064656DB2
:1011F0006F202D2D2D2D2D2D2D2D2D2D2D2D0A003A
:101200001CB5244800F0D6FA00F0E4F92248016841
:1012100041F00101016002208DF8000000218DF8ED
:1012200001108DF802108DF803108DF804108DF860
:1012300005101848194A0260012242600182C0F874
:1012400014D08261C161D105016249128160C91067
:10125000C16000F053FB0446A4B111A002F04EFBA4
:1012600013A002F04BFB0823184A1949094800F063
:1012700064FA184A0823A2F50071064800F026FA1D
:1012800020461CBD06A002F039FB13A002F036FB7D
:10129000E9E700006C02002000900240008002405C
:1012A0000D0A5B44454255475D203E3E200000004C
:1012B00065746820686172647761726520696E691F
:1012C00074206661696C642E2E2E0A00543400204E
:1012D000B4030020B404002065746820686172645F
:1012E0007761726520696E697420737563657373C5
:1012F0002E2E2E0A00000000FEE7000010B50C4C58
:101300000A4820604FF4E13060600020A060E06097
:101310002061A0610C206061204601F0E7FA20689E
:10132000C16841F02001C16010BD00000010014003
:101330002C0200207047006800F58050816941F060
:10134000020181617047006800F58050816941F4B5
:10135000005181617047000008B507494FF4FA5207
:101360000968B1FBF2F14143009100BF0098411EB2
:101370000091FAD208BD00002002002038B50446D2
:10138000206800F58050816941F4801181612068F6
:1013900000F58050806900900120FFF7DDFF206894
:1013A000009900F58050816138BD000010B55020D3
:1013B000EFF3118480F31188BFF34F8FBFF36F8F6A
:1013C000024800F05AFA84F3118810BD6C02002024
:1013D0001079537940EA03230748084403641178DD
:1013E000D37841EA0361937852781B0443EA0222DE
:1013F0001143416470470000008002402DE9F04134
:10140000AEB00446002904D04FF40060E060C00094
:10141000A0600025119512951395149515951695B4
:10142000E06900287DD017954FF400701890199549
:101430001A951B951C951D9540271E971F95209565
:1014400021952295239524952595269580262796E6
:10145000289529952A952B952C952D95206802681D
:1014600045490A40D4E902131943179B194341F433
:101470000071114301602068D0F80080012000F065
:1014800013F92068C0F8008020684760206847682A
:10149000012000F009F92068476020688560206815
:1014A000C560206881694FF64172114041F08001AA
:1014B000816120688769012000F0F6F82068876163
:1014C0002068C5612068C769012000F0EDF8206838
:1014D000C7610195B004029003950111049105952F
:1014E000069507950895042109910A9040120B90E2
:1014F00080010C9040120D900E960F95109520686B
:1015000000F5805081691D4A11401D4A0A438261DD
:10151000206800F580508569012000F0C5F820683A
:1015200000E016E000F5805085612068154900F55F
:1015300080500160206800F580500568012000F0AF
:10154000B3F8206800F580500560A069012804D038
:101550000AE04FF48060179066E7206800F580503D
:10156000C169094A1143C16162692EB02046BDE8D4
:10157000F0410021FFF72CBF0F8120FF233FDEF851
:10158000040020028020C1024000010038B504465A
:101590002068016841F00401016020680068009043
:1015A0000120FFF7D9FE21680098086038BD38B5E2
:1015B00004462068016841F0080101602068006865
:1015C00000900120FFF7C8FE21680098086038BD30
:1015D0007047000010B586B01248016841F4807170
:1015E0000160006800F48070009001200290039078
:1015F0000220049001900C4C01A9204600F01AFD35
:1016000000220221204600F0F7FD052000F04CF8F2
:1016100001220221204600F0EFFD052000F044F8F1
:1016200006B010BD303802400020024008B519480D
:10163000016841F080010160016801F080010091C2
:10164000016841F004010160016801F004010091AA
:10165000016841F001010160016801F001010091A0
:10166000016841F002010160016801F0020100918E
:10167000016841F040010160016801F04001009102
:10168000016841F480710160006800F4807000908E
:1016900008BD00003038024002490888421C0A8018
:1016A000704700005C00002070B5044600F0B2FDF9
:1016B0000546601C02D004480078044400F0AAFDEE
:1016C000401BA042FAD370BD14020020F0B50024E4
:1016D00090F84550012D09D0012780F8457002256A
:1016E00080F84450816244F2F45C19E00220F0BDBD
:1016F00001EB44154FF000462E60C5F804C0C4EB62
:10170000C41606EB460602EB8606AE6086695E1ED0
:10171000B44203D205F12006EE6000E0E960641CEB
:101720009C42E5D3026802F58052D16080F8447093
:10173000002180F845100020F0BD2DE9F043002580
:1017400090F84540012C0BD04FF0010C80F845C0BB
:10175000022480F84440C1624FF480185F1E1CE0F0
:101760000220BDE8F08301EB4514C4F80080C5EB0E
:10177000C51606EB460602EB8606A660C66926B9C4
:10178000266846F44009C4F80090BD4203D204F133
:101790002006E66000E0E1606D1C9D42E3D3026834
:1017A00002F58052116180F844C0002180F8451094
:1017B0000020D6E710B50446022084F844002046F5
:1017C00000F0B8F9002004F8440F607010BD00006C
:1017D00010B504A002F092F8BDE8104004A002F099
:1017E0008DB800000D0A5B4552525D203E3E200040
:1017F000657468206572720A0000000010B590F8E8
:101800004510012913D0012380F84530022180F8CA
:101810004410816A0A680024002A29DB0A68D2057C
:1018200018D5826B521C8263012A02D002E002208A
:1018300010BD01632830C1600A68C2F30D42121F57
:101840004261826892688261C96801600377447767
:10185000002010BD0A68920505D5016344638363C7
:10186000C968816204E0826B521C8263C96881622C
:1018700000F8443F4470012010BD70B50446206854
:1018800000F5805041694FF0000649064FF0010510
:101890000CD5204600F026FA2068402100F5805043
:1018A000416184F8445084F845600DE04069C00708
:1018B0000AD0204600F0E1FA206800F5805045612A
:1018C00084F8445084F8456020684FF4803100F576
:1018D00080504161206800F58050406900040CD5BB
:1018E0002046FFF775FF20684FF4004100F5805057
:1018F000416184F8445084F8456070BD2DE9FC478F
:1019000004464FF00008CDF80480C146002C03D0F7
:1019100094F8440018B107E00120BDE8FC8784F882
:101920004580204600F038F97848016841F480414C
:101930000160006800F4804000907548016821F45F
:10194000000101600168226A11430160206800F50E
:101950008050016841F00101016000F05BFC054628
:101960004FF4FA760AE000F055FC401BB04205D96E
:10197000032084F8440084F84580CEE7206800F511
:1019800080500068C007EED12068006920F01C0577
:1019900000F066FD5F49604A0144914202D245F081
:1019A000080516E05D495E4A0144914202D245F0C5
:1019B0000C050EE05B495C4A0144914209D35B4946
:1019C00008445B49884202D245F0040501E045F035
:1019D0001005206805614FF400420021204600F008
:1019E0004DFA012538B101212046FFF707FD84F8A3
:1019F0004450012091E70520FFF756FE6068E0B3F0
:101A000000F008FC074641F2883601AA0121204671
:101A100000F026F900F0FEFBC01BB04209D90121FD
:101A20002046FFF7EBFC84F8445084F845800320FF
:101A300073E701984007E8D54FF480520021204613
:101A400000F01CFA38B101212046FFF7D7FC84F8DA
:101A50004450012061E700F0DDFB074601AA0121A7
:101A6000204600F0FDF800F0D5FBC01BB0420BD9BA
:101A700001212046FFF7C2FC00E028E084F8445032
:101A800084F84580032048E701988006E6D501AA3E
:101A90001F21204600F0E4F838B101212046FFF76D
:101AA000ADFC84F84450012037E70198C10603D506
:101AB0004FF40061E16001E0C4F80C80400702D5FA
:101AC000C4F808801AE04FF48040A06016E0E06897
:101AD0000021C0F3CF02A068C0F34F0002432046AC
:101AE00000F0CCF938B101212046FFF787FC84F8DB
:101AF0004450012011E70520FFF7D6FD4946204656
:101B0000FFF77CFC84F84450002006E7443802408C
:101B10000438014000D3CEFEC0E1E40040F1E9FD0D
:101B200040787D0100796CFC005A6202001F0AFABD
:101B300080F0FA0210B500681249884221D112489B
:101B4000016821F080610160016821F0006101609D
:101B5000016821F00071016032210C4800F0CCF9DD
:101B600086210B4800F0C8F90A4C4FF4006120466A
:101B700000F0C2F92046BDE810404FF4C04100F02B
:101B8000BBB910BD0080024030380240000802405E
:101B900000000240001802402DE9F04186B00068C4
:101BA0002A4988424ED13220019002240294002515
:101BB0000395032604960B27059701A9244800F0F6
:101BC00039FA86200190029403950496059701A99D
:101BD000204800F02FFAA002019002940395049689
:101BE0000597DFF8748001A9404600F023FA7003DE
:101BF0000190029403950496059701A9404600F0D0
:101C000019FA002206213D2000F056FB3D2000F08D
:101C100048FB1248016841F000710160016801F061
:101C200000710091016841F080610160016801F07C
:101C300080610091016841F000610160006800F07E
:101C40000060009006B0BDE8F08100000080024016
:101C500000080240000002400018024030380240F4
:101C60002DE9F0470446914694F8440082281DD09F
:101C7000822084F844002068026902F01C03228A52
:101C80004FF6FF7505EAC2221A434FF4F86303EAE0
:101C90008111114321F0020141F00105056100F0BD
:101CA000B9FA064601274FF480380FE00220BDE85C
:101CB000F08700F0AFFA801B404505D304F8447F5D
:101CC000002060700320F2E720680569E807F0D182
:101CD0002068406980B2C9F8000084F84470002090
:101CE000E5E7000008B50C48016881F0800101605B
:101CF0000020009009486946006812F0CBF900986E
:101D0000002807D006494FF080500860BFF34F8F7E
:101D1000BFF36F8F08BD000014140240840100203F
:101D200004ED00E070B5044694F84500012819D090
:101D3000012584F84550022084F844002046FFF72E
:101D400036FC2046FFF722FC2046FFF717FB204613
:101D5000FFF7F9FA2046FFF7EEFA04F8445F002097
:101D6000607070BD022070BDF0B5002390F8452072
:101D7000012A11D0012780F84570022280F8442002
:101D8000002659B1C46A2268002A0CDA122100F830
:101D9000441F46700120F0BD0220F0BD00F8447FD2
:101DA00046700120F0BD40F2F455A9420AD9B1FBBA
:101DB000F5F2B1FBF5FC05FB1C1CBCF1000F02D0D9
:101DC000521C00E00122012A44D1226842F0405214
:101DD0002260C26AC1F30C015160C16A0A6842F014
:101DE00000420A60C16AC968C16235E0C46AD4F8B9
:101DF00000C02CF0405CC4F800C033B9C46AD4F809
:101E000000C04CF0805CC4F800C0C46A6560541E19
:101E1000A34214D1C46AD4F800C04CF0005CC4F8EA
:101E200000C0C2F10104C4EBC41404EB440401EB90
:101E30008404D0F82CC0C4F30C04CCF80440C46A69
:101E4000D4F800C04CF0004CC4F800C0C46AE46888
:101E5000C4625B1C9342C9D3016801F580514A6991
:101E6000520705D504224A61016801F580514E6090
:101E700000F8447F46700020F0BD70472DE9F04126
:101E8000044694F84400422820D0422084F84400BC
:101E90002068036903F01C03258A4FF6FF7606EAE3
:101EA000C5251D434FF4F86303EA8111294341F02E
:101EB000020141F0010591B241612068056100F025
:101EC000A9F9064601274FF480380FE00220BDE84B
:101ED000F08100F09FF9801B404505D304F8447F52
:101EE000002060700320F2E720680569E807F0D160
:101EF00084F84470EBE700002DE9F04F0023DFF891
:101F00000C814FF0010C0F270CFA03F201EA0204D6
:101F1000944275D106684FEA4309032505FA09F58D
:101F2000AE430660DE0800EB8609D9F820A05E0704
:101F30004FEAD66B07FA0BFB2AEA0B0A3E46C9F8B2
:101F400020A0D0F8089029EA0509C0F80890D0F838
:101F5000049029EA0209C0F80490C268AA43C2604A
:101F600023F0030202EB0805D5F808284FEA83792D
:101F70004FEA197906FA09F606EA020A244A90425B
:101F800001D1002223E0234A904201D101221EE028
:101F9000214A904201D1022219E0204A904201D107
:101FA000032214E01E4A904201D104220FE01D4A90
:101FB000904201D105220AE01B4A904201D106223B
:101FC00005E01A4A904201D1072200E0082202FAF5
:101FD00009F2524514D1D5F80828B243C5F80828AB
:101FE000134A1568A5431560121D1568A5431560B1
:101FF000121D1568A5431560121D1568A5431560CF
:102000005B1C102B80D3BDE8F08F00000030014036
:10201000000002400004024000080240000C0240A0
:10202000001002400014024000180240001C024050
:10203000003C01402DE9F84F0022DFF89091DFF8D5
:102040008C8109F108094FF0010E4FF00F0C09F1D6
:10205000040A0EFA02F60B683340B34271D14C68A1
:10206000022C01D0122C11D1D40800EB84073D6A58
:102070005407E40E0CFA04FB25EA0B05D1F810B066
:102080000BFA04FB4BEA050BC7F820B007685400B5
:102090000325A540AF4391F804B00BF0030B0BFAF6
:1020A00004FB4BEA070BC0F800B04F68012F05D0C6
:1020B000022F03D0112F01D0122F11D18768AF4307
:1020C000D1F80CB00BFA04FB4BEA070BC0F808B0D0
:1020D0004768B7430E79C6F3001696403E43466004
:1020E000C668AE438D68A5403543C5604C68E400C2
:1020F00065D5374C256845F480452560246804F48F
:1021000080440094334C22F003052544D5F8087828
:102110009407260F0CFA06F4A7432F4CA04201D1D6
:10212000002424E02D4CA04201D101241FE02C4CBE
:10213000A04201D102241AE02A4CA04202D1032479
:1021400015E03CE0284CA04201D104240FE0274CCC
:10215000A04201D105240AE0254CA04201D1062469
:1021600005E0244CA04201D1072400E00824B4403B
:102170003C43C5F80848D8F800409C434D68ED033F
:1021800000D51C43C8F80040104D2D1D2C689C4301
:102190004E68B60300D51C432C60D9F800409C4320
:1021A0004D68ED0200D51C43C9F80040DAF8004044
:1021B0009C434D68AD0200D51C43CAF80040521C38
:1021C000102AFFF446AFBDE8F88F0000003C014044
:1021D0004438024000300140000002400004024048
:1021E00000080240000C02400010024000140240AF
:1021F00000180240001C0240002A01D08161704793
:10220000090481617047000001480068000C7047B4
:10221000002004E00148806870470000140200209C
:1022200002488168027811448160704714020020DE
:1022300010B50948016841F400710160016841F47A
:1022400080610160032000F057F80F2000F006F8CD
:1022500000F026F8002010BD003C024070B5044696
:102260000D4D4FF47A712878B1FBF0F00B490968F5
:10227000B1FBF0F000F026FB08B1012070BD102C7E
:1022800007D200222146501E00F016F86C60002094
:1022900070BD012070BD000014020020200200204B
:1022A000704700F01F02012191404009800000F1B9
:1022B000E020C0F800117047F0B40D460D4B1B68CC
:1022C000C3F30223C3F10704042C00D90424191D0D
:1022D000072901D2002300E0DB1E012606FA04F1E3
:1022E000491E294099409E40761E16403143F0BC5D
:1022F00000F065BF0CED00E000F00701054A106832
:102300004FF6FF03184040EA0120034908431060DC
:10231000704700000CED00E00000FA052DE9F047E1
:1023200004460D46002C13D0DFF82491D9F80000A4
:10233000EFB200F00F00A8420CD289F80070D9F873
:10234000000000F00F00A84204D00120BDE8F08793
:102350000120FBE720683F4E810712D5400703D5D7
:10236000306840F4E05030602078000703D53068D2
:1023700040F4604030603068A16820F0F00008430D
:1023800030602078C00731D03249606808390128B0
:1023900008D002280BD0032809D0096889070BD47C
:1023A0000120D3E70968890306D40120CEE7096834
:1023B000890101D40120C9E7316821F003010143FB
:1023C0003160FFF727FF804641F2883A07E0FFF7C8
:1023D00021FFA0EB0800504501D90320B6E7306883
:1023E000616800F00C00B0EB810FF0D1D9F800006B
:1023F00000F00F00A84209D989F80070D9F8000050
:1024000000F00F00A84201D001209FE7207840078C
:1024100005D53068E16820F4E0500843306020784A
:10242000000706D53068216920F4604040EAC10009
:10243000306000F03BF83168074AC1F30311515C8A
:10244000C840064908600F20FFF708FF00207DE71D
:10245000003C024008380240DC480108200200200D
:1024600001480068704700002002002000B5FFF717
:10247000F7FF04490968044AC1F38221515CC8404E
:1024800000BD000008380240EC48010800B5FFF725
:10249000E7FF04490968044AC1F34231515CC8406E
:1024A00000BD000008380240EC48010810B517488C
:1024B000006810F00C01164816D0164B042912D0F3
:1024C000082911D1114C241F216801F03F02216815
:1024D00049020AD52068C0F38810A0FB030100233D
:1024E000FDF7D0FE09E0184610BD21680023C1F3B6
:1024F0008811A1FB0001FDF7C5FE2168C1F3014170
:10250000491C4900B0FBF1F010BD00000838024042
:102510000024F40040787D012DE9F84F0446002C9A
:1025200010D02078DC4DC00757D0DB480830016858
:10253000C1F3810101290DD00068C0F38100022898
:1025400003D00EE00120BDE8F88FD348001D0068DD
:10255000400206D5286880033FD5606870BB012023
:10256000F1E76068B0F5803F10D0B0F5A02F12D031
:10257000286820F480302860286820F480202860B3
:102580006068E0B1FFF746FE064614E0286840F4B4
:1025900080302860F4E7286840F4802028602868AC
:1025A00040F480302860EBE7FFF734FE801B64289E
:1025B00001D90320C7E728688003F5D50DE0FFF7B0
:1025C00029FE064606E0FFF725FE801B642801D998
:1025D0000320B8E728688003F5D42078AF4F800740
:1025E0004FF0000849D5AC480830016811F00C0FD5
:1025F00009D00068C0F38100022814D1A648001D4C
:10260000006840020FD42868800704D5E0680128DC
:1026100001D0012097E72868216920F0F80040EAFE
:10262000C100286029E0E068B8B101203860FFF7F8
:10263000F1FD064606E0FFF7EDFD801B022801D9FB
:10264000032080E728688007F5D52868216920F0F5
:10265000F80040EAC10028600FE0C7F80080FFF7EB
:10266000D9FD064606E0FFF7D5FD801B022801D9FB
:10267000032068E728688007F5D42078000729D56B
:10268000DFF814928648616909F1740989B1012162
:102690000160FFF7BFFD064606E0FFF7BBFD801BAC
:1026A000022801D903204EE7D9F800008007F4D5AD
:1026B00010E0C0F80080FFF7ADFD064606E0FFF72A
:1026C000A9FD801B022801D903203CE7D9F80000AE
:1026D0008007F4D42078400772D50026DFF8B8A12F
:1026E0000AF1400ADAF80000C0000BD4DAF8000062
:1026F00040F08050CAF80000DAF8000000F0805086
:1027000000900126DFF89CB1DBF80000C00515D46D
:10271000DBF8000040F48070CBF80000FFF77AFD92
:10272000814607E0FFF776FDA0EB0900022801D9FA
:10273000032008E7DBF80000C005F3D5DFF858B147
:10274000A0680BF1700B012813D0052818D0DBF816
:10275000000020F00100CBF80000DBF8000020F0C2
:102760000400CBF80000A06830B3FFF753FD8146AA
:102770001DE0DBF8000040F00100CBF80000F2E7BC
:10278000DBF8000040F00400CBF80000DBF80000AC
:1027900040F00100CBF80000E5E7FFF73BFDA0EBC0
:1027A000090141F28830814201D90320CBE6DBF8F0
:1027B00000008007F1D512E0FFF72CFD81460AE00A
:1027C00015E0FFF727FDA0EB090141F288308142B7
:1027D00001D90320B7E6DBF800008007F1D4012E11
:1027E00005D1DAF8000020F08050CAF80000A06996
:1027F000C0B3294908310968C1F38101022949D0D0
:10280000022805D0C7F86080FFF704FD04463CE0CD
:10281000C7F86080FFF7FEFC064606E0FFF7FAFC0B
:10282000801B022801D903208DE628688001F5D499
:10283000D4E907010843616AA26A4FF0FF338901B6
:1028400003EB520241EA0241084394F82C1040EA9B
:1028500001611148001D016001203866FFF7DAFCB4
:10286000044607E014E0FFF7D5FC001B022801D95D
:10287000032068E628688001F5D509E0FFF7CAFC67
:10288000001B022801D903205DE628688001F5D4E9
:10289000002058E6012056E600380240000047427A
:1028A000800E4742007000404FF0E021042804D021
:1028B000086920F0040008617047086940F00400CE
:1028C0000861704710B5401EB0F1807F01D3012030
:1028D00010BD4FF0E02460610F21601700F06FFC25
:1028E0000020A06107202061002010BD70B50446C3
:1028F000002C04D094F83900002510B106E0012026
:1029000070BD84F83850204600F022F8242084F866
:1029100039002068C16821F40051C160204600F0F0
:102920004DFD2068016921F49041016120684169F1
:1029300021F02A0141612068C16841F40051C16061
:10294000E563202084F8390084F83A00002070BD47
:1029500030B587B01D48016841F010010160006882
:1029600000F01000019019481438016841F001018D
:102970000160016801F001010191016841F001016C
:102980000160006800F0010001904FF400700290B7
:102990000220039001200490032005900724069450
:1029A0000B4D02A92846FFF745FB29150291069415
:1029B00002A92846FFF73EFB012200212520FFF750
:1029C0007BFC2520FFF76DFC07B030BD443802408A
:1029D000000002402DE9F84304460D4691461E468C
:1029E00094F83900202802D00220BDE8F883B5B160
:1029F000B9F1000F13D094F83800012811D001204C
:102A000084F838000027E763212084F83900FFF7B5
:102A100001FC8046A4F82490A4F826902DE0012023
:102A2000E3E70220E1E7E08C401EE084A068B0F517
:102A3000805F09D04346002280212046009600F0A6
:102A400047FEB0B10320D0E7434600228021204654
:102A5000009600F03DFE08B10320C6E728882168F3
:102A6000C0F308004860206908B16D1C05E0AD1C8A
:102A700003E0216815F8010B4860E08C0028D2D1F2
:102A80004346002240212046009600F021FE08B176
:102A90000320AAE720203834607027700020A4E7C4
:102AA000F0B587B01B48016841F020010160016862
:102AB00001F020010191016841F0200101600168ED
:102AC00001F020010191016841F0200101600068DE
:102AD00000F0200001904024029401200390049013
:102AE000032005900C4F02A93846FFF7A3FA802572
:102AF000029502A93846FFF79DFAA600029602A9A0
:102B00003846FFF797FA04481830046005600660FD
:102B100007B0F0BD3038024000140240FEB5054653
:102B20000E46144600200290019301A80AF0BEFF51
:102B30008DF80800029BC3F3C0003070C3F303108C
:102B400028706946019800F0E5F801990144019167
:102B5000009A8B18591A022904DB01A80AF0ACFF6D
:102B600020800120FEBD7FB505460E460020039063
:102B700002920024009002A80AF098FF8DF80C0041
:102B80000398C0F3031002281AD101A9029800F09B
:102B9000C1F8029904464218029201981044801A22
:102BA00002280DDB02A80AF081FF8DF800000098D2
:102BB00000F00100287002A80AF078FF30700124AC
:102BC00004B0204670BD2DE9FE4F0D46DDE90CB97D
:102BD000DDE90EA1064617469846002002900191B5
:102BE0000024009001A80AF061FF8DF80800029807
:102BF000C0F3031103292BD1C0F3C0013170C0F31E
:102C00004101296000F0010038706946019800F028
:102C100081F801990446084401900099461832460B
:102C200001A958460AF051FF90B10198301A0FD40B
:102C30002868002804DD01A80AF03EFFA8F800007B
:102C40000198301ACAF800000198C9F80000012460
:102C50002046BDE8FE8F2DE9FE4F82460C980E46B9
:102C600014461F464FF00009CDF808900190C84661
:102C700001A80AF01BFF8DF808000298C0F30310AA
:102C8000092827D16946019800F044F80199804647
:102C90000844019000994518281A02281ADB01A857
:102CA0000AF00AFFAAF80000C4F800900DE02068BE
:102CB000B04202DD4FF0FF380CE001A80AF0F6FE4A
:102CC0002268511C216047F822000198A842EED3E7
:102CD0004FF001084046BDE8FE8FF8B507460E46A6
:102CE00001240025002030606D1C042D0FDC012123
:102CF0006846B84701280AD19DF80020306802F0E4
:102D00007F0101FB04003060E4011006ECD428468A
:102D1000F8BD0000024A10600248FFF7DEBF000065
:102D2000940000204943000810B504460020CA174B
:102D300001EB526323F07F02891ACAB2D91100292C
:102D400001DD42F08002034600F10100E254EEDCB6
:102D500010BD0000401C802801DA401C7047B0F50F
:102D6000804F01DA801C70470349884201DAC01C99
:102D70007047001D70470000FFFF1F002DE9FC4158
:102D800004460F4615464FF0FF3600200190009094
:102D900001212046A847012818D169462846FFF797
:102DA0009CFF601C0099FFF7BFFF401C00990A18A8
:102DB000BA420BDC21B12044A8470099884205D1D2
:102DC00020788DF804000198C0F303163046BDE862
:102DD000FC817CB50546069E0024019400950429DB
:102DE00001DAA01E7CBD62F3071463F3C3040194EF
:102DF000062A15D024F0060201929DF804106846B8
:102E000010F010FE02210098FFF78EFF0099084491
:102E100000903146684610F00BFE0098401B7CBDC8
:102E200024F00602921CE7E72DE9FE4305460F4613
:102E300014460295002601960096204600F092F86E
:102E40008046FFF787FFB84202DDB01EBDE8FE8373
:102E50008DF80460019820F0F000103001909DF88A
:102E6000041002A810F0DEFD41460298FFF75CFF57
:102E7000029908440290207A042813D035A102A8B0
:102E800010F0BCFD032102A810F0CCFD8DF800600D
:102E9000A17E009861F341000090E17E59B140F0BD
:102EA00004000AE02DA102A810F0A8FD042102A848
:102EB00010F0B8FDEAE720F004000090410708D5C3
:102EC00094F83D1061F3C40094F83C1061F3451090
:102ED0000090206C08B9A06C18B1009840F08000F8
:102EE0000090E06C08B9606D18B1009840F04000A7
:102EF00000909DF8001002A810F094FD218B02A80C
:102F000010F096FDD4E9042302A8E16810F09FFDBB
:102F1000E07E58B1D4E90A2302A8616A10F097FD57
:102F2000D4E90D2302A8216B10F091FD009E30061C
:102F300005D5D4E9112302A8216C10F088FD700694
:102F400004D54C3402A80ECC10F081FD0298401B31
:102F50007CE700004D514973647000004D5154549A
:102F60000000000070B504460025207A032802D036
:102F7000042802D002E00C2500E00A25D4E904125E
:102F8000E06800F00FF90544AD1CE07E68B1D4E9BB
:102F90000A12606A00F006F9D4E90D120646206BA9
:102FA00000F000F9304405442D1D206C08B9A16CD7
:102FB00029B1D4E9111200F0F5F80544AD1CE06C1C
:102FC00008B9616D29B1D4E9141200F0EBF8054499
:102FD000AD1C284670BD0C2200F0C7B808B5002310
:102FE00000920422FFF7F5FE08BD08B50023009209
:102FF0000722FFF7EEFE08BD2DE9FE4F0546DDE98D
:103000000C9A129E0F4690461C4602950020019095
:103010000EA900960EC9204600F032F88346FFF74D
:1030200099FEB84203DD6FF00100BDE8FE8F30204D
:1030300068F3C30064F3420069F3000001909DF857
:10304000041002A810F0EEFC59460298FFF76CFE3F
:103050000299084402900EA902A80EC910F0F7FCCC
:10306000002C03DD514602A810F0E2FC3246119913
:103070000298FDF75FF9029830440290401BD4E7B4
:103080007FB50546089C01A807C800F08BF82044CE
:10309000801C002D00DD801C04B070BD08B50093BD
:1030A00013460622FFF795FE08BD2DE9FF4F83B0BA
:1030B0000646DDE91189109F8A469346029600254F
:1030C000019500244146384600F039F80090FFF79A
:1030D00041FE504503DDA01E07B0BDE8F08F8DF81E
:1030E0000450019820F0F00080306BF3C30020F012
:1030F0000600801C01909DF8041002A810F092FCBC
:1031000000990298FFF710FE02990844029002A865
:10311000069910F08DFC0DE004EB440008EB8005EF
:1031200002A80ECD10F093FC19F8241002A810F09C
:1031300079FC641CBC42EFDB0298801BCCE72DE9D4
:10314000F04106460F460225002409E004EB440046
:1031500007EB800307CB00F025F80544ED1C641C49
:10316000B442F3DB2846BDE8F0811CB504460020DC
:1031700001900094022901DA801E1CBD8DF8040024
:10318000019862F3071001909DF80410684610F052
:1031900049FC00210098FFF7C7FD00990144009108
:1031A000081B1CBD17B40098002803D000981EBC53
:1031B000FDF7FEB801981EBC7047FEE7704709078F
:1031C000090E002806DA00F00F0000F1E02080F878
:1031D000141D704700F1E02080F80014704710B50E
:1031E0005020EFF3118480F31188BFF34F8FBFF3AA
:1031F0006F8FFFF715F811F025F8012801D010F0B6
:10320000DBFC84F3118810BD30B593B000252A484B
:10321000016841F080510160006800F08050019029
:103220002648016841F480410160006800F4804054
:103230000190012002900004039002240894800170
:10324000099019200A904FF4A8700B900C94072055
:103250000D9002A8FFF760F900B1FEE70F200E9075
:103260000F9410954FF4A05011904FF4805012908D
:1032700005210EA8FFF752F800B1FEE7FFF7F0F8BE
:103280004FF47A71B0FBF1F0FFF71CFB0420FFF75D
:103290000BFB00221146501EFFF70EF8FEF7B4FF9D
:1032A00041F20101884204D10548016841F480716E
:1032B000016013B030BD0000403802400070004093
:1032C000003C02401048016841F4700101600F4861
:1032D000016841F0010101600C4A002108321160CF
:1032E00002680B4B1A400260031D0A4A1A6002680A
:1032F00022F48022026005480C3001600249580621
:10330000803908607047000088ED00E00038024016
:10331000FFFFF6FE103000243EB5002108460FF0F6
:10332000C7F81A481849016018496FF07F40091D15
:103330000860091D1648086017490022134BCDE9A3
:1033400000211448083302901A1F111F134808F077
:10335000C9FC124808F056FE104C94F82D004007A6
:1033600003D5204608F076FE02E00C4808F050FE37
:103370006068010E0091C0F30743C0F30722C1B299
:1033800007A000F0BBFA3EBDC0A8897A9C010020CE
:10339000C0A88901B1250108156200080C5D012053
:1033A000B1BEB5D84950B5D8D6B7CAC73A25642EEC
:1033B00025642E25642E25640A0A00002DE9F041BB
:1033C00004462068016921F44052E168114301611B
:1033D0002068C26849F20C618A432369A168E569E3
:1033E000194363692B4319431143C1602068416944
:1033F00021F44071A2690A434261E069B24AB349CB
:1034000064253226B0F5004F59D02068884201D09B
:1034100090427DD1FFF73AF800EBC00101EB0010BC
:1034200061688900B0FBF1F7FFF730F800EBC001ED
:1034300001EB001061688900B0FBF1F0B0FBF5F022
:103440006FF01801484307EB800006EB0010B0FB5B
:10345000F5F000F0F007FFF719F800EBC00101EB01
:10346000001061688900B0FBF1F0B0FBF5F007EBEC
:103470000017FFF70BF800EBC00101EB00106168CB
:103480008900B0FBF1F8FFF701F800EBC00101EB98
:10349000001061688900B0FBF1F0B0FBF5F06FF04F
:1034A0001801484308EB800006EB0010B0FBF5F074
:1034B000216800F00F0038448860BDE8F081206882
:1034C000884201D0904256D1FEF7E0FF00EBC001E8
:1034D00001EB001061684900B0FBF1F0B0FBF5F0C2
:1034E0000701FEF7D3FF00EBC00101EB001061689C
:1034F0004900B0FBF1F8FEF7C9FF00EBC00101EB9A
:10350000001061684900B0FBF1F0B0FBF5F000E09D
:1035100086E06FF01801484308EB800006EBC0001E
:10352000B0FBF5F000F0F80007EB4007FEF7AEFF48
:1035300000EBC00101EB001061684900B0FBF1F83D
:10354000FEF7A4FF00EBC00101EB00106168490029
:10355000B0FBF1F0B0FBF5F06FF01801484308EB59
:10356000800006EBC000B0FBF5F0216800F007001A
:1035700038448860A1E7FEF779FF00EBC00101EB5A
:10358000001061684900B0FBF1F0B0FBF5F00701F5
:10359000FEF76CFF00EBC00101EB00106168490011
:1035A000B0FBF1F8FEF762FF00EBC00101EB001089
:1035B00061684900B0FBF1F0B0FBF5F06FF0180165
:1035C000484308EB800006EBC000B0FBF5F000F0CC
:1035D000F80007EB4007FEF749FF00EBC00101EBE5
:1035E000001061684900B0FBF1F8FEF73FFF00EB07
:1035F000C00101EB001061684900B0FBF1F0B0FBC5
:10360000F5F06FF01801484308EB800006EBC000AE
:10361000B0FBF5F0216800F00700384488604CE703
:10362000FEF724FF00EBC00101EB00106168890088
:10363000B0FBF1F7FEF71AFF00EBC00101EB001041
:1036400061688900B0FBF1F0B0FBF5F06FF0180194
:10365000484307EB800006EB0010B0FBF5F000F0EC
:10366000F007FEF703FF00EBC00101EB00106168FB
:103670008900B0FBF1F0B0FBF5F007EB0017FEF7A7
:10368000F5FE00EBC00101EB001061688900B0FBA2
:10369000F1F8FEF7EBFE00EBC00101EB00106168F2
:1036A0008900B0FBF1F0B0FBF5F06FF01801484372
:1036B00008EB800006EB0010B0FBF5F0216800F08D
:1036C0000F0038448860F8E6001401400010014003
:1036D0002DE9F04104460E4617469846069D1DE02A
:1036E000681C1BD02DB1FEF795FDA0EB0800A84289
:1036F00014D92068C16821F4D071C1602068416983
:1037000021F001014161202084F8390084F83A0059
:10371000002084F838000320BDE8F08120680068AC
:1037200036EA000004D00020B842D9D00020F3E7E8
:103730000120F9E7044800680168C943890602D4FA
:103740004168C9B2416070472C020020FEE70000CA
:1037500010B5044623A000F0D1F826A000F0CEF862
:10376000D4F8F801022823D92078002824D0012891
:1037700029D002282ED01BA000F0C0F825A000F010
:10378000BDF818A000F0BAF804F5FE7127A000F00B
:10379000B5F814A000F0B2F8611C29A000F0AEF852
:1037A00010A000F0ABF82BA0D4F8F81100F0A6F8A8
:1037B000002084F8300210BD0AA000F09FF82AA073
:1037C00000F09CF8DDE707A000F098F82CA000F0CE
:1037D00095F8D6E703A000F091F82FA000F08EF83E
:1037E000CFE700000D0A5B494E464F5D203E3E206C
:1037F000000000002A2A2A2A2ACAD5B5BDB6A9D4B3
:10380000C4B5C4CFFBCFA2A3A12A2A2A2A2A2A0AF6
:10381000000000004D5154543E3EB4EDCEF3B5C40B
:10382000CFFBCFA2D6CAC1BF0A0000004D515454ED
:103830003E3ECFFBCFA2D6F7CCE2A3BA25730A0057
:103840004D5154543E3ECFFBCFA2C0E0C8DDA3BAD9
:1038500025730A004D5154543E3ECFFBCFA2B3A472
:10386000B6C8A3BA25640A004D5154543E3ECFFB5E
:10387000CFA2D6CAC1BFA3BA516F53300A0000000D
:103880004D5154543E3ECFFBCFA2D6CAC1BFA3BABE
:10389000516F53310A0000004D5154543E3ECFFB4E
:1038A000CFA2D6CAC1BFA3BA516F53320A000000DB
:1038B0002DE9F043FDB081460E46174600254FF432
:1038C000FA78022342466946484607F01DF8044646
:1038D000601C04D0E0B24246694607F097F86D1CC0
:1038E000EDB2B44201D0BD42EBD3B44203D10020CB
:1038F0007DB0BDE8F0834FF0FF30F9E70FB4054B22
:1039000010B503A9044A029800F0F6F810BC5DF85F
:1039100014FB000025660008280200200FB4084BA5
:1039200010B504A902AA039800F0E6F8044602A91B
:10393000002000F078FC204610BC5DF814FB00006D
:103940002742000802E008C8121F08C1002AFAD165
:1039500070477047002001E001C1121F002AFBD10F
:10396000704700002DE9FF5F82B00021DDE90430DF
:10397000020DDDF840B0034318D044F61050A2F217
:10398000FF3242431514119801281FD0A5EB0B00FC
:10399000401C5FEA000A4FF000064E4FDFF83891F6
:1039A000B046504615D5CAF1000413E01198012421
:1039B0004AA3012801D16FEA0B010298119AC0E9CC
:1039C0000031C0E9024206B0BDE8F09FCBF1000033
:1039D000DFE704460021404A491842EB0450CDE994
:1039E000001012E0E00707D032463B464046494609
:1039F000FDF702F98046894632463B461046194695
:103A0000FDF7FAF806460F466410002CEAD1DDE90E
:103A10000401DDE90023BAF1000F06DAFDF7ECF846
:103A200042464B46FDF7E8F805E0FCF7B9FE424692
:103A30004B46FCF7B5FE04460E460022284BFCF729
:103A400055FF03D84FF0FF30014607E00022254B19
:103A500020463146FDF729F8FDF74CF9102409E01E
:103A6000002C0ADB0A220023FCF70CFC039B3032FB
:103A70001A55641E50EA0102F2D1641C039AC4F183
:103A800011031444119A012A03D0012208430DD1D5
:103A90000AE0084304D000204FF0110B119072E7A8
:103AA000A3EB0B056D1E0DE05B4504DD4FF000023E
:103AB00005F1010504E003DA4FF00002A5F101056C
:103AC000002AECD002981199C0E90231C0E9004502
:103AD00079E70000000014400000F03F30000000D3
:103AE0000000F0430000E03F30380A2801D20120F6
:103AF00070470020704700002DE9FF4F95B09B46AE
:103B00008946064600250FE2252877D1002427465E
:103B1000F84A0121059400E0044316F8013F203BD8
:103B200001FA03F01042F7D130782A2811D06FF053
:103B30002F033078A0F13002092A16D8059A44F0F4
:103B4000020402EB820203EB42021044761C059051
:103B5000EFE759F8042B0592002A03DA504244F4A7
:103B60000054059044F00204761C30782E2816D1BB
:103B700016F8010F44F004042A280DD06FF02F022C
:103B80003078A0F13003092B09D807EB870302EB4B
:103B90004303C718761CF3E759F8047B761C30788A
:103BA0006C280FD006DC4C2817D068280DD06A2866
:103BB00014D104E0742810D07A280FD10DE044F419
:103BC00000140AE044F4801401E044F440147278D4
:103BD000824202D104F58014761C761C3078662867
:103BE0000BD013DC582877D009DC002875D0452885
:103BF000F6D04628F4D047281AD19DE118E0632872
:103C000035D0642879D0652812D195E1702873D019
:103C100008DC6728F1D069286FD06E280DD06F2896
:103C200006D1B5E073282CD0752875D0782874D0CB
:103C30005A46179990476D1C75E1C4F3025002284B
:103C400009D003280DD0D9F8001004280DD00D603C
:103C500009F1040967E1D9F80010EA17C1E9005237
:103C6000F6E7D9F800100D80F2E70D70F0E719F8CB
:103C7000041B8DF8001000208DF80100EA46012099
:103C800003E059F804AB4FF0FF3061074FF000013B
:103C900002D40DE008F101018846B9420FDA8045EF
:103CA000F8DB1AF808100029F4D108E008F1010146
:103CB00088468142FADB1AF808100029F6D10598E7
:103CC0005B46A0EB080721463846179A00F094FAA5
:103CD000284400EB080507E04DE029E10DE01AF863
:103CE000010B5A4617999047B8F10108F7D25B4685
:103CF00021463846179A13E142E00A220092C4F3A3
:103D000002524FF0000A022A08D059F804CB032AC5
:103D10004FEAEC710AD00DE029E02AE009F1070131
:103D200021F00702F2E802C1914609E00FFA8CFC8B
:103D30004FEAEC71042A03D14FFA8CFC4FEAEC7184
:103D4000002907DA0A460021DCF1000C61EB0201D0
:103D50002D2202E0220504D52B228DF80420012219
:103D600003E0E20701D02022F7E7904659E00A215C
:103D700002E010220DE010214FF0000A00910BE04C
:103D800010224FF0000A44F004040827009203E0D8
:103D900008224FF0000A0092C4F30252022A05D012
:103DA00059F804CB0021032A08D009E009F10701E2
:103DB00021F00702F2E802C1914605E01FFA8CFCEF
:103DC000042A01D10CF0FF0C4FF00008220728D57F
:103DD000702806D0009B83F0100353EA0A0305D035
:103DE0000EE040228DF80420012208E05CEA010286
:103DF00006D030228DF804208DF80500022290466E
:103E0000009B83F0080353EA0A030AD15CEA01022B
:103E100001D1620705D530228DF804204FF001084A
:103E20007F1E582804D034A003900EA802900DE005
:103E300036A0F9E753466046009AFCF723FA844619
:103E40000398825C0298401E029002705CEA0100B6
:103E5000F0D1029806A9081A00F1200A600702D5DD
:103E600024F4803400E00127574502DDA7EB0A0067
:103E700000E0002000EB0A01009005984144401A40
:103E80000590E00306D45B462146179A059800F09A
:103E9000B3F90544002706E001A85A46C05D17990A
:103EA00090476D1C7F1C4745F6DBE0030CD55B4655
:103EB0002146179A059800F09FF9054404E0302048
:103EC0005A46179990476D1C0099481E009000298A
:103ED000F5DC08E0029802995A460078491C0291E4
:103EE000179990476D1CBAF10001AAF1010AF1DCA3
:103EF00065E10000092801003031323334353637AE
:103F00003839616263646566000000003031323325
:103F100034353637383941424344454600000000C5
:103F200000F058F90544761C307800287FF4ECAD99
:103F300019B02846BDE8F08F620700D4062709F1C2
:103F4000070222F0070CFCE80223E14603F00048D8
:103F50005FEA080C02D00FF2702C0DE05FEA045CFF
:103F600002D50FF2682C07E05FEAC47C02D00FF2A2
:103F7000602C01E0AFF2700C4FF0FF3823F00043EB
:103F8000CDF850C065280CD006DC452809D046285D
:103F90001DD047283DD13DE0662818D067287ED146
:103FA00038E00021112F01DB112000E0781CCDE961
:103FB000000106A90EA8FFF7D5FCDDE90F010E9A56
:103FC00003910021009207F1010A04914DE04FF0A6
:103FD00000400097CDE9011006A90EA8FFF7C2FC2A
:103FE000DDE90F0203920E9B11990022DDF80CA06F
:103FF0000093049211B9791C00EB010AB7EB0A0097
:1040000004D4C0F1FF3007F1010A0490AAEB0700C5
:10401000019044E0012F00DA01270021112F01DD7A
:10402000112000E03846CDE9000106A90EA8FFF7EF
:1040300099FCDDE90F010E9A039100210491009291
:10404000BA4621070CD40399514500DA8A46BAF1E1
:10405000010F05DD009AAAF10101515C302908D059
:10406000B84202DA10F1040F06DA0121CDE901109D
:1040700015E0AAF10101E9E7002805DC04990144F3
:104080000491AAEB000102E0411C514500DD8A4683
:104090000499401A401C01904FF000400290200704
:1040A00004D40198504501DBCDF8048000208DF840
:1040B0004F0002980DF14F07B0F1004F25D02B2093
:1040C0000E9002984FF0020800280CDA404202904D
:1040D0002D200E9007E00A210298FCF71FFC3031DA
:1040E000029007F8011DB8F10001A8F10108F2DC07
:1040F00002980028EFD1791E0E980870307800F0F1
:10410000200040F0450007F8020D12A8C01B00F186
:1041100007081498007800B1012000EB0A0101980B
:1041200001EBE07105984144401A401E0590E00300
:1041300006D45B462146179A059800F05DF80544C1
:104140001498007818B15A46179990476D1CE003EF
:1041500024D55B462146179A059800F04DF8054492
:104160001CE00498002807DBDDE90301884203DD39
:104170000098405C179901E0179930205A46904703
:10418000049805F10105401C04900198401E01901F
:1041900004D12E205A46179990476D1CBAF10001A0
:1041A000AAF1010ADDDC05E017F8010B5A46179960
:1041B00090476D1CB8F10001A8F10108F4DC5B46E2
:1041C0002146179A0598ABE62D0000002B00000051
:1041D000200000002DE9F041044600251E46174648
:1041E000880404D405E039462020B0476D1C641EC5
:1041F000F9D52846BDE8F0812DE9F04104460025B7
:104200001E469046C80301D5302700E020278804C9
:1042100004D505E041463846B0476D1C641EF9D50B
:104220002846BDE8F0810A68531C0B601070704787
:1042300010B50246002903D012B1906810B104E015
:10424000002010BD916005E010460268002AFBD1F5
:1042500009F018FE012010BD2DE9F041074608467F
:10426000069914469846002F09D040B13CB149B197
:1042700000F016FA0546E06840F400760AE00020F7
:10428000BDE8F081414600F0CEF9054695B1E06801
:1042900020F40076A089800504D4206A10B1D8F8F3
:1042A000041088472562E66021463846BDE8F041A3
:1042B000FFF7BEBF0020E3E72DE9F04106460F46B9
:1042C0000024184D09F012FE05EB0411096841B1F4
:1042D00009F031FE641C042CF4DB4FF0FF30BDE824
:1042E000F08105EB04152E6009F025FE4FF0000863
:1042F000C5F80480A87B10B10BA0FFF7FFFAA5F862
:10430000088030780121B1EB101F04D10FB10120DA
:1043100002E0002000E001206881A5F80C80204622
:10432000DDE700008C670020736F636B6574735B5F
:10433000695D2E73656C6563745F77616974696E1E
:1043400067203D3D2030000070B50546084600223C
:10435000054C05E0236813F8016B2E702360521C96
:104360008242F7DB70BD000094000020F8B50446DF
:104370000D4600F02DF8064600200090064B324610
:1043800029462046FFF768FF08B13046F8BD3046A1
:1043900000F0B6F80020F8BD70000020F8B5044623
:1043A0000D46104600F05EF8064600200090074BD0
:1043B000324629462046FFF74FFF08B13046F8BD88
:1043C000304600F09DF80020F8BD0000700000208D
:1043D00010B52DED028BB0EE408AF0EE608A1648E3
:1043E00000F0D6F8044614B30820E06084ED068B94
:1043F0009FED120B51EC180B53EC102BFCF776FAD7
:1044000003D86FF00040606111E09FED0E0B51EC9E
:10441000180B53EC102BFCF751FA03D84FF0004067
:10442000606104E051EC180BFCF729FA606120464A
:10443000BDEC028B10BD0000700000200000C0FF2A
:10444000FFFFDF41000000000000E0C110B504489C
:1044500000F09EF8002801D04021C16010BD00008E
:104460007000002070B50546094800F091F8044638
:104470003CB11020E0600649284600F0D4F82061E5
:1044800008B1204670BD204600F03AF8002070BD0B
:104490007000002010B5FFF7D9FF0446BCB10DA293
:1044A0000EA12046FFF77AFF9FED0E0B0FA12046CD
:1044B000FFF75CFF9FED0F0B10A12046FFF756FFA3
:1044C000204600F071F80EF0BBFF204610BD002022
:1044D00010BD000066697265000000006E616D65C8
:1044E00000000000000000000000394074656D709D
:1044F00000000000000000000000494068756D00E9
:1045000070B504460F4E19E02568A089C00503D494
:10451000A06808B1FFF7F4FFA089C00503D42069A3
:1045200008B171688847A089800503D4206A08B162
:10453000716888477168204688472C46002CE3D173
:1045400070BD000070000020002202F0AEB800280C
:1045500004D0007B800703D0012070470020704703
:1045600000207047002804D0007B082803D00020DA
:1045700070470020704701207047002804D0007B5E
:10458000102803D00020704700207047012070479A
:1045900010B501682820884704461CB12821204610
:1045A000FBF7EFFE204610BD014A012108F0E8BBF1
:1045B000700000202DE9F04106460F4614463946AA
:1045C0003046FFF7C1FF05465DB12846FFF7BFFF44
:1045D00070B139463046FFF7B7FF216821B102219B
:1045E00003E00020BDE8F0810121C1600120F9E76E
:1045F0002846FFF7C2FF30B139463046FFF7A4FF27
:1046000004610120EEE72846FFF7ACFF48B13946C8
:104610003046FFF799FF94ED000B80ED060B01206B
:10462000E0E70120DEE770B505460C46002D0FD00F
:104630002846FBF7BDFE461C2168304688470446E5
:1046400044B1324629462046FBF774FE204670BD31
:10465000002070BD002070BD70B504460D46002CD2
:1046600004D01DB1AC4207D1002070BD012070BD47
:10467000207898B1641C6D1C2078FBF742FE06463A
:104680002878FBF73EFE8642F2D02078FBF739FE11
:1046900004462878FBF735FE201A70BD002070BD57
:1046A000704700002DE9F0470446294DAB68002013
:1046B000D5F80C8000272E4695F801A096F80290B8
:1046C000D6E9045605EB060CBAF1000F13D0B9F188
:1046D000000F10D11F4E0120D6F818A0C4F800A07A
:1046E0007669361FAE4206D3B44504D3012902D9F8
:1046F000022066600127B9F1000F08D09A4201D26A
:104700001A4604E003EB0806964200D2324603EB59
:10471000080618E013681B1F5FEAC37812D0AB428B
:1047200010D39C450ED310280CD288420AD20228FE
:1047300004D11FB1D4F80480984503D08046401CB2
:1047400044F82830121D9642E4D8BDE8F0870000F6
:104750007C000020186700202DE9F0478EB0064647
:104760000C4620225C4906A8FBF7E4FD5B4FBD68C0
:10477000D7F80C90387858B1787898B1564A58A143
:10478000143A5AA0FFF7BAF860A0FFF7B7F8FEE7AF
:10479000514A5FA1143A55A0FFF7B0F85BA0FFF7AC
:1047A000ADF8FEE74FF0010A87F801A05AA0FFF725
:1047B000A5F856A0FFF7A2F800F0EAF8DFF8188194
:1047C000A8F1BC08D8F82800FFF798F84FA0FFF729
:1047D00095F804F12001304609F046FB0646AE424A
:1047E00003D305EB0900B04201D287F802A032469C
:1047F0004946284600F068FEB878484D00283FD169
:10480000D8F82C00FFF77AF840A0FFF777F8276870
:104810002F6060686860A168A960E268EA60236947
:104820002B6163696B61A369AB61E369EB61DDE9EE
:104830000843CDE90141CDE90332DDE906130090DB
:104840003A4637A0FFF75AF830A0FFF757F8AA69A1
:10485000E8690D990C9BCDE90132CDE90310686937
:1048600000900B9B2A692EA00A99FFF747F827A012
:10487000FFF744F835A0FFF741F824A0FFF73EF812
:104880004248006845F8200F4048001D0078287114
:104890003E4810300068A8603C48401D00782873EE
:1048A0003A481430006828613848801D0088A88282
:1048B000364808300068A86134480C300088E86148
:1048C000324818300088286201F08CFD304608F02C
:1048D000F3FA0EB0BDE8F087B84601087C0000206E
:1048E000216F6E5F6661756C740000002825732966
:1048F0002068617320617373657274206661696CEE
:1049000065642061742025732E0000000D0A0000EC
:10491000696E69745F6F6B0000000000186700200B
:10492000202025733A2025303878202025733A201E
:1049300025303878202025733A20253038782020FB
:1049400025733A2025303878000000003D3D3D3D7C
:104950003D3D3D3D3D3D3D3D3D3D3D3D3D3D3D3D87
:104960003D3D3D3D3D3D3D3D3D3D3D3D3D3D3D3D77
:104970003D3D3D3D3D3D3D3D3D3D3D3D3D3D3D3D67
:104980003D3D3D3D3D3D3D3D3D3D000024ED00E0D4
:1049900010B50748074BA3F120020068A2F12001DF
:1049A000FEF7ACFFBDE8104003A0FEF7A7BF000074
:1049B000FC450108686600200D0A000070B50D4630
:1049C0001446014620220E48FBF7E6FC0C48202244
:1049D00029462030FBF7E0FC0948202221464030E0
:1049E000FBF7DAFC084807498160084A511AC160A0
:1049F00007490161074A511A41610121017070BDE7
:104A00002866002028D801207C00002028DC012016
:104A100000000008D85301082DE9FC4180460F46EC
:104A20000126032F00D903270EF09EFC002520E06D
:104A300005EB450008EBC004D4E90401CDE9000111
:104A40002289E368D4E900010FF0CCFB0646012E71
:104A500007D00BA0FEF752FF0CA06168FEF74EFFD7
:104A600009E010A0FEF74AFF12A06168FEF746FFBA
:104A70006D1CBD42DCD30EF0B1FC3046BDE8FC81BC
:104A80000D0A5B4552525D203E3E20006372656117
:104A90007465207461736B206661696C65643A208B
:104AA000257300000D0A5B494E464F5D203E3E20B7
:104AB00000000000637265617465207461736B208F
:104AC000737563636573733A202573002DE9F041B4
:104AD00006460D46144628782070D5E90312601C5E
:104AE000FBF728FC2969601C4FF0000801F80080E2
:104AF0002869C4F8F801D6E9012104F5FE700746DB
:104B0000FBF718FC706800F80780E888A4F82E020C
:104B1000012084F83002BDE8F081000070B5002467
:104B2000134D55F8240018B1641CE4B2042CF8D3DA
:104B3000104E042C07D200F01FF845F8240010B1E5
:104B40003470204670BD00213078401CC0B20BE0AC
:104B5000042800D3002055F820200AB1307070BD21
:104B6000491CC9B2401CC0B20429F1D3042070BD55
:104B7000CC670020AC00002070B52E200EF09FF80E
:104B8000044620000DD04FF480666FF00705FBF758
:104B9000BFFB82B2B24206D30B4920460DF066FE3F
:104BA00002E0002070BD284610F1080FEFD020B1C0
:104BB00020460EF0BFF8002070BD002203492046B9
:104BC0000EF0A4F8204670BDC8480108AD5000089A
:104BD00001460020002909D0C97A491C022905D2C2
:104BE000034A52F82110002900D00120704700002C
:104BF000B00000202DE9F05F07468B460025DFF866
:104C0000808007EB0710A8F5886AA9460AEB001414
:104C100005EB450658F826305BB108EB8600017AB3
:104C2000B94206D1426804F110005946984748F845
:104C300026906D1CEDB2042DEAD300210425B94263
:104C40000CD001EB01100AEB0010827A022A05D188
:104C5000C07BE27B904201D1E57303E0491CC9B2FD
:104C60000429ECD3E07B042808D2064E56F8200035
:104C70000EF060F8E07B46F82090E573BDE8F09F09
:104C80001C6C0020CC67002010B50024204600F0EA
:104C900005F8641CE4B2042CF8D310BD2DE9F041F2
:104CA0000546284905EB051001EB0014042D02D33D
:104CB00025A0FEF723FEA07A00283AD0002601277F
:104CC000012808D0022813D0032834D0BDE8F041D1
:104CD00024A0FEF713BE00F0BDF820810220A072D0
:104CE000E672277366732846BDE8F04100F0B8BA53
:104CF000207B401E10F0FF0020731AD1607B401C07
:104D0000C0B26073042805D020732846BDE8F04186
:104D100000F0A6BA2046FFF75BFF28B1E07A401CFE
:104D2000E07227736673F0E700212846FFF762FF01
:104D3000A672BDE8F081206810B1401E2060F8D155
:104D4000A672F6E7DC670020617272617920696EF5
:104D5000646578206F7574206F6620626F756E646D
:104D600073000000756E6B6E6F776E20646E735FFC
:104D70007461626C6520656E7472792073746174FD
:104D8000653A00002DE9F04706468A4614464FF67C
:104D9000FF792146504607F0C7FE0546280001D49A
:104DA0004C4502D14846BDE8F087641CA4B2C5F367
:104DB000811003281DD14846F5E72146504607F0EB
:104DC000B3FE0746380001D54846ECE73078FBF7DC
:104DD00098FA8046F8B2FBF794FA804501D048462D
:104DE000E1E74C4501D14846DDE7641CA4B2761CDE
:104DF0006D1E002DE1DC761C2146504607F094FE26
:104E0000002801DA4846CEE7C3D148468442CAD0DA
:104E1000641CA0B2C7E7000010B50C4B00EB0012F9
:104E200003EB02140322A2722160094A914200D9C5
:104E30002260211DFFF7DEFE2068002804D1A07A41
:104E4000032801D10020A07210BD0000DC67002003
:104E5000803A090010B50A4CFBF75AFA80B20021DB
:104E600001EB011204EB0212937A022B02D1128998
:104E70008242F1D0491CC9B20429F1D310BD00000F
:104E8000DC6700202DE9FF5F884691469A460024A2
:104E90004C4E4FF4807506F5886704EB041006EB62
:104EA0000011887A02280FD110312A46009805F0A7
:104EB00070F848B9002000EB400157F82110A9B163
:104EC000401CC0B20428F6D3641CE4B2042CE4D322
:104ED0004FF0000C042100243B4804EB041206EBC5
:104EE0000215AB7AE3B1032B0ED015E000EB4000C6
:104EF00047F8209007EB8000C0F804A004726FF020
:104F0000040004B0BDE8F09FAA7B43789A1AD2B29D
:104F1000624501D994462146641CE4B2042CDCD3DA
:104F20004FF0FF3B042C0BD1042906D201EB0112F8
:104F300006EB0215AA7A032A01D05846E1E70C468F
:104F40000026002101EB410257F8222052B3491CF0
:104F5000C9B20429F6D356B334720121A9720746A7
:104F60004078A873C6F80090C6F804A0B8F1FF0F07
:104F700001D34FF0FF08424605F110000099FBF7FE
:104F8000D9F905EB08004FF0000980F81090FFF701
:104F9000C5FDE87304280CD385F80A90C6F8009084
:104FA0005846AEE701EB410107EB8106D3E75846CF
:104FB000A7E77878401C78702046FFF76FFE6FF007
:104FC00004009EE7DC670020AC0000202DE9F047DC
:104FD00005460E46174698466FF00F09002E0BD077
:104FE00055B1287840B12846FBF7E2F90446FF2C7A
:104FF00004D94846BDE8F0874846FBE731462846D5
:1050000002F08CFD08B10020F4E73146284600F09C
:1050100025F850B10748006848B143463A46214652
:105020002846BDE8F047FFF72DBF0020E2E76FF00C
:105030000500DFE7B000002008B504A003F09EF8EB
:1050400000906946002000F0B1F908BD3230382EDA
:1050500036372E3232322E32323200002DE9F04114
:1050600080460E460024104D4FF4807704EB041068
:1050700005EB0011887A032805D110313A464046E5
:1050800004F087FF38B1641CE4B2042CEED36FF057
:105090000F00BDE8F0812EB104EB041005EB001009
:1050A000406830600020F4E7DC6700202DE9F04F15
:1050B00089B0174699463889102864D300230C22FA
:1050C00006A9384607F092FA0C285CD1BDF8180002
:1050D00003F09CFA0024DFF8808104EB041108EB54
:1050E0000116B17A02297DD1318981427AD1BDF888
:1050F0001C0003F08BFA8246BDF81E0003F086FA0E
:1051000005469DF81A0000063DD5BAF1010F3AD1C7
:10511000F17A524AD9F8000052F82110884232D16F
:105120000C22394606F11000FFF72CFE83464FF69D
:10513000FF79CB4527D05B46042202A9384607F009
:1051400055FA04281FD1BDF80A004FF4807A504563
:105150007DD1BDF80800504579D10BF104004FF422
:10516000803B584573D281B29DF81B0000073CD0AC
:105170003046FFF72DFDB0B303207073012030736C
:105180002046FFF78BFD62E0384600F021F9064625
:105190004E455CD033460A2203A9384607F026FA6A
:1051A0000A2854D10A365E4551D2B6B2BDF80E0077
:1051B000504508D1BDF80C00504504D1BDF814008D
:1051C000B0F5806F25D0BDF8140003F01FFA30440D
:1051D00058453CD2BDF8140003F018FA304481B2AF
:1051E0006D1E01E02EE004E0ADB215B138898842B1
:1051F000CAD8384607F058FA00212046FFF7FAFCD3
:1052000004EB041108EB01110020887209B0BDE81D
:10521000F08F3346042201A9384607F0E7F9042845
:1052200015D104EB041108EB0111019848603846D0
:1052300007F03AFA049803F0DDF901462046FFF73B
:10524000EBFDE3E7641CE4B2042CFFF446AF384600
:1052500007F02AFADAE70000DC670020B00000203F
:105260002DE9FF5F0446494904EB041001EB0015EA
:10527000E87A022802D346A0FEF740FBEA7A4A49C0
:10528000002651F8220048B305F110000446FBF750
:105290008FF8123081B24FF42072362006F036FFBC
:1052A00082465FEA0A006CD001960296039628892E
:1052B00003F0ACF9ADF8040001208DF806004FF4BE
:1052C000807BADF808B00C2201A9504607F06EFBB8
:1052D000641E0C26641C274600220BE00021204699
:1052E000FFF788FCAE72002004B0BDE8F09F521CAE
:1052F000D2B2641C20782E2801D00028F7D1E01B00
:105300001FFA80F906EB020808F10108B8F5803FA2
:1053100005D3504607F0C8F96FF00500E4E73146C1
:10532000504607F06DFA761CB3B24A4639465046ED
:1053300007F0BCFB1FFA88F620780028CAD10022AB
:105340003146504607F05CFA761CB3B2ADF800B0B7
:10535000ADF802B004226946504607F0A7FBE87B8F
:105360003523EA7A104901EB82020849103951F8D5
:10537000200051460DF034FD0446504607F094F9E4
:1053800001E04FF0FF342046AEE70000DC6700206C
:10539000646E7320736572766572206F7574206F0A
:1053A0006620617272617900B0000020022805D287
:1053B000054A02EB800011B109680160704703499A
:1053C0000968016070470000B0000020C84801086B
:1053D00070B505460C464FF6FF762146641CA4B214
:1053E000284607F0A1FB00280ADB4CB1C0F381116D
:1053F000032911D029892044884203DB304670BD3F
:10540000304670BD84B22146284607F08DFB002847
:1054100001DA304670BDE0D130468442FAD0641CD7
:10542000A0B270BDFFF730BC70B505460C46A007B2
:1054300002D007A0FEF762FA08F058FDE968096893
:105440002160E9680C60BDE8704008F074BD0000A0
:105450006D656D705F667265653A206D656D207073
:10546000726F7065726C7920616C69676E6564003B
:1054700070B5044608F03AFD0546E06804685CB182
:1054800021680160A00702D006A0FEF737FA28467F
:1054900008F051FD204670BD284608F04CFD002064
:1054A00070BD00006D656D705F6D616C6C6F633A0F
:1054B000206D656D702070726F7065726C792061FF
:1054C0006C69676E656400002DE9F041064614467C
:1054D0001B481C4F75188278002A17D0007938B104
:1054E00021467869FEF70AFA17A0FEF707FA06E0E8
:1054F0002146B869FEF702FA13A0FEF7FFF9B4429D
:1055000001D2344602E0A54200D22C46F868FEF7EC
:10551000F5F90DA0FEF7F2F908E021460BA022688C
:10552000FEF7ECF908A0FEF7E9F9241DA542F4D82E
:105530000DA0FEF7E3F9BDE8F04103A0FEF7DEB9E8
:105540007C000020FC4501080D0A00002020616459
:1055500064723A20253038782020202064617461FC
:105560003A202530387800003D3D3D3D3D3D3D3DF4
:105570003D3D3D3D3D3D3D3D3D3D3D3D3D3D3D3D5B
:105580003D3D3D3D3D3D3D3D3D3D3D3D000000003F
:1055900070B50546002D05D140F2FB4214A11AA0BA
:1055A000FEF7ACF91C4E3068854201D1002070BD79
:1055B0000DF0DAFE6C690DF011FFF06B844202D041
:1055C000306C844201D1022070BD1448844205D160
:1055D000A86A08B1022070BD032070BD0F481438BE
:1055E000844202D00CB1012070BD042070BD0000C7
:1055F0002E2E5C4672656552544F535C7372635C29
:105600007461736B732E63004572726F723A257307
:105610002C25640D0A000000AC010020146001205C
:105620002DE9F0410446002C09D022683AB16368A4
:105630003BB1A068984204D30020BDE8F08100206F
:10564000FBE74FF00046B14201D30020F5E7A56823
:10565000491C6818834201D35019EEE7216909B14A
:105660000020EAE7B0F1804F06D3B04202D26FF0DB
:10567000004602E00020E0E74600236A00275BB115
:105680003146104698470546A5B9E1692068884724
:10569000676027600020D0E7A1693046884705464B
:1056A0006DB1A2682846521C2168FAF743FEE169F1
:1056B0002068884766602560A0682844BDE7E169E6
:1056C00020688847676027600020B6E72DE9F0472B
:1056D00004460F46002C02D137A0FEF70FF908F060
:1056E00005FC002666602772217F41F001012177C9
:1056F0006578667008F01FFC636A1BB10022042104
:1057000020469847636A1BB10022114620469847FD
:10571000636A1BB10022022120469847384603F0F5
:10572000F1FD804604F11000814608F064FC18B1D8
:105730004146484608F051FC04F11400814608F047
:105740005AFC18B14146484608F047FC012D0BD0E1
:10575000042D09D0032D07D0206A002829D0BDE8E8
:10576000F04719A0FEF7CAB8207FC0F3800100F00F
:10577000FB00207700291CD1206A10B919A0FEF780
:10578000BDF8042D09D0206A0771206A05680C3520
:10579000284608F0C3FC18B105E0206A0671F4E75A
:1057A00017A0FEF7ABF826622846BDE8F04708F0E0
:1057B00095BCBDE8F0870000636F6E6E20213D2030
:1057C0004E554C4C00000000636F6E6E2D3E6375AD
:1057D0007272656E745F6D7367203D3D204E554C4F
:1057E0004C000000636F6E6E2D3E63757272656EC5
:1057F000745F6D736720213D204E554C4C000000B6
:10580000696E61766C6964206F705F636F6D706C38
:10581000657465645F73656D00000000002802DC3C
:105820004142112901DB052070470249A1EB8000AC
:1058300000687047DC46010870B505460024084E34
:1058400004EB440006EBC000017D29B18068A8424A
:1058500002D1204600F0F6F8641C0A2CF0DB70BD83
:10586000EC5B01202DE9F74F84B080464FF00A0A27
:10587000D1460A270024BB460020029001900090E8
:10588000494904EB440001EBC0060390357D0A2F23
:1058900000D1CDB125B3012D04D0022D02D243A0F9
:1058A000FEF72CF8B8F1000F10D0D8F8000071689E
:1058B00088420BD1069818B1B1680698814205D18B
:1058C000204607B0BDE8F08F274609E0012D13D030
:1058D000022D05D3708A0099884201D3A146009019
:1058E000641C24B20A2CCBDB05984FF0FF318007F3
:1058F0001CD40A2F13D015E02B48039950F831001F
:1059000030B1708A02998842EAD3A3460290E7E751
:10591000708A01998842E3D3A2460190E0E7059896
:10592000C00703D00A2F03DA3C4620E00846C8E748
:10593000B9F10A0F0ADA4C461B4804EB440150F84F
:10594000310060B129A0FDF7D9FF08E0BAF10A0FD4
:1059500001DA544603E0BBF10A0F23DA5C460A2C55
:1059600002DB28A0FDF7CAFF204600F06BF80A2CE6
:1059700002DB24A0FDF7C2FF0B4804EB440100EB5F
:10598000C105287D10B124A0FDF7B8FFB8F1000FC4
:1059900002D0D8F800006860002068820698A860ED
:1059A00020468EE708468CE7EC5B01207374617437
:1059B00065203D3D204554484152505F5354415469
:1059C000455F50454E44494E47207C7C20737461AE
:1059D0007465203E3D204554484152505F53544128
:1059E00054455F535441424C450000006172705F62
:1059F0007461626C655B695D2E71203D3D204E5582
:105A00004C4C000069203C204152505F5441424CB4
:105A1000455F53495A4500006172705F7461626C62
:105A2000655B695D2E7374617465203D3D2045544E
:105A3000484152505F53544154455F454D5054596D
:105A40000000000070B50C4E00EB4004002556F835
:105A50003400002803D006F027FE46F8345006EB49
:105A6000C400057545828560456004490A68C260C6
:105A70008988018270BD0000EC5B0120D6480108D6
:105A80002DE9F04387B007460D46002D09D07C680C
:105A90004FF48078208840450FD1207906280CD11A
:105AA00005E01FA0FDF72AFF07B0BDE8F08360798D
:105AB000042802D16088082803D0384606F0F4FD97
:105AC000F2E7D4F80E000690A0690590696819B154
:105AD000884203D1012602E0002600E000260EB134
